:020000040800F2
:10000000A04A00209D010008B1600008E14E0008F0
:10001000715B00081D0E000801720008000000005E
:1000200000000000000000000000000095630008D0
:10003000210E0008000000002D620008F563000892
:10004000B7010008B7010008B7010008B7010008B0
:10005000B7010008B7010008250E0008B701000825
:10006000B7010008B7010008B7010008B701000890
:10007000B7010008B7010008B7010008B701000880
:10008000B7010008B7010008B7010008B701000870
:10009000B7010008B7010008B7010008B701000860
:1000A000B7010008B7010008B7010008B701000850
:1000B000B7010008B7010008B7010008B701000840
:1000C000B7010008B7010008B7010008B701000830
:1000D000B7010008B7010008B7010008FD6E00086D
:1000E000310E0008B7010008B7010008B701000889
:1000F000B701000875650008B7010008B7010008DE
:10010000B7010008B7010008B7010008B7010008EF
:10011000B7010008B7010008B7010008B7010008DF
:10012000B7010008B7010008B7010008B7010008CF
:10013000B7010008B7010008B7010008B7010008BF
:10014000B7010008B7010008B7010008B7010008AF
:10015000B7010008B7010008B7010008B70100089F
:10016000B7010008B7010008B7010008B70100088F
:10017000B7010008B7010008B7010008000000003F
:10018000B7010008B7010008DFF80CD000F078FCD8
:100190000048004765B50008A04A0020064880478F
:1001A00006480047FEE7FEE7FEE7FEE7FEE7FEE75C
:1001B000FEE7FEE7FEE7FEE70565000889010008A7
:1001C0002DE9F05F0546002092469B46884606468C
:1001D000814640241BE0284641464746224600F01F
:1001E000C8FA53465A46C01A914110D311461846D0
:1001F000224600F0AFFA2D1A67EB01084F4622465F
:100200000120002100F0A6FA17EB00094E41201E44
:10021000A4F10104DFDC484631462A464346BDE8E6
:10022000F09F2DE9F0410024061B254671F10006E0
:1002300005DA01240027D0EB070067EB0101161E49
:1002400073F1000605DA0027D2EB0702012567EB00
:100250000303FFF7B5FF86460E4617469C46AC42A1
:1002600004D00025D0EB050E65EB010624B100207B
:10027000D2EB000760EB030C704631463A4663460A
:10028000BDE8F08140EA01039B0703D009E008C9FB
:10029000121F08C0042AFAD203E011F8013B00F84B
:1002A000013B521EF9D27047D2B201E000F8012B97
:1002B000491EFBD270470022F6E710B513460A46E6
:1002C00004461946FFF7F0FF204610BD421C10F807
:1002D000011B0029FBD1801A7047CBB203E00178E3
:1002E000994203D0401C521EF9D20020704770B5CD
:1002F00006460FF053FB046805460A2200213046EB
:1003000000F059FA2C6070BD2DE9FE4F804681EA5D
:100310000300C00F0C46009021F0004123F000457F
:10032000B8EB0200A94105D24046214690461C4642
:100330000B46024623F00040104347D0270DC7F379
:100340000A00C3F30A510290401A019040286BDA68
:10035000C3F3130040F4801B0098924620B10023A1
:10036000D2EB030A63EB0B0B01985946C0F1400234
:10037000504600F0EFF906460D4650465946019AA0
:1003800000F007FA10EB08006141002487EA1152DF
:1003900084EAE7731A4340D0009A62B3019A012AB3
:1003A0004FEA075215DC001B61EB02014FF00042DF
:1003B00002EA0752CDE90042001C41F580113246A5
:1003C0002B4600F076FA03B0BDE8F08F4046214698
:1003D000F9E7001B61EB0201001C41F580130018D6
:1003E0005B412018A2F5001747EB030140EAD570E6
:1003F000B6196D4111E06D084FEA360645EAC07541
:100400004FEA0752001B61EB0201001C41F580110D
:1004100049084FEA30000019514132462B4603B0DB
:10042000BDE8F04F00F036BA0098012240000023EA
:10043000D0EB020263EBE073009821464FEAE074D0
:10044000B8EB000061EB0401E9E783F000435BE7F0
:1004500081F0004158E72DE9FE4F81EA030404F0E2
:10046000004421F0004100944FF0000B23F00043C2
:1004700050EA01045ED052EA03045BD0C3F30A548D
:10048000C1F30A552C44A4F2F3340194A0FB0254A6
:10049000C1F3130141F48011C3F3130343F4801338
:1004A00001FB024400FB034E840A970A44EA81548C
:1004B00047EA8357A4FB076802958D0A05FB078569
:1004C0004FEA932C04FB0C542705029D4FEA065873
:1004D00047EA1637B5EB08056EEB070C870E920E50
:1004E00047EA811742EA8312A7FB0201B6EB0B0130
:1004F00064EB00042B0D43EA0C335E1844EB1C50F4
:10050000DA465146E7FB0201C5F313044FEA0B3309
:1005100043EA14534FEA0432019C43EA0603A4F170
:100520000C040294009CCDE900B400F0C2F903B0C1
:10053000BDE8F08F00200146F9E72DE9F04D81EA92
:10054000030404F0004B21F0004514464FF0000A6C
:1005500023F0004150EA050220D054EA01021DD0E8
:10056000C5F30A570246C5F31303C1F31300C1F3E1
:100570000A5640F4801543F48013A7EB0608101BBD
:10058000D64608F2FD3873EB050002D308F10108E6
:1005900001E092185B41B8F1000F03DA0020014638
:1005A000BDE8F08D00204FF48011064684460EE031
:1005B000171B73EB050705D3121B63EB05030643FB
:1005C0004CEA010C49084FEA300092185B4150EAAE
:1005D0000107EDD152EA030012D082EA040083EA57
:1005E0000501084305D0101BAB4106D201220023B0
:1005F00006E000224FF0004302E06FF001025310CA
:100600001AEB06004CEB085110EB0A0041EB0B0112
:10061000BDE8F04D00F03EB930B5041E71F10004A4
:1006200004DB4FF00044404264EB0101141E73F1FF
:10063000000405DB1C464FF00043524263EB040309
:1006400042404B401A4301D0002030BD012030BD54
:100650000EB5C10F80EAE0700844CA07002140F2DD
:1006600033438DE80E000A460B4600F022F903B032
:1006700000BD0EB540F2334102910021CDE90011D9
:100680000A460B4600F015F903B000BD70B5C1F382
:100690000A5201F000450024C1F3130140F2FF3378
:1006A00041F480119A4201DA002070BD40F23343D8
:1006B0009A42A2F2334203DC524200F05AF800E0C0
:1006C00090402C43F1D0404270BD00F0004230F029
:1006D00000400AD0C10D01F56071C0F3160042EA76
:1006E0000151C2084007114370470020014670477E
:1006F00001F0004330B421F0004150EA010206D07D
:100700000A0DA2F56072C1F31301002A02DC30BCAD
:1007100000207047440F44EAC104C100E01830BC17
:1007200000EBC25000F07FB830B50B460146002008
:100730002022012409E021FA02F59D4205D303FAA3
:1007400002F5491B04FA02F52844151EA2F1010224
:10075000F1DC30BD202A04DB203A00FA02F100204F
:1007600070479140C2F1200320FA03F319439040EF
:100770007047202A04DB203A21FA02F0002170475A
:1007800021FA02F3D040C2F12002914008431946F9
:100790007047202A06DBCB17203A41FA02F043EAE1
:1007A000E07306E041FA02F3D040C2F1200291402A
:1007B0000843194670472DE9F04791460F46804699
:1007C0000446002614F8015B2DB100F06BF90068B7
:1007D000405DC007F6D12B2D02D02D2D18D0641E00
:1007E0004A463946204600F061F927B13968A142EE
:1007F00001D1C7F8008071054FF002040BD54042CB
:10080000002803DD0FF0CAF80460A007BDE8F087F8
:1008100046F48066E4E70028F8DA0FF0BFF80460D9
:100820006FF00040F2E70029A8BF7047401C490064
:1008300008BF20F00100704710B4B0FA80FC00FA45
:100840000CF050EA010404BF10BC704749B1CCF170
:10085000200421FA04F411FA0CF118BF01212143FC
:100860000843A3EB0C01CB1D4FEA00614FEA1020B7
:1008700042BF002010BC704700EBC3501044002959
:10088000A4BF10BC7047401C490008BF20F0010005
:1008900010BC704710B5141E73F1000408DA401C38
:1008A00041F1000192185B411A4301D120F001008F
:1008B00010BD2DE9F04D92469B4611B1B1FA81F27F
:1008C00002E0B0FA80F220329046FFF743FF044680
:1008D0000F4640EA0A0041EA0B0153465A460843D4
:1008E00013D0114653EA010019D0C8F14002504616
:1008F000FFF73FFF05460E46504659464246FFF772
:1009000029FF084305D0012004E020463946BDE810
:10091000F08D0020054346EAE0762C4337430A98E1
:100920006305E40AA0EB08000022FD0A44EA4754EC
:100930000A3002D500200146E9E701051019694196
:10094000DDE9084500196941BDE8F04DA2E72DE950
:10095000F04D00231A461B1A8A4103DB0020014692
:10096000BDE8F08DC1F30A52C1F3130141F48015C3
:100970004FF0000BD10702D100186D41521E002725
:10098000044640F2FF11384601EB620A3E468046BB
:10099000024600204FF48011FFF7EBFEC2197141AF
:1009A000BB1846EB0100B4EB030C75EB000C04D351
:1009B000E41A65EB000517460E46241908F10100FC
:1009C0006D4180463428E3DDF91946EB0600091B2A
:1009D000A84103D24FF0FF32134601E00022134634
:1009E0001BEB070046EB0A51BDE8F04DFFF752BF85
:1009F000C1F30A52C1F3130140F2FF3341F48011F5
:100A00009A4202DA00200146704740F233439A428C
:100A1000A2F2334202DC5242FFF7ABBEFFF79ABEAE
:100A200030B5041E71F1000404DB4FF00044404275
:100A300064EB0101141E73F1000405DB1C464FF04A
:100A40000043524263EB04038B4208BF824230BD35
:100A500030B5041E71F1000404DB4FF00044404245
:100A600064EB0101141E73F1000405DB1C464FF01A
:100A70000043524263EB0403994208BF904230BDE9
:100A8000064C074D06E0E06840F0010394E80700DB
:100A900098471034AC42F6D3FFF77AFBAC17010845
:100AA000CC17010800487047CC0E01082DE9F05F13
:100AB00082460078002715468B460AF10104B946A4
:100AC000302801D09DB113E014F8010B01277828DC
:100AD00003D0582801D045B10AE00DB1102D07D13F
:100AE0000027102514F8010B02E0082500E00A2574
:100AF0000026B0460EE005FB080005FB06F10127C5
:100B000001EB10461FFA80F8B6F5803F00D3B946D6
:100B100014F8010B294600F018F80028EBDABBF1B5
:100B2000000F05D00FB1641E00E05446CBF8004022
:100B3000B9F1000F06D00EF031FF02210160C81E8E
:100B4000BDE8F09F48EA0640FAE73A2800D230387C
:100B500020F02002412A01D3A2F13700884201D3BC
:100B60004FF0FF307047000080B586B0014604901A
:100B700004980022427004988270049840F2FC624B
:100B8000C2F200024260049810220273049800220C
:100B9000C4F202028260049840F66542C0F6000288
:100BA0000261049840F64152C0F600024261049886
:100BB00040F65142C0F6000282610498019107F0AC
:100BC00019FD8DF80F009DF90F00002804D0FFE7F4
:100BD000FC208DF8170036E0049902A807F0EEFB20
:100BE0008DF80F009DF90F00002804D0FFE7FC20CE
:100BF0008DF8170027E001208DF80B0002208DF8FA
:100C000009008DF8080000208DF80A00049902A858
:100C100007F06AFD8DF80F000499032007F07AFDB4
:100C20009DF80F1008438DF80F009DF90F00002864
:100C300004D0FFE7FC208DF8170004E09DF80F00BA
:100C40008DF81700FFE79DF9170006B080BD000082
:100C500080B582B0014601900198009100F0C6F97C
:100C600002B080BD2DE9F04103AF8EB09C469646A0
:100C70000C46054607F80D0C07F80E1C47F8142C17
:100C800027F8163C37F8160C411C6A4647F81C2C0E
:100C900008304FF6F872C0F2010210406A46101A8E
:100CA000854647F8201C37F8161C4A1C002147F8D7
:100CB000240C47F828CC47F82CEC47F8304C47F880
:100CC000345CFFF70AFB17F80E1C57F8242C02F8C7
:100CD000011B57F8141C37F8163C47F8380C10461F
:100CE00047F83C2C1A46FFF7CDFA47F8400C07F0BE
:100CF000F3FD37F8160C013082B240F2FC60C2F20C
:100D00000000642357F8241C02F0A6FD07F8170C16
:100D100007F0ECFD57F8140C37F8162C57F83C1C6C
:100D2000FFF7B0FA57F81C1C17F9172C8D4647F837
:100D3000440C1046A7F10C04A546BDE8F081000064
:100D40002DE9F04103AF8EB09C4696460C46054611
:100D500007F80D0C07F80E1C47F8142C27F8163C62
:100D600037F8160C411C6A4647F81C2C08304FF621
:100D7000F872C0F2010210406A46101A854647F820
:100D8000201C37F8161C4A1C002147F8240C47F891
:100D900028CC47F82CEC47F8304C47F8345CFFF788
:100DA0009CFA17F80E1C57F8242C02F8011B57F870
:100DB000141C37F8163C47F8380C104647F83C2C02
:100DC0001A46FFF75FFA47F8400C07F085FD37F841
:100DD000160C013082B240F2FC60C2F200006423C3
:100DE00057F8241C02F074FE07F8170C07F07EFD7C
:100DF00057F8140C37F8162C57F83C1CFFF742FA3A
:100E000057F81C1C17F9172C8D4647F8440C104650
:100E1000A7F10C04A546BDE8F0810000FFE7FEE75E
:100E20007047000080B5012000F028F980BD000067
:100E300080B54FF4804000F021F980BD80B584B0CA
:100E40000A46034603900291039802994FF0000C62
:100E500001926246009300F003F804B080BD0000E8
:100E600080B586B013468C468646059004918DF871
:100E70000F2001208DF80E0000208DF80D0040F2AB
:100E80007060C2F20000407A00280293CDF804C0DE
:100E9000CDF800E026DCFFE740F27060C2F200000F
:100EA000417A002242540599437A00EB830359604A
:100EB0009DF80F10437A03441972417A4B1C437218
:100EC0008DF80D109DF80D003030049908700498CD
:100ED0003A21417004982F2181700498C2708DF8D6
:100EE0000E20FFE79DF80E0006B080BD80B584B0EF
:100EF0000146029002980028019104D1FFE70120E9
:100F00008DF80F0027E00298006843F20001C4F258
:100F10000201884201D1FFE707E041F2D150C0F65B
:100F20000100772106F078F9FFE702984079002860
:100F300007D1FFE7029800210171029800F010F834
:100F4000FFE70298022141710298012141710020BE
:100F50008DF80F00FFE79DF80F0004B080BD000082
:100F600084B0014603900398006843F20002C4F283
:100F700002029042019113D1FFE7FFE700200290A7
:100F800043F63000C4F20200016841F48051016070
:100F9000006800F48050029002980090FFE7FFE79D
:100FA00004B0704783B001460190019890F8350075
:100FB0000228009107D0FFE70198802141650120B8
:100FC0008DF80B000EE00198052180F8351001988E
:100FD0000068016821F001010160FFE700208DF841
:100FE0000B00FFE79DF80B0003B0704780B584B09D
:100FF00001460390009100F049FC02900398019093
:1010000001980130002809D0FFE740F24400C2F205
:1010100000000078019908440190FFE7FFE700F025
:1010200035FCDDF808E0A0EB0E00DDF804E07045CB
:1010300001D2FFE7F3E704B080BD000080B582B0C5
:101040000146ADF80600BDF806000128009107D161
:10105000FFE740F6F810C2F200000DF0CDFA0AE00A
:10106000BDF80600B0F5804F04D1FFE70CF0ACF9F5
:1010700000BFFFE7FFE702B080BD000080B582B08F
:101080000146ADF8060043F61440C4F201000068C2
:10109000BDF80620104200910CD0FFE7BDF8060015
:1010A00043F61441C4F201010860BDF80600FFF7E1
:1010B000C5FFFFE702B080BD80B592B00A46034687
:1010C0001190109100200E900D900C90119800211D
:1010D000C4F2020188420A92099340D0FFE71198B6
:1010E00040F20041C4F20201884238D0FFE7119873
:1010F00040F60001C4F20201884230D0FFE71198A7
:1011000040F60041C4F20201884228D0FFE711985E
:1011100041F20001C4F20201884220D0FFE7119899
:1011200041F20041C4F20201884218D0FFE7119851
:1011300041F60001C4F20201884210D0FFE7119885
:1011400041F60041C4F20201884208D0FFE711983D
:1011500042F20001C4F20201884201D1FFE707E038
:1011600041F22270C0F60100C32106F055F8FFE7F6
:1011700010980088002806D0FFE7109840880028C3
:1011800001D1FFE707E041F22270C0F60100C4215F
:1011900006F042F8FFE710984068002849D0FFE7C2
:1011A00010984068012844D0FFE710984068112843
:1011B0003FD0FFE71098406802283AD0FFE7109828
:1011C0004068122835D0FFE7109840680021C1F22E
:1011D000110188422DD0FFE7109840680021C1F22C
:1011E0002101884225D0FFE7109840680021C1F214
:1011F000310188421DD0FFE7109840680021C1F2FC
:101200001201884215D0FFE7109840680021C1F212
:10121000220188420DD0FFE7109840680021C1F2FA
:101220003201884205D0FFE710984068032801D1B9
:10123000FFE707E041F22270C0F60100C52105F08A
:10124000EBFFFFE71098806800280AD0FFE71098AE
:101250008068012805D0FFE710988068022801D136
:10126000FFE707E041F22270C0F60100C62105F059
:10127000D3FFFFE700200F90FFE70F980F2800F241
:10128000BB82FFE70F98012101FA00F00E90109841
:1012900000680E9908400D900D980E99884240F014
:1012A000A682FFE710984068022806D0FFE7109852
:1012B0004068122840F0F080FFE71098006900288D
:1012C00000F0B980FFE710980069092800F0B380AA
:1012D000FFE710980069002800F0AD80FFE7109844
:1012E0000069002800F0A780FFE710980069002837
:1012F00000F0A180FFE710980069002800F09B80B3
:10130000FFE710980069012800F09580FFE710982A
:101310000069012800F08F80FFE71098006902281B
:1013200000F08980FFE710980069022800F08380B0
:10133000FFE71098006902287DD0FFE71098006948
:10134000032878D0FFE710980069042873D0FFE7DE
:101350001098006904286ED0FFE7109800690428EF
:1013600069D0FFE710980069052864D0FFE710985E
:10137000006905285FD0FFE71098006909285AD056
:10138000FFE710980069062855D0FFE7109800691C
:10139000092850D0FFE71098006907284BD0FFE7D5
:1013A00010980069072846D0FFE7109800690728C1
:1013B00041D0FFE71098006908283CD0FFE710985B
:1013C0000069082837D0FFE710980069082832D054
:1013D000FFE71098006909282DD0FFE710980069F1
:1013E000092828D0FFE7109800690A2823D0FFE7D2
:1013F000109800690A281ED0FFE7109800690B2892
:1014000019D0FFE7109800690C2814D0FFE7109856
:1014100000690C280FD0FFE7109800690D280AD04A
:10142000FFE7109800690C2805D0FFE710980069C5
:101430000F2801D1FFE707E041F22270C0F601005A
:10144000D72105F0E9FEFFE711980F994FF6FC72DE
:10145000C7F6FF7202EA51010844006A0C900F9827
:1014600000F0070080000F2101FA00F00C9921EA3A
:1014700000000C90109800690F9901F00701890095
:1014800088400C9908430C900C9811990F9B02EA24
:10149000530211440862FFE7119800680C900F98FE
:1014A0004000032101FA00F00C9921EA00000C90A1
:1014B0001098406800F003000F99490088400C998B
:1014C00008430C900C981199086010984068012806
:1014D0000FD0FFE71098406802280AD0FFE7109865
:1014E0004068112805D0FFE71098406812284CD1B9
:1014F000FFE71098C06800280FD0FFE71098C06879
:1015000001280AD0FFE71098C068022805D0FFE73D
:101510001098C068032801D1FFE707E041F222706C
:10152000C0F60100EA2105F077FEFFE71198806818
:101530000C900F984000032101FA00F00C9921EA69
:1015400000000C901098C0680F99490088400C99D1
:1015500008430C900C9811998860119840680C9081
:101560000F98012101FA00F00C9921EA00000C907B
:1015700010984068C0F300100F9988400C990843F8
:101580000C900C9811994860FFE71198C0680C9076
:101590000F984000032101FA00F00C9921EA0000A5
:1015A0000C90109880680F99490088400C99084366
:1015B0000C900C981199C86010984068C0000028E1
:1015C00040F11481FFE7FFE700200B9043F6440051
:1015D000C4F20200016841F480410160006800F437
:1015E00080400B900B980890FFE70F9820F00300C5
:1015F00043F60801C4F2010140580C900F9800F026
:10160000030080000F2101FA00F00C9921EA00008C
:101610000C9011980021C4F20201884203D1FFE727
:10162000002007905EE0119840F20041C4F20201F0
:10163000884203D1FFE70120069050E0119840F660
:101640000001C4F20201884203D1FFE702200590A5
:1016500042E0119840F60041C4F20201884203D1F1
:10166000FFE70320049034E0119841F20001C4F236
:101670000201884203D1FFE70420039026E011987D
:1016800041F20041C4F20201884203D1FFE7052084
:10169000029018E0119841F60001C4F2020188425C
:1016A00003D1FFE7062001900AE0119841F60041BE
:1016B000C4F202010822884208BF07220192FFE714
:1016C00001980290FFE702980390FFE703980490C7
:1016D000FFE704980590FFE705980690FFE7069856
:1016E0000790FFE70798C0B20F9901F00301890046
:1016F00088400C9908430C900C980F9921F0030135
:1017000043F60802C4F20102885043F60040C4F2D6
:10171000010000680C900D980C9921EA00000C90D3
:1017200010984068C003002805D5FFE70D980C9974
:1017300008430C90FFE70C9843F60041C4F2010106
:10174000086043F60440C4F2010000680C900D9854
:101750000C9921EA00000C90109840688003002842
:1017600005D5FFE70D980C9908430C90FFE70C98FE
:1017700043F60441C4F20101086043F60840C4F294
:10178000010000680C900D980C9921EA00000C9063
:1017900010984068C002002805D5FFE70D980C9905
:1017A00008430C90FFE70C9843F60841C4F201018E
:1017B000086043F60C40C4F2010000680C900D98DC
:1017C0000C9921EA00000C901098406880020028D3
:1017D00005D5FFE70D980C9908430C90FFE70C988E
:1017E00043F60C41C4F201010860FFE7FFE7FFE7A1
:1017F0000F9801300F9040E512B080BD80B586B0E3
:1018000013468C4686460590ADF812108DF81120CF
:10181000BDF8120000280393CDF808C0CDF804E00D
:1018200005D0FFE70020002801D1FFE708E041F2E2
:101830002270C0F6010040F2AF1105F0EDFCFFE7A9
:101840009DF81100002805D0FFE79DF81100012840
:1018500001D1FFE708E041F22270C0F601004FF429
:10186000D87105F0D9FCFFE79DF81100002805D0DC
:10187000FFE7BDF812000599886105E0BDF8120088
:10188000000405998861FFE706B080BD40F694200A
:10189000C2F200000068704780B58EB001460C901F
:1018A00000200B900A900C980028099104D1FFE7C2
:1018B00001208DF83700A0E10C98006845F2004146
:1018C000C4F20001884212D0FFE70C98006845F688
:1018D0000001C4F20001884209D0FFE70C980068BB
:1018E00045F60041C4F20001884201D1FFE708E05B
:1018F00041F20960C0F601004FF4B77105F08CFCAD
:10190000FFE70C98406800280AD0FFE70C98406871
:1019100041F68021C0F20601884201D8FFE708E0C5
:1019200041F20960C0F6010040F26F1105F074FC4D
:10193000FFE70C988068002806D0FFE70C988068C5
:10194000B0F5804F01D1FFE708E041F20960C0F631
:1019500001004FF4B87105F05FFCFFE70C98C06818
:10196000800A002801D1FFE708E041F20960C0F6D3
:10197000010040F2711105F04FFCFFE70C9800697F
:10198000B0F5804F06D0FFE70C980069B0F5404FE6
:1019900001D1FFE708E041F20960C0F601004FF411
:1019A000B97105F039FCFFE70C984069002805D0B3
:1019B000FFE70C984069012801D1FFE708E041F2F8
:1019C0000960C0F6010040F2731105F025FCFFE745
:1019D0000C9880696FF0FE01084201D1FFE708E032
:1019E00041F20960C0F601004FF4BA7105F014FC31
:1019F000FFE70C98C069002805D0FFE70C98C06984
:101A0000402801D1FFE708E041F20960C0F601007B
:101A100040F2751105F000FCFFE70C98006A002801
:101A200005D0FFE70C98006A802801D1FFE708E0A5
:101A300041F20960C0F601004FF4BB7105F0ECFB08
:101A4000FFE70C9890F83D00002808D1FFE70C98BC
:101A5000002180F83C100C9800F042FCFFE70C9845
:101A6000242180F83D100C980068016821F00101E4
:101A7000016001F00BF80A900A984DF68361C4F2F8
:101A80001B31A0FB0101890C0B910B99DDF830E0B3
:101A9000DEF800E0CEF804100C99496848F2A06E18
:101AA000C0F2010E7145089004D8FFE70B98013091
:101AB00007900FE00B984FF49671484344F6D351CA
:101AC000C1F26201A0FB0101012202EB911106901B
:101AD0000791FFE707980C99096808620C9840681D
:101AE00048F2A061C0F20101884219D8FFE70A98C4
:101AF0000C9949684900B0FBF1F06FF31F300328DF
:101B000003D8FFE70420059007E00A980C9949687C
:101B10004900B0FBF1F00590FFE70598049041E023
:101B20000C988068002809D1FFE70A980C99496849
:101B300001EB4101B0FBF1F003900AE00A980C9927
:101B4000496819225143B0FBF1F040F48040039002
:101B5000FFE703980005002803D1FFE7012002906A
:101B60001DE00C988068002809D1FFE70A980C99BD
:101B7000496801EB4101B0FBF1F001900AE00A98DD
:101B80000C99496819225143B0FBF1F040F48040B0
:101B90000190FFE7019840F400400290FFE70298AF
:101BA0000490FFE704980C990968C8610C980168D3
:101BB000C269006A104308600C980168C268006935
:101BC000104388600C980168426980691043C860BE
:101BD0000C980068016841F0010101600C98002137
:101BE00001640C98202280F83D200C9801630C9829
:101BF00080F83E108DF83710FFE79DF837000EB0E3
:101C000080BD000070B594B0DDF860C09E461446FB
:101C10000D4606461290ADF846101092ADF83E30D3
:101C200000200E90CDF824E0089407950696CDF894
:101C300014C0FFF72BFE0E90129890F83D0020285C
:101C400040F01482FFE712980E996A461160022153
:101C5000C0F210010122192303F050FB002804D028
:101C6000FFE702208DF84F0004E2FFE7129890F89A
:101C70003C00012804D1FFE702208DF84F00F9E174
:101C80001298012180F83C10FFE7FFE712980068E6
:101C9000006810F0010F07D1FFE712980068016893
:101CA00041F001010160FFE712980068016821F42A
:101CB000006101601298222180F83D1012981021D5
:101CC00080F83E1012980021016410981299486221
:101CD000BDF83E001299488512980021CFF6FF7199
:101CE000C1621298408D129908851298189A0E9B1D
:101CF000BDF8461003F026F9002819D0FFE7129826
:101D0000006C04280AD1FFE7FFE71298002180F851
:101D10003C10FFE701208DF84F00ABE1FFE7129880
:101D2000002180F83C10FFE703208DF84F00A1E16F
:101D30001298008D002815D1FFE7FFE700200D90D5
:101D40001298006840690D901298006880690D90A3
:101D50000D980490FFE712980068016841F4007143
:101D6000016056E01298008D01281BD1FFE7129800
:101D70000068016821F480610160FFE700200C9099
:101D80001298006840690C901298006880690C9065
:101D90000C980390FFE712980068016841F4007105
:101DA000016035E01298008D02281BD1FFE71298E0
:101DB0000068016821F48061016012980068016880
:101DC00041F400610160FFE700200B901298006869
:101DD00040690B901298006880690B900B980290F4
:101DE000FFE714E012980068016841F48061016027
:101DF000FFE700200A901298006840690A90129844
:101E0000006880690A900A980190FFE7FFE7FFE702
:101E1000FFE7FFE71298008D002800F01581FFE72B
:101E20001298008D032800F2CD80FFE71298008DF4
:101E3000012826D1FFE7129818990E9A03F056FB55
:101E400000280DD0FFE71298006C202804D1FFE78E
:101E500003208DF84F000DE101208DF84F0009E1BE
:101E600012980068006912994A6A531C4B621070FC
:101E70001298018D013901851298418D01394185F2
:101E80009FE01298008D022839D1FFE71298189B25
:101E90000E996A4611600421C0F20101002203F08C
:101EA0002DFA002804D0FFE703208DF84F00E1E071
:101EB00012980068016841F400710160129800688E
:101EC000006912994A6A531C4B6210701298018D76
:101ED000013901851298418D0139418512980068B8
:101EE000006912994A6A531C4B6210701298018D56
:101EF000013901851298418D0139418560E01298C0
:101F0000189B0E996A4611600421C0F2010100225B
:101F100003F0F4F9002804D0FFE703208DF84F0008
:101F2000A8E012980068016821F4806101601298AD
:101F30000068006912994A6A531C4B62107012982B
:101F4000018D013901851298418D01394185129821
:101F5000189B0E996A4611600421C0F2010100220B
:101F600003F0CCF9002804D0FFE703208DF84F00E0
:101F700080E012980068016841F4007101601298D5
:101F80000068006912994A6A531C4B6210701298DB
:101F9000018D013901851298418D013941851298D1
:101FA0000068006912994A6A531C4B6210701298BB
:101FB000018D013901851298418D01394185FFE775
:101FC000FFE740E0129818990E9A03F08FFA002864
:101FD0000DD0FFE71298006C202804D1FFE7032002
:101FE0008DF84F0046E001208DF84F0042E0129836
:101FF0000068006912994A6A531C4B62107012986B
:10200000018D013901851298418D01394185129860
:102010000068406900F004000121B1EB900F11D17C
:10202000FFE712980068006912994A6A531C4B62D4
:1020300010701298018D013901851298418D013976
:102040004185FFE7FFE7E5E61298202180F83D1083
:102050001298002180F83E10FFE71298002180F8C6
:102060003C10FFE700208DF84F0003E002208DF8C0
:102070004F00FFE79DF84F0014B070BD70B58EB0F3
:10208000DDF848C09E4614460D4606460C90ADF855
:102090002E100A92ADF8263000200890CDF818E0F6
:1020A000059404950396CDF808C0FFF7EFFB089060
:1020B0000C9890F83D00202840F00981FFE70C982B
:1020C00008996A4611600221C0F210010122192309
:1020D00003F014F9002804D0FFE702208DF8370040
:1020E000F9E0FFE70C9890F83C00012804D1FFE7E5
:1020F00002208DF83700EEE00C98012180F83C10AA
:10210000FFE7FFE70C980068006810F0010F07D1A7
:10211000FFE70C980068016841F001010160FFE7EA
:102120000C980068016821F4006101600C9821217D
:1021300080F83D100C98102180F83E100C9800217A
:1021400001640A980C994862BDF826000C994885EC
:102150000C980021CFF6FF71C1620C98408D0C994C
:1021600008850C98129A089BBDF82E1002F0D4FF37
:10217000002819D0FFE70C98006C04280AD1FFE76B
:10218000FFE70C98002180F83C10FFE701208DF854
:102190003700A0E0FFE70C98002180F83C10FFE733
:1021A00003208DF8370096E0FFE7002007900C9899
:1021B0000068406907900C9800688069079007984C
:1021C0000190FFE7FFE70C98008D002867D0FFE73C
:1021D0000C981299089A03F0EFF9002813D0FFE742
:1021E0000C98006C04280AD1FFE70C98006801687D
:1021F00041F40071016001208DF837006BE003208D
:102200008DF8370067E00C98416A4A1C42620878F2
:102210000C99096808610C98418D013941850C9829
:10222000018D013901850C980068406900F00400B7
:102230000121B1EB900F16D1FFE70C98008D00281B
:1022400011D0FFE70C98416A4A1C426208780C9949
:10225000096808610C98418D013941850C98018D00
:1022600001390185FFE70C981299089A02F0F0FFF6
:10227000002813D0FFE70C98006C04280AD1FFE770
:102280000C980068016841F40071016001208DF82C
:10229000370020E003208DF837001CE093E70C980E
:1022A0000068016841F4007101600C98202180F8F9
:1022B0003D100C98002180F83E10FFE70C9800219B
:1022C00080F83C10FFE700208DF8370003E0022083
:1022D0008DF83700FFE79DF837000EB070BD0000A5
:1022E00080B58EB001460D900D98006845F600420D
:1022F000C4F20002904206913FD1FFE74FF4007014
:1023000008901220099001210A9103220B920423C4
:102310000C9340F6000CC4F2020C0DF1200E059057
:10232000604604917146CDF80CE002930192FEF7ED
:10233000C3FE4FF4807008900598099004990A91A3
:10234000019A0B92029B0C930020C4F202000399A5
:10235000FEF7B2FEFFE70020079043F64000C4F20C
:102360000200016841F400010160006800F400000F
:10237000079007980090FFE7FFE70EB080BD0000D0
:1023800040F24400C2F20000007840F69421C2F20C
:1023900000010A68104408607047000080B582B0F0
:1023A00043F60040C4F20200016841F4007101608C
:1023B000016841F480610160016841F4807101604D
:1023C000032000F013F90020019000F007F80090BE
:1023D00000F040F8019802B080BD000080B584B0E4
:1023E0000146029040F21800C2F20000006840F27C
:1023F0004402C2F2000212784FF47A73B3FBF2F295
:10240000B0FBF2F0019101F0F7FE002804D0FFE7E5
:1024100001208DF80F0018E002980F280DD8FFE773
:1024200002994FF0FF30002200F0A2F8029840F22B
:102430004801C2F20001086003E001208DF80F009E
:1024400003E000208DF80F00FFE79DF80F0004B0B7
:1024500080BD000080B586B0FFE70020059043F600
:102460004400C4F20200016841F480410160006848
:1024700000F48040059005980390FFE7FFE70020F7
:10248000049043F64000C4F20200016841F080511C
:102490000160006800F08050049004980290FFE70B
:1024A000032000F0A3F86FF00B004FF0000E714610
:1024B0007246CDF804E000F05BF86FF00A00019975
:1024C000019A00F055F86FF009000199019A00F0A7
:1024D0004FF86FF004000199019A00F049F86FF08D
:1024E00003000199019A00F043F86FF0010001998F
:1024F000019A00F03DF84FF0FF300199019A00F089
:1025000037F806B080BD000080B582B001468DF876
:1025100007009DF907000028009101DBFFE707E0B5
:1025200041F25B70C0F60100DE2104F075FEFFE7AA
:102530009DF9070003F0C0FD02B080BD80B582B0F8
:1025400001468DF807009DF907000028009101DB86
:10255000FFE707E041F25B70C0F60100CE2104F016
:102560005BFEFFE79DF9070003F0BCFD02B080BDF4
:1025700080B58AB013468C4686468DF827000891B0
:1025800007920020069007980F280593CDF810C0F9
:10259000CDF80CE001D8FFE707E041F25B70C0F630
:1025A0000100BA2104F038FEFFE708980F2801D88F
:1025B000FFE707E041F25B70C0F60100BB2104F0C9
:1025C0002BFEFFE703F0E4FD069006980899079AB2
:1025D0009DF927E0CDF808E003F09AFD02990190FB
:1025E0000846019903F0DCFD0AB080BD80B582B0D9
:1025F0000146019001980728009110D0FFE701984B
:1026000006280CD0FFE70198052808D0FFE70198BD
:10261000042804D0FFE70198032801D1FFE707E071
:1026200041F25B70C0F60100A22104F0F5FDFFE766
:10263000019803F0DBFD02B080BD00007047000090
:1026400080B588B00A460346069005910698002892
:102650000392029304D1FFE701208DF81F0005E2E9
:1026600006980068002806D0FFE7069800680F2843
:1026700001D8FFE708E041F2EA60C0F601004FF43C
:10268000147104F0C9FDFFE7059800281CD0FFE78E
:102690000598012818D0FFE70598022814D0FFE715
:1026A0000598032810D0FFE7059804280CD0FFE711
:1026B0000598052808D0FFE70598062804D0FFE70D
:1026C0000598072801D1FFE708E041F2EA60C0F66B
:1026D000010040F2512104F09FFDFFE7059843F609
:1026E0000041C4F20201096801F00F01884212D9C9
:1026F000FFE7059843F60041C4F20201087008683C
:1027000000F00F000599884204D0FFE701208DF802
:102710001F00ABE1FFE7069800688007002861D53D
:10272000FFE7069800684007002809D5FFE743F651
:102730000800C4F20200016841F4E0510160FFE7C3
:10274000069800680007002809D5FFE743F608004F
:10275000C4F20200016841F460410160FFE706989D
:102760008068002828D0FFE706988068802823D05A
:10277000FFE70698806890281ED0FFE706988068DB
:10278000A02819D0FFE706988068B02814D0FFE78A
:1027900006988068C0280FD0FFE706988068D02888
:1027A0000AD0FFE706988068E02805D0FFE7069882
:1027B0008068F02801D1FFE708E041F2EA60C0F646
:1027C00001004FF41D7104F027FDFFE743F60800F8
:1027D000C4F20200016821F0F001069A92681143E8
:1027E0000160FFE706980068C007002800F08F80AE
:1027F000FFE70698406800280FD0FFE7069840687A
:1028000001280AD0FFE706984068022805D0FFE7B4
:1028100006984068032801D1FFE708E041F2EA602A
:10282000C0F6010040F27B2104F0F6FCFFE70698B9
:102830004068012811D1FFE743F60000C4F202000E
:10284000006800F400300021B1EB504F04D1FFE7E5
:1028500001208DF81F0009E12CE00698406802284D
:1028600005D0FFE706984068032811D1FFE743F63B
:102870000000C4F20200006800F000700021B1EB1B
:10288000506F04D1FFE701208DF81F00EEE010E04B
:1028900043F60000C4F20200006800F002000021CC
:1028A000B1EB500F04D1FFE701208DF81F00DDE0F0
:1028B000FFE7FFE743F60800C4F20200016821F0D9
:1028C0000301069A526811430160FEF7DFFF04908E
:1028D000FFE743F60800C4F20200006800F00C00B5
:1028E00006994968B0EB810F10D0FFE7FEF7CEFFE5
:1028F000DDF810E0A0EB0E0041F2893E704504D3F4
:10290000FFE703208DF81F00B0E0E2E7FFE705983E
:1029100043F60041C4F20201096801F00F01884248
:1029200012D2FFE7059843F60041C4F20201087095
:10293000086800F00F000599884204D0FFE70120E5
:102940008DF81F0092E0FFE7069800684007002816
:1029500033D5FFE70698C068002818D0FFE706982F
:10296000C068B0F5805F12D0FFE70698C068B0F588
:10297000A05F0CD0FFE70698C068B0F5C05F06D036
:10298000FFE70698C068B0F5E05F01D1FFE708E017
:1029900041F2EA60C0F6010040F2B92104F03CFCCB
:1029A000FFE743F60800C4F20200016821F4E05199
:1029B000069AD26811430160FFE706980068000795
:1029C000002834D5FFE706980069002818D0FFE7F3
:1029D00006980069B0F5805F12D0FFE7069800699D
:1029E000B0F5A05F0CD0FFE706980069B0F5C05FB6
:1029F00006D0FFE706980069B0F5E05F01D1FFE778
:102A000008E041F2EA60C0F601004FF4307104F0D2
:102A100003FCFFE743F60800C4F20200016821F45A
:102A20006041069A126941EAC2010160FFE700F0C5
:102A300055F843F6080EC4F2020EDEF800E0CEF3BD
:102A4000031E40F6D061C0F6010111F80E10C84017
:102A500040F21801C2F20001086000200190FFF767
:102A6000BDFC01998DF81F100090FFE79DF81F0035
:102A700008B080BD4C20C4F247200121016070479E
:102A800040F21800C2F200000068704780B5FFF7FE
:102A9000F7FF43F6080EC4F2020EDEF800E0CEF3B4
:102AA000822E40F6E061C0F6010111F80E10C84018
:102AB00080BD000080B5FFF7E3FF43F6080EC4F2C7
:102AC000020EDEF800E0CEF3423E40F6E061C0F6D2
:102AD000010111F80E10C84080BD000080B586B01D
:102AE0000020059004900390029043F60800C4F281
:102AF0000200006800F00C0001460028019108D097
:102B0000FFE7019804280AD0FFE7019808280CD0B5
:102B10004FE042F20040C0F2F40002904FE041F674
:102B20000030C0F2B700029049E043F60400C4F25E
:102B30000200016801F03F010591006810F4800F68
:102B400013D0FFE743F60400C4F202000068C0F3AC
:102B5000881041F60031C0F2B701A0FB0101059ACF
:102B60000023FDF72DFB049012E043F60400C4F2AD
:102B700002000068C0F3881042F20041C0F2F40184
:102B8000A0FB0101059A0023FDF71AFB0490FFE763
:102B900043F60400C4F20200006800F44030022151
:102BA00001EBD030039004980399B0FBF1F0029050
:102BB00005E042F20040C0F2F4000290FFE7029804
:102BC00006B080BD80B543F60C00C4F20200006878
:102BD00010F0800F0AD0FFE7FFF730FD43F60E0E2E
:102BE000C4F2020E80208EF80000FFE780BD0000D6
:102BF00080B588B00146069006980028029105D15C
:102C0000FFE701208DF81F0000F025BC0698006842
:102C10000F2801D8FFE707E041F2EA60C0F60100A3
:102C2000F82104F0F9FAFFE706980068C0070028C9
:102C300000F0C580FFE70698406800280CD0FFE749
:102C400006984068B0F5803F06D0FFE706984068D8
:102C5000B0F5A02F01D1FFE707E041F2EA60C0F62E
:102C60000100FD2104F0D8FAFFE743F60800C4F2A2
:102C70000200006800F00C00042813D0FFE743F6C0
:102C80000800C4F20200006800F00C0008281FD100
:102C9000FFE743F60400C4F20200006810F4800F5E
:102CA00016D0FFE743F60000C4F20200006800F40B
:102CB00000300021B1EB504F09D0FFE70698406883
:102CC000002804D1FFE701208DF81F00C3E375E061
:102CD000FFE706984068B0F5803F09D1FFE743F66B
:102CE0000000C4F20200016841F48031016020E07C
:102CF00006984068B0F5A02F0DD1FFE743F600001D
:102D0000C4F20200016841F480210160016841F4CD
:102D1000803101600CE043F60000C4F2020001685B
:102D200021F480310160016821F480210160FFE716
:102D3000FFE7FFE70698406800281FD0FFE7FEF78F
:102D4000A5FD0590FFE743F60000C4F2020000680D
:102D500000F400300021B1EB504F0ED1FFE7FEF739
:102D600095FDDDF814E0A0EB0E00652804D3FFE725
:102D700003208DF81F006EE3E5E71EE0FEF786FDF9
:102D80000590FFE743F60000C4F20200006800F47B
:102D900000300021B1EB504F0ED0FFE7FEF776FD7B
:102DA000DDF814E0A0EB0E00652804D3FFE7032054
:102DB0008DF81F004FE3E5E7FFE7FFE7FFE7069821
:102DC00000688007002840F1BE80FFE70698C068D1
:102DD000002805D0FFE70698C068012801D1FFE769
:102DE00008E041F2EA60C0F6010040F22F1104F061
:102DF00013FAFFE7069800691F2801D8FFE708E0EB
:102E000041F2EA60C0F601004FF4987104F004FA50
:102E1000FFE743F60800C4F20200006810F00C0F50
:102E200013D0FFE743F60800C4F20200006800F088
:102E30000C0008282CD1FFE743F60400C4F202007E
:102E4000006810F4800F23D1FFE743F60000C4F2BE
:102E50000200006800F002000021B1EB500F09D021
:102E6000FFE70698C068012804D0FFE701208DF82D
:102E70001F00F0E243F60000C4F20200016821F0F6
:102E8000F801069A126941EAC2010160FFE759E0C0
:102E90000698C068002830D0FFE70020C4F2472021
:102EA00001210160FEF7F2FC0590FFE743F6000008
:102EB000C4F20200006800F002000021B1EB500FE4
:102EC0000ED1FFE7FEF7E2FCDDF814E0A0EB0E0008
:102ED000032804D3FFE703208DF81F00BBE2E5E7DA
:102EE00043F60000C4F20200016821F0F801069ADE
:102EF000126941EAC201016023E00020C4F24720C8
:102F000000210160FEF7C2FC0590FFE743F60000D8
:102F1000C4F20200006800F002000021B1EB500F83
:102F20000ED0FFE7FEF7B2FCDDF814E0A0EB0E00D8
:102F3000032804D3FFE703208DF81F008BE2E5E7A9
:102F4000FFE7FFE7FFE7069800680007002864D561
:102F5000FFE706984069002805D0FFE7069840691A
:102F6000012801D1FFE708E041F2EA60C0F6010064
:102F70004FF4B87104F050F9FFE706984069002853
:102F800025D0FFE740F68060C4F2472001210160B0
:102F9000FEF77CFC0590FFE743F67400C4F20200E4
:102FA000006800F002000021B1EB500F0ED1FFE7E6
:102FB000FEF76CFCDDF814E0A0EB0E00032804D350
:102FC000FFE703208DF81F0045E2E5E724E040F627
:102FD0008060C4F2472000210160FEF757FC059095
:102FE000FFE743F67400C4F20200006800F002003C
:102FF0000021B1EB500F0ED0FFE7FEF747FCDDF8E4
:1030000014E0A0EB0E00032804D3FFE703208DF8A3
:103010001F0020E2E5E7FFE7FFE7069800684007AA
:10302000002840F1EF80FFE700208DF8130006989C
:10303000806800280AD0FFE706988068012805D03C
:10304000FFE706988068052801D1FFE708E041F214
:10305000EA60C0F601004FF4CE7104F0DDF8FFE73E
:1030600043F64000C4F20200006810F0805F16D101
:10307000FFE7FFE70020039043F64000C4F20200A0
:10308000016841F080510160006800F080500390B9
:1030900003980190FFE701208DF81300FFE747F246
:1030A0000000C4F20000006810F4807F24D1FFE724
:1030B00047F20000C4F20000016841F48071016031
:1030C000FEF7E4FB0590FFE747F20000C4F20000C2
:1030D000006810F4807F0ED1FFE7FEF7D7FBDDF824
:1030E00014E0A0EB0E00032804D3FFE703208DF8C3
:1030F0001F00B0E1E8E7FFE7FFE7069880680128D6
:1031000009D1FFE743F67000C4F20200016841F004
:10311000010101601FE00698806805280DD1FFE7D6
:1031200043F67000C4F20200016841F0040101603E
:10313000016841F0010101600CE043F67000C4F247
:103140000200016821F001010160016821F0040121
:103150000160FFE7FFE7FFE706988068002821D0BD
:10316000FFE7FEF793FB0590FFE743F67000C4F21C
:103170000200006800F002000021B1EB500F10D1F6
:10318000FFE7FEF783FBDDF814E0A0EB0E0041F251
:10319000893E704504D3FFE703208DF81F005AE1F4
:1031A000E3E720E0FEF772FB0590FFE743F67000CF
:1031B000C4F20200006800F002000021B1EB500FE1
:1031C00010D0FFE7FEF762FBDDF814E0A0EB0E0085
:1031D00041F2893E704504D3FFE703208DF81F00BC
:1031E00039E1E3E7FFE79DF81300012809D1FFE784
:1031F00043F64000C4F20200016821F080510160F2
:10320000FFE7FFE70698806900280AD0FFE70698E5
:103210008069012805D0FFE706988069022801D15E
:10322000FFE708E041F2EA60C0F6010040F2DF117A
:1032300003F0F2FFFFE706988069002800F007819D
:10324000FFE743F60800C4F20200006800F00C003B
:10325000082800F0F780FFE706988069022840F010
:10326000CC80FFE70698C069002806D0FFE70698E3
:10327000C069B0F5800F01D1FFE708E041F2EA60D4
:10328000C0F601004FF4F47103F0C6FFFFE70698A3
:10329000006A3F2801D8FFE708E041F2EA60C0F683
:1032A000010040F2E91103F0B7FFFFE70698406A1A
:1032B000322807D3FFE70698406AB0F5D87F01D8D7
:1032C000FFE708E041F2EA60C0F601004FF4F57153
:1032D00003F0A2FFFFE70698806A02280FD0FFE7FD
:1032E0000698806A04280AD0FFE70698806A0628B4
:1032F00005D0FFE70698806A082801D1FFE708E0BB
:1033000041F2EA60C0F6010040F2EB1103F084FFE5
:10331000FFE70698C06A022806D3FFE70698C06A4E
:103320000F2801D8FFE708E041F2EA60C0F601008B
:103330004FF4F67103F070FFFFE76020C4F24720FE
:1033400000210160FEF7A2FA0590FFE743F60000B6
:10335000C4F20200006800F000700021B1EB506F71
:103360000ED0FFE7FEF792FADDF814E0A0EB0E00B6
:10337000032804D3FFE703208DF81F006BE0E5E787
:103380000698C169026A436AD0F828C0114341EA2D
:1033900083114FEACC324FF6FF739A43A2F5803285
:1033A0001143C06A41EA006043F60401C4F202011D
:1033B00008606020C4F2472001210160FEF766FA30
:1033C0000590FFE743F60000C4F20200006800F039
:1033D00000700021B1EB506F0ED1FFE7FEF756FAF7
:1033E000DDF814E0A0EB0E00032804D3FFE7032070
:1033F0008DF81F002FE0E5E723E06020C4F24720AE
:1034000000210160FEF742FA0590FFE743F6000055
:10341000C4F20200006800F000700021B1EB506FB0
:103420000ED0FFE7FEF732FADDF814E0A0EB0E0055
:10343000032804D3FFE703208DF81F000BE0E5E726
:10344000FFE703E001208DF81F0004E0FFE7002004
:103450008DF81F00FFE79DF81F0008B080BD000039
:1034600080B584B00146029002980028019104D1F1
:10347000FFE701208DF80F0057E10298006843F242
:103480000001C4F20101884212D0FFE702980068EF
:1034900043F60001C4F20001884209D0FFE7029818
:1034A000006843F60041C4F20001884201D1FFE701
:1034B00008E041F24160C0F601004FF4877103F06B
:1034C000ABFEFFE702984068002806D0FFE70298AD
:1034D0004068B0F5827F01D1FFE708E041F241602A
:1034E000C0F6010040F20F1103F096FEFFE70298CC
:1034F000806800280CD0FFE702988068B0F5806FE4
:1035000006D0FFE702988068B0F5004F01D1FFE7D1
:1035100008E041F24160C0F601004FF4887103F009
:103520007BFEFFE70298C068B0F5006F05D0FFE7AB
:103530000298C068002801D1FFE708E041F241602D
:10354000C0F6010040F2111103F066FEFFE7029899
:103550008069B0F5007F0BD0FFE7029880690028F2
:1035600006D0FFE702988069B0F5802F01D1FFE710
:1035700008E041F24160C0F601004FF4897103F0A8
:103580004BFEFFE70298C069002823D0FFE70298AE
:10359000C06908281ED0FFE70298C069102819D01A
:1035A000FFE70298C069182814D0FFE70298C069A5
:1035B00020280FD0FFE70298C06928280AD0FFE72B
:1035C0000298C069302805D0FFE70298C069382802
:1035D00001D1FFE708E041F24160C0F6010040F28E
:1035E000131103F019FEFFE70298006A002805D0C6
:1035F000FFE70298006A802801D1FFE708E041F266
:103600004160C0F601004FF48A7103F005FEFFE748
:103610000298406A002805D0FFE70298406A102807
:1036200001D1FFE708E041F24160C0F6010040F23D
:10363000151103F0F1FDFFE70298406A002829D137
:10364000FFE702980069002805D0FFE702980069AB
:10365000022801D1FFE708E041F24160C0F6010015
:103660004FF48C7103F0D8FDFFE702984069002801
:1036700005D0FFE702984069012801D1FFE708E083
:1036800041F24160C0F6010040F2191103F0C4FD9F
:10369000FFE7FFE7029800218162029890F851004D
:1036A000002808D1FFE70298002180F85010029806
:1036B00000F040F8FFE70298022180F851100298CC
:1036C0000068016821F040010160029801684268C9
:1036D0008368D0F80CC01A4342EA0C0203691A430B
:1036E00043691A43836903F400731A43C3691A4395
:1036F000036A1A43806A104308600298418B01F004
:1037000004010268406A0843506002980068C16979
:1037100021F40061C16102980021416502980122F3
:1037200080F851208DF80F10FFE79DF80F0004B0CE
:1037300080BD000080B58EB001460D900D980068E8
:1037400043F20002C4F201029042049123D1FFE748
:10375000FFE70020079043F64400C4F2020001682E
:1037600041F480510160006800F480500790079890
:103770000390FFE7E02008900220099000200A90C3
:1037800003200B9005200C900020C4F2020008A931
:10379000FDF792FC5DE00D98006843F60001C4F26D
:1037A0000001884225D1FFE7FFE70020069043F69D
:1037B0004000C4F20200016841F4804101600068E9
:1037C00000F48040069006980290FFE74FF46040B6
:1037D00008900220099000200A9003200B900520F9
:1037E0000C9040F20040C4F2020008A9FDF764FC0E
:1037F0002EE00D98006843F60041C4F200018842B3
:1038000025D1FFE7FFE70020059043F64000C4F212
:103810000200016841F400410160006800F40040CA
:10382000059005980190FFE74FF4E05008900220C2
:10383000099000200A9003200B9006200C9040F67F
:103840000000C4F2020008A9FDF736FCFFE7FFE71D
:10385000FFE70EB080BD0000B0B58EB09C46964626
:103860000C4605460C900B91ADF82A2009930020D8
:1038700008908DF81F000C984068B0F5827FCDF855
:1038800018C0CDF814E00494039518D1FFE70C9804
:103890008068002813D1FFE70C98042180F85110AC
:1038A0000C980B99099ABDF82A30EC46CCF8002008
:1038B0000291029A00F088FA8DF8370003E1FFE7E1
:1038C0000C9890F85000012804D1FFE702208DF8F1
:1038D0003700F8E00C98012180F85010FFE7FFE76F
:1038E000FDF7D4FF08900C9890F85100012804D0FF
:1038F000FFE702208DF81F00D6E00B98002805D0C6
:10390000FFE7BDF82A00002804D1FFE701208DF869
:103910001F00C9E00C98042180F851100C98002178
:1039200041650B980C9A9063BDF82A000C9A908719
:10393000BDF82A000C9AD0870C9801630C988186F8
:103940000C98C1860C9801640C9841640C988068AE
:10395000B0F5004F07D1FFE70C980068016821F42B
:1039600080410160FFE70C980068006800F04000AB
:10397000402807D0FFE70C980068016841F040013B
:103980000160FFE70C98C068002835D1FFE7FFE72A
:103990000C98C08F00282ED0FFE70C980068806834
:1039A00010F0010F0DD0FFE70C980068007B0B9919
:1039B00008700B9801300B900C98C18F0139C187AA
:1039C00018E00998002810D0FFE709980130002876
:1039D0000FD0FFE7FDF75AFFDDF820E0A0EB0E0067
:1039E000DDF824E0704504D3FFE703208DF81F00C5
:1039F0005AE0FFE7CCE734E0FFE70C98C08F0028DF
:103A00002ED0FFE70C980068806810F0010F0DD0F1
:103A1000FFE70C980068C0680B9908800B9802308B
:103A20000B900C98C18F0139C18718E009980028C4
:103A300010D0FFE70998013000280FD0FFE7FDF70D
:103A400025FFDDF820E0A0EB0E00DDF824E0704556
:103A500004D3FFE703208DF81F0025E0FFE7CCE744
:103A6000FFE70C984068B0F5827F13D1FFE70C9810
:103A70008068B0F5004F06D0FFE70C988068B0F57D
:103A8000806F07D1FFE70C980068016821F04001C2
:103A90000160FFE70C98406D002804D0FFE701208B
:103AA0008DF81F00FFE7FFE70C98012180F8511007
:103AB000FFE70C98002180F85010FFE79DF81F00E9
:103AC0008DF83700FFE79DF837000EB0B0BD00005D
:103AD000B0B58EB09C4696460C4605460C900B91B0
:103AE000ADF82A200993002008908DF81F000C984B
:103AF00080680028CDF814C0CDF810E0039402953A
:103B000006D0FFE70C988068B0F5004F01D1FFE7C1
:103B100008E041F24160C0F6010040F2C51103F037
:103B20007BFBFFE7FFE70C9890F85000012804D1D9
:103B3000FFE702208DF8370041E10C98012180F861
:103B40005010FFE7FFE7FDF7A1FE08900C9890F8F2
:103B50005100012804D0FFE702208DF81F001FE16B
:103B60000B98002805D0FFE7BDF82A00002804D1F3
:103B7000FFE701208DF81F0012E10C98032180F867
:103B800051100C98002141650B980C9A1063BDF8F8
:103B90002A000C9A9086BDF82A000C9AD0860C98C0
:103BA00081630C9881870C98C1870C9841640C98AC
:103BB00001640C988068B0F5004F07D1FFE70C98BE
:103BC0000068016841F480410160FFE70C980068DB
:103BD000006800F04000402807D0FFE70C9800681C
:103BE000016841F040010160FFE70C98C068B0F542
:103BF000006F4CD1FFE70C984068002805D0FFE724
:103C00000C98C08E01280DD1FFE70B9800880C9905
:103C10000968C8600B9802300B900C98C18E01396E
:103C2000C186FFE7FFE70C98C08E00282ED0FFE783
:103C30000C980068806810F0020F0DD0FFE70B9819
:103C400000880C990968C8600B9802300B900C989A
:103C5000C18E0139C18618E00998002810D0FFE70D
:103C60000998013000280FD0FFE7FDF70FFEDDF8BF
:103C700020E0A0EB0E00DDF824E0704504D3FFE760
:103C800003208DF81F008BE0FFE7CCE74BE00C989A
:103C90004068002805D0FFE70C98C08E01280DD1A0
:103CA000FFE70B9800780C99096808730B980130AE
:103CB0000B900C98C18E0139C186FFE7FFE70C9885
:103CC000C08E00282ED0FFE70C980068806810F0A6
:103CD000020F0DD0FFE70B9800780C990968087364
:103CE0000B9801300B900C98C18E0139C18618E0F9
:103CF0000998002810D0FFE70998013000280FD05C
:103D0000FFE7FDF7C3FDDDF820E0A0EB0E00DDF8D6
:103D100024E0704504D3FFE703208DF81F003FE047
:103D2000FFE7CCE7FFE70C98099B08996A4611600A
:103D30000221012202F0ACFA002804D0FFE70320A0
:103D40008DF81F002CE00C980999089A02F070FA7F
:103D5000002807D0FFE701208DF81F000C982021D4
:103D600041651DE00C98806800280FD1FFE7FFE750
:103D7000002006900C980068C06806900C980068B7
:103D80008068069006980190FFE7FFE70C98406D69
:103D9000002804D0FFE701208DF81F00FFE7FFE7B0
:103DA0000C98012180F85110FFE70C98002180F851
:103DB0005010FFE79DF81F008DF83700FFE79DF8D2
:103DC00037000EB0B0BD000070B594B0DDF860C033
:103DD0009E4614460D460646129011911092ADF87B
:103DE0003E3000200E900D900C9001210B918DF82B
:103DF0002B00129880680028CDF820E007940695E3
:103E00000596CDF810C001D1FFE708E041F241600E
:103E1000C0F6010040F23A3103F0FEF9FFE7FFE798
:103E2000129890F85000012804D1FFE702208DF885
:103E30004F00AAE11298012180F85010FFE7FFE738
:103E4000FDF724FD0C90129890F851000E901298F6
:103E500040680D900E98012812D0FFE70D98B0F53C
:103E6000827F09D1FFE712988068002804D1FFE71C
:103E70000E98042804D0FFE702208DF82B0075E18E
:103E80001198002809D0FFE71098002805D0FFE717
:103E9000BDF83E00002804D1FFE701208DF82B007B
:103EA00064E1129890F85100012805D1FFE71298BB
:103EB000052180F85110FFE7129800214165109804
:103EC000129A9063BDF83E00129AD087BDF83E006A
:103ED000129A90871198129A1063BDF83E00129AB8
:103EE000D086BDF83E00129A90861298016412980E
:103EF000416412980068006800F04000402807D034
:103F0000FFE712980068016841F040010160FFE797
:103F10001298C068B0F5006F7BD1FFE71298406837
:103F2000002805D0FFE71298C08E01280DD1FFE7C9
:103F30001198008812990968C86011980230119090
:103F40001298C18E0139C186FFE7FFE71298C08E33
:103F500001210028039107D1FFE71298C08F0028A4
:103F600018BF01200390FFE70398C00700284FD037
:103F7000FFE70B9800281BD0FFE71298C08E00289F
:103F800016D0FFE712980068806810F0020F0FD07B
:103F9000FFE71198008812990968C86011980230EB
:103FA00011901298C18E0139C18600200B90FFE755
:103FB0001298C08F002816D0FFE71298006880681A
:103FC00010F0010F0FD0FFE712980068C068109939
:103FD00008801098023010901298C18F0139C18763
:103FE00001200B90FFE71898013000280FD0FFE761
:103FF000FDF74CFCDDF830E0A0EB0E00DDF860E0F2
:10400000704504D3FFE703208DF82B00AEE09DE759
:1040100078E012984068002805D0FFE71298C08E1B
:1040200001280DD1FFE711980078129909680873EB
:104030001198013011901298C18E0139C186FFE7A5
:10404000FFE71298C08E01210028029107D1FFE7F7
:104050001298C08F002818BF01200290FFE7029835
:10406000C00700284DD0FFE70B9800281AD0FFE7C3
:104070001298C08E002815D0FFE71298006880685B
:1040800010F0020F0ED0FFE71198411C119100783B
:104090001299096808731298C18E0139C1860020EF
:1040A0000B90FFE71298C08F002815D0FFE71298F9
:1040B0000068806810F0010F0ED0FFE712980068CA
:1040C000C06810994A1C109208701298C18F01396B
:1040D000C18701200B90FFE71898013000280FD00E
:1040E000FFE7FDF7D3FBDDF830E0A0EB0E00DDF8D5
:1040F00060E0704504D3FFE703208DF82B0035E026
:104100009FE7FFE71298189B0C996A4611600221FD
:10411000012202F0BDF8002804D0FFE703208DF84B
:104120002B0023E0129818990C9A02F081F80028CD
:1041300007D0FFE701208DF82B0012982021416560
:1041400014E01298806800280FD1FFE7FFE70020F5
:10415000099012980068C0680990129800688068F9
:10416000099009980190FFE7FFE7FFE71298012106
:1041700080F85110FFE71298002180F85010FFE7F7
:104180009DF82B008DF84F00FFE79DF84F0014B00D
:1041900070BD000080B582B00146019001980428EE
:1041A000009104D0FFE70198002801D1FFE708E063
:1041B00041F25B70C0F6010040F2D91103F02CF817
:1041C000FFE70198042809D1FFE74EF21000CEF274
:1041D0000000016841F00401016008E04EF21000A7
:1041E000CEF20000016821F004010160FFE702B097
:1041F00080BD00007047000080B582B0014601908C
:104200000198009102F0C8F802B080BD80B5FFF7B8
:10421000F1FF80BD82B001460190009102B070476D
:1042200082B001460190009102B0704780B584B021
:104230000146029002980028019104D1FFE7012075
:104240008DF80F00E0E0029800680021C4F201013F
:10425000884272D0FFE702980068B0F1804F6CD0BE
:10426000FFE70298006840F20041C4F20001884272
:1042700063D0FFE70298006840F60001C4F2000135
:1042800088425AD0FFE70298006840F60041C4F225
:104290000001884251D0FFE70298006841F2000116
:1042A000C4F20001884248D0FFE70298006841F25A
:1042B0000041C4F2000188423FD0FFE70298006845
:1042C00040F20041C4F20101884236D0FFE7029873
:1042D000006844F20001C4F2010188422DD0FFE7DA
:1042E0000298006844F20041C4F20101884224D0DF
:1042F000FFE70298006844F60001C4F20101884219
:104300001BD0FFE70298006841F60001C4F20001EB
:10431000884212D0FFE70298006841F60041C4F2DB
:104320000001884209D0FFE70298006842F20001CC
:10433000C4F20001884201D1FFE707E041F2796051
:10434000C0F60100D72102F067FFFFE702988068FE
:10435000002814D0FFE70298806810280FD0FFE7EC
:104360000298806820280AD0FFE7029880684028D9
:1043700005D0FFE702988068602801D1FFE707E0D9
:1043800041F27960C0F60100D82102F045FFFFE755
:104390000298006900280CD0FFE702980069B0F588
:1043A000807F06D0FFE702980069B0F5007F01D159
:1043B000FFE707E041F27960C0F60100D92102F081
:1043C0002BFFFFE7029890F83900002808D1FFE79B
:1043D0000298002180F83810029800F035F8FFE7C5
:1043E0000298022180F83910029850F8041B0090BE
:1043F0000846009902F0C6F80298012180F83910A9
:1044000000208DF80F00FFE79DF80F0004B080BD7D
:1044100080B582B0014601900198006842F2000226
:10442000C4F20002904200910CD1FFE743F6400035
:10443000C4F20200016821F4807101602D20FEF7B2
:1044400063F8FFE702B080BD80B586B001460590F5
:104450000598006842F20002C4F200029042039103
:104460001CD1FFE7FFE70020049043F64000C4F2B0
:104470000200016841F480710160006800F48070FE
:10448000049004980290FFE72D200521002201905E
:10449000FEF76EF80198FEF751F8FFE706B080BD11
:1044A00080B582B001460190019800680022C4F2F4
:1044B00001029042009172D0FFE701980068B0F1CC
:1044C000804F6CD0FFE70198006840F20041C4F2D1
:1044D0000001884263D0FFE70198006840F60001C0
:1044E000C4F2000188425AD0FFE70198006840F604
:1044F0000041C4F20001884251D0FFE701980068F2
:1045000041F20001C4F20001884248D0FFE701985F
:10451000006841F20041C4F2000188423FD0FFE749
:104520000198006840F20041C4F20101884236D08F
:10453000FFE70198006844F20001C4F201018842DB
:104540002DD0FFE70198006844F20041C4F2010158
:10455000884224D0FFE70198006844F60001C4F2C5
:10456000010188421BD0FFE70198006841F6000175
:10457000C4F20001884212D0FFE70198006841F6BA
:104580000041C4F20001884209D0FFE701980068A9
:1045900042F20001C4F20001884201D1FFE708E0C5
:1045A00041F27960C0F601004FF4B17102F034FEBF
:1045B000FFE701980068C16841F00101C1600198FE
:1045C0000068016841F001010160002002B080BD77
:1045D00082B001460190009102B0704780B582B070
:1045E0000146019001980068006900F00200002275
:1045F000B2EB500F009129D0FFE701980068C06826
:1046000000F002000021B1EB500F1ED0FFE701982F
:1046100000686FF0020101610198012101760198A3
:104620000068806910F0030F04D0FFE70198FFF7DE
:10463000CFFF06E0019800F017F9019800F01AF991
:10464000FFE7019800210176FFE7FFE70198006886
:10465000006900F004000021B1EB900F29D0FFE7C2
:1046600001980068C06800F004000021B1EB900FD1
:104670001ED0FFE7019800686FF004010161019806
:104680000221017601980068806910F4407F04D00F
:10469000FFE70198FFF79CFF06E0019800F0E4F8BF
:1046A000019800F0E7F8FFE7019800210176FFE7A5
:1046B000FFE701980068006900F008000021B1EBF5
:1046C000D00F29D0FFE701980068C06800F008000B
:1046D0000021B1EBD00F1ED0FFE7019800686FF00A
:1046E0000801016101980421017601980068C06900
:1046F00010F0030F04D0FFE70198FFF769FF06E011
:10470000019800F0B1F8019800F0B4F8FFE70198C3
:1047100000210176FFE7FFE701980068006900F0DB
:1047200010000021B1EB101F29D0FFE701980068AD
:10473000C06800F010000021B1EB101F1ED0FFE791
:10474000019800686FF0100101610198082101765D
:1047500001980068C06910F4407F04D0FFE7019819
:10476000FFF736FF06E0019800F07EF8019800F0B0
:1047700081F8FFE7019800210176FFE7FFE7019844
:104780000068006910F0010F11D0FFE70198006880
:10479000C06810F0010F09D0FFE7019800686FF0C2
:1047A00001010161019800F06BF8FFE7FFE7019854
:1047B0000068006900F080000021B1EBD01F14D028
:1047C000FFE701980068C06800F080000021B1EBAD
:1047D000D01F09D0FFE7019800686FF080010161E8
:1047E0000198FFF717FDFFE7FFE7019800680069F0
:1047F00000F040000021B1EB901F14D0FFE70198BA
:104800000068C06800F040000021B1EB901F09D0A3
:10481000FFE7019800686FF040010161019800F026
:1048200043F8FFE7FFE701980068006900F0200007
:104830000021B1EB501F14D0FFE701980068C06859
:1048400000F020000021B1EB501F09D0FFE70198D4
:1048500000686FF0200101610198FFF7E1FCFFE7BC
:10486000FFE702B080BD000082B0014601900091D8
:1048700002B0704782B001460190009102B07047CB
:1048800080B582B00146019040F63020C2F20000AF
:104890000122027040F60400C2F200000091FFF70E
:1048A000B7FD02B080BD000082B0014601900091CA
:1048B00002B0704782B001460190009102B070478B
:1048C00080B58CB001460B900B98006800680A9088
:1048D0000B980068C06809900B98006840690890C0
:1048E0000020079006900A9800F00F0007900798A4
:1048F0000028059112D1FFE79DF8280080060028C6
:104900000BD5FFE79DF824008006002805D5FFE7BA
:104910000B9801F07DFF0490E0E0FFE70798002886
:1049200000F0BA80FFE79DF82000C007002807D1FB
:10493000FFE7BDF8240010F4907F00F0AD80FFE7A2
:104940009DF82800C00700280CD0FFE79DF825003F
:10495000C007002806D0FFE70B98C16B41F00101AA
:10496000C163FFE79DF82800400700280CD5FFE74A
:104970009DF82000C007002806D0FFE70B98C16B08
:1049800041F00201C163FFE79DF82800800700287D
:104990000CD5FFE79DF82000C007002806D0FFE7F0
:1049A0000B98C16B41F00401C163FFE79DF828003B
:1049B000000700280CD5FFE79DF82000C00700285D
:1049C00006D0FFE70B98C16B41F00801C163FFE718
:1049D0000B98C06B00285ED0FFE79DF8280080068A
:1049E00000280BD5FFE79DF824008006002805D598
:1049F000FFE70B9801F00CFF0390FFE70B980068AE
:104A00004069C0F3801006900B98C06B10F0080F3F
:104A100004D1FFE70698002833D0FFE70B9801F098
:104A2000CBFE0B980068406910F0400F24D0FFE7E0
:104A30000B980068416921F0400141610B98406B7F
:104A4000002814D0FFE70B98406B46F29571C0F632
:104A5000000101650B98406BFCF7A4FA002805D013
:104A6000FFE70B98406B016D8847FFE703E00B9869
:104A7000FFF720FFFFE703E00B98FFF71BFFFFE7BF
:104A800008E00B98FFF716FF0B984FF0000EC0F8E8
:104A90003CE0FFE7FFE721E09DF828000006002842
:104AA0000BD5FFE79DF824000006002805D5FFE799
:104AB0000B9802F0CDF9029010E09DF82800400616
:104AC00000280BD5FFE79DF824004006002805D5F7
:104AD000FFE70B9801F086FE0190FFE70CB080BD68
:104AE00080B584B00146029002980028019104D15B
:104AF000FFE701208DF80F00FAE002988069002896
:104B000050D0FFE70298006841F20001C4F20101B1
:104B100088421BD0FFE70298006844F20041C4F2CB
:104B20000001884212D0FFE70298006844F60001B5
:104B3000C4F20001884209D0FFE70298006841F200
:104B40000041C4F20101884201D1FFE708E041F2CF
:104B5000B160C0F601004FF4807102F05DFBFFE729
:104B600002988069002812D0FFE702988069B0F5AA
:104B7000807F0CD0FFE702988069B0F5007F06D0F7
:104B8000FFE702988069B0F5407F01D1FFE708E0B8
:104B900041F2B160C0F6010040F2011102F03CFBAD
:104BA000FFE740E00298006841F20001C4F2010111
:104BB00088422DD0FFE70298006844F20041C4F219
:104BC0000001884224D0FFE70298006844F6000103
:104BD000C4F2000188421BD0FFE70298006844F647
:104BE0000041C4F20001884212D0FFE70298006839
:104BF00045F20001C4F20001884209D0FFE70298A3
:104C0000006841F20041C4F20101884201D1FFE78E
:104C100008E041F2B160C0F6010040F2051102F077
:104C2000FBFAFFE7FFE702988068002806D0FFE75D
:104C300002988068B0F5805F01D1FFE708E041F29B
:104C4000B160C0F6010040F2071102F0E5FAFFE79B
:104C50000298C069002806D0FFE70298C069B0F545
:104C6000004F01D1FFE708E041F2B160C0F601005A
:104C70004FF4847102F0D0FAFFE7029890F83900FF
:104C8000002808D1FFE70298002180F83810029828
:104C900000F032F8FFE70298242180F839100298DA
:104CA0000068C16821F40051C160029801F028FE3B
:104CB00002980068016921F490410161029800683E
:104CC000416921F02A01416102980068C16841F4FC
:104CD0000051C16002980021C16302984FF0200E7C
:104CE00080F839E0029880F83AE08DF80F10FFE77D
:104CF0009DF80F0004B080BD80B58CB001460B90CC
:104D00000B98006841F20002C4F201029042039144
:104D100024D1FFE7FFE70020059043F64400C4F2EA
:104D20000200016841F010010160006800F010000D
:104D3000059005980290FFE7C0200690022007909A
:104D4000012008900320099007200A9040F20040BB
:104D5000C4F2020006A9FCF7AFF937E00B9800682F
:104D600044F60001C4F2000188422ED1FFE7FFE7BC
:104D70000020049043F64000C4F20200016841F4B0
:104D800080210160006800F4802004900498019064
:104D9000FFE74FF440700690022007900120089032
:104DA0000320099007200A9040F60040C4F2020058
:104DB00006A9FCF781F92720052100220090FDF7C4
:104DC000D7FB0098FDF7BAFBFFE7FFE70CB080BD0B
:104DD00080B587B013468C46864605900491ADF8A1
:104DE0000E20059890F83A0020280293CDF804C0D0
:104DF000CDF800E046D1FFE70498002805D0FFE792
:104E0000BDF80E00002804D1FFE701208DF81B003B
:104E10003CE0FFE7059890F83800012804D1FFE74F
:104E200002208DF81B0031E00598012180F8381030
:104E3000FFE7FFE7049805998862BDF80E00059921
:104E40008885BDF80E000599C88505980021C163C5
:104E50000598222180F83A10FFE70598002180F894
:104E60003810FFE705980068416941F00101416190
:104E700005980068C16841F49071C16000208DF808
:104E80001B0003E002208DF81B00FFE79DF81B00CC
:104E900007B080BD80B586B00146059040F6800021
:104EA000C2F2000040F67022C2F200020123049117
:104EB000114603921A46FFF78BFF039902900846AA
:104EC00008F0DCFF03990A780190104600F052FECA
:104ED00006B080BD82B001460190009102B07047DB
:104EE000FFE7FEE783B00146019001980068406942
:104EF00000F480600122B2EB902F009119D1FFE7FE
:104F0000019800686FF48061416101980421016497
:104F10000198002101630198202180F83D10FFE7EE
:104F20000198002180F83C10FFE701208DF80B006C
:104F300003E000208DF80B00FFE79DF80B0003B0A5
:104F400070470000B0B58EB09C4696460C460546AC
:104F50000C90ADF82E100A9209930C98C06A089034
:104F60000C980068016841F4806101600898042889
:104F7000CDF818C0CDF814E00494039509D0FFE7EC
:104F80000898012805D0FFE7089810F5803F07D161
:104F9000FFE70C980068016841F4807101600CE043
:104FA0000C98006B112807D1FFE70C980068016886
:104FB00041F480710160FFE7FFE70C980A9B0999B3
:104FC0006A4611604FF00111002200F097F90028A5
:104FD00004D0FFE703208DF8370098E00C980069B3
:104FE000B0F5804F08D1FFE79DF82E0040F001009A
:104FF0000C99096808616EE0BDF82E0000F440705D
:10500000F02141EAD0100C99096808610C980A9ABD
:10501000099B0821C0F2010100F0DEF900280DD043
:10502000FFE70C98006C042804D1FFE701208DF8FD
:1050300037006CE003208DF8370068E09DF82E0003
:105040000C99096808610C980A9A099B0221C0F220
:10505000010100F0C1F900280DD0FFE70C98006CA9
:10506000042804D1FFE701208DF837004FE003202A
:105070008DF837004BE0FFE7002007900C980068A0
:10508000406907900C980068806907900798029023
:10509000FFE70C980068016841F4807101600C988A
:1050A0000A9B09996A4611604FF00111002200F035
:1050B00025F9002804D0FFE703208DF8370026E00B
:1050C000BDF82E0000F44070F12141EAD0100C9997
:1050D00009680861FFE70C980A9A099B0221C0F24F
:1050E000010100F079F900280DD0FFE70C98006C61
:1050F000042804D1FFE701208DF8370007E00320E2
:105100008DF8370003E000208DF83700FFE79DF8A9
:1051100037000EB0B0BD0000B0B58CB09C469646CE
:105120000C4605460A90ADF82610089207930A9897
:10513000C06A069006980428CDF814C0CDF810E097
:105140000394029509D0FFE70698012805D0FFE7F0
:10515000069810F5803F07D1FFE70A9800680168BC
:1051600041F4807101600CE00A98006B122807D1AD
:10517000FFE70A980068016841F480710160FFE769
:10518000FFE70A98089B07996A4611604FF00111E2
:10519000002200F0B3F8002804D0FFE703208DF8C8
:1051A0002F0051E00A980069B0F5804F08D1FFE761
:1051B000BDF8260000F0FE000A990968086127E0A2
:1051C000BDF8260000F44070F02141EAD0100A99A1
:1051D000096808610A98089A079B0821C0F2010132
:1051E00000F0FAF800280DD0FFE70A98006C0428B8
:1051F00004D1FFE701208DF82F0025E003208DF872
:105200002F0021E09DF826000A9909680861FFE750
:105210000A98089A079B0221C0F2010100F0DCF80D
:1052200000280DD0FFE70A98006C042804D1FFE79E
:1052300001208DF82F0007E003208DF82F0003E0F8
:1052400000208DF82F00FFE79DF82F000CB0B0BDB7
:1052500080B588B013468C46864606900591049228
:105260000393CDF808C0CDF804E0FFE70698006886
:10527000406900F004000021B1EB900F36D1FFE748
:105280000698FFF72FFE002804D0FFE701208DF8D5
:105290001F002FE005980130002826D0FFE7059871
:1052A00000280BD0FFE7FCF7F1FADDF810E0A0EBE7
:1052B0000E00DDF814E0704516D9FFE70698016C82
:1052C00041F0200101640698002101630698202125
:1052D00080F83D10FFE70698002180F83C10FFE7BA
:1052E00003208DF81F0005E0FFE7BFE700208DF8E1
:1052F0001F00FFE79DF81F0008B080BD70B58CB09F
:10530000DDF840C09E4614460D4606460A900991B7
:105310008DF823200793CDF818E0059404950396A3
:10532000CDF808C0FFE79DF8260001280CD1FFE763
:105330000A9800684069BDF824100840401AB0FA85
:1053400080F0400901900BE00A9800688069BDF880
:1053500024100840401AB0FA80F040090190FFE79D
:105360000198002818BF01209DF8231088422AD1F7
:10537000FFE707980130002824D0FFE707980028AE
:105380000BD0FFE7FCF782FADDF840E0A0EB0E005F
:10539000DDF81CE0704514D9FFE70A98002101638D
:1053A0000A98202280F83D200A9880F83E10FFE7F6
:1053B0000A98002180F83C10FFE703208DF82F00A9
:1053C00005E0FFE7AFE700208DF82F00FFE79DF82D
:1053D0002F000CB070BD0000B0B58AB09C46964658
:1053E0000C4605460890079106920593CDF810C02B
:1053F000CDF80CE002940195FFE79DF81E0001280E
:105400000CD1FFE7089800684069BDF81C100840FF
:10541000401AB0FA80F0400900900BE0089800684C
:105420008069BDF81C100840401AB0FA80F04009AD
:105430000090FFE70098002850D1FFE70898006827
:10544000406900F480600121B1EB902F1FD1FFE78C
:1054500008980068016841F40071016008980068CC
:105460006FF480614161089804210164089800216B
:1054700001630898202180F83D10FFE7089800217B
:1054800080F83C10FFE701208DF827002AE00698FD
:105490000130002821D0FFE7069800280BD0FFE755
:1054A000FCF7F4F9DDF814E0A0EB0E00DDF818E0ED
:1054B000704511D9FFE70898002101630898202161
:1054C00080F83D10FFE70898002180F83C10FFE7C6
:1054D00003208DF8270005E0FFE78EE700208DF818
:1054E0002700FFE79DF827000AB0B0BD80B588B05F
:1054F00013468C4686460690059104920393CDF898
:1055000008C0CDF804E0FFE706980068406900F0A5
:1055100040000021B1EB901F45D1FFE706980068DD
:10552000406900F010000121B1EB101F18D1FFE716
:10553000069800686FF0100141610698002101642F
:10554000069801630698202180F83D10FFE7069831
:10555000002180F83C10FFE701208DF81F0026E0B5
:10556000059800280BD0FFE7FCF790F9DDF810E074
:10557000A0EB0E00DDF814E0704513D9FFE70698A4
:10558000016C41F0200101640698202180F83D1053
:10559000FFE70698002180F83C10FFE703208DF814
:1055A0001F0004E0B0E700208DF81F00FFE79DF822
:1055B0001F0008B080BD000080B588B013468C463F
:1055C00086460690059104920393CDF808C0CDF865
:1055D00004E0FFE706980068406900F080000021C1
:1055E000B1EBD01F36D1FFE70698FFF77BFC002810
:1055F00004D0FFE701208DF81F002FE0059801304F
:10560000002826D0FFE7059800280BD0FFE7FCF71D
:105610003DF9DDF810E0A0EB0E00DDF814E0704578
:1056200016D9FFE70698016C41F020010164069845
:10563000002101630698202180F83D10FFE70698BD
:10564000002180F83C10FFE703208DF81F0005E0E3
:10565000FFE7BFE700208DF81F00FFE79DF81F0060
:1056600008B080BD82B00146019040F68060CEF265
:105670000000006810F0010F009117D0FFE740F61E
:105680000060CEF20000006810F0010F0ED0FFE7BE
:10569000FFE74FF060400068002802D1FFE700BF3D
:1056A000F7E701984FF060410870FFE7019802B0FA
:1056B0007047000080B540F2A060C2F2000043F2E3
:1056C0000001C4F202010160FBF710FC002808D0C1
:1056D000FFE741F27550C0F60100422101F092FD52
:1056E000FFE780BD80B540F21C00C2F2000040F22E
:1056F0003211C2F20001FBF7A1FB40F64821C2F2D1
:105700000001087080BD000080B59EB0FFE700205A
:10571000189043F63000C4F20200016841F0040121
:105720000160006800F00400189018981290FFE7DC
:10573000FFE70020179043F63000C4F20200016832
:1057400041F080010160006800F080001790179818
:105750001190FFE7FFE70020169043F63000C4F2F7
:105760000200016841F001010160006800F00100E1
:10577000169016981090FFE7FFE70020159043F66B
:105780003000C4F20200016841F0100101600068BD
:1057900000F01000159015980F90FFE7FFE700202C
:1057A000149043F63000C4F20200016841F0020197
:1057B0000160006800F00200149014980E90FFE75A
:1057C000FFE70020139043F63000C4F202000168A6
:1057D00041F008010160006800F008001390139880
:1057E0000D90FFE70020C4F20200102100220C906F
:1057F0000B92FCF703F841F20000C4F202004FF4F0
:1058000080410A9009910B9AFBF7F8FF40F20040A3
:10581000C4F202004FF4006108900B9AFBF7EEFF10
:105820004FF480500121089A07901046DDF81CE0E3
:1058300006917146069AFBF7E1FF40F60040C4F27C
:10584000020005900799069AFBF7D8FF4FF4004134
:105850000C98069AFBF7D2FFC220059904900846DF
:1058600004990B9AFBF7CAFF48F2100019900698AA
:105870001A900B991B911C9119AA0C98114603922E
:10588000FBF71AFC0998199006991A910B9A1B922A
:105890001C920A980399FBF70FFC4FF4C050199023
:1058A00006981A900B991B911C9108980399FBF785
:1058B00003FC4FF4806019900B981A901B90059888
:1058C0000399FBF7F9FB0798199006991A911B9118
:1058D0000B9A1C9205980399FBF7EEFB0998199017
:1058E0000021C1F211011A9106991B9105980399A3
:1058F000FBF7E2FB069819900021C1F221011A91F1
:105900000B991B9105980399FBF7D6FB0498199006
:1059100006991A910B9A1B921C9205980399FBF712
:10592000CBFB0620052102900B9AFCF721FE029882
:10593000FCF704FE282001900B990B9AFCF718FE47
:105940000198FCF7FBFD1EB080BD000080B540F261
:10595000A860C2F2000045F60041C4F200010160F7
:1059600041F68021C0F20601416000218160C160E2
:105970004FF48042026141618161C1610162FBF7C4
:105980008BFF002808D0FFE741F28750C0F60100E6
:105990004C2101F037FCFFE780BD000080B540F2EC
:1059A000FC60C2F2000043F20001C4F20101016098
:1059B0004FF48271416000218160C16001614161E9
:1059C0004FF4007282611822C261016241628162F9
:1059D0000A21C162FDF744FD002808D0FFE741F22B
:1059E0009950C0F60100512101F00CFCFFE780BD89
:1059F00080B540F25470C2F2000043F60001C4F2D8
:105A0000000101604FF48271416000218160C1603A
:105A100002220261012242614FF400728261C1617F
:105A20000162416281620A21C162FDF719FD00280D
:105A300008D0FFE741F29950C0F60100672101F05C
:105A4000E1FBFFE780BD000080B540F2AC70C2F220
:105A5000000043F60041C4F2000101604FF482717E
:105A6000416000218160C160016141614FF40072B9
:105A700082611022C2610162416281620A21C162B7
:105A8000FDF7EEFC002808D0FFE741F29950C0F680
:105A900001007D2101F0B6FBFFE780BD80B540F637
:105AA0000400C2F2000042F20001C4F200010160F1
:105AB0004AF210414160002181604FF47A62C26075
:105AC0000161FEF7B3FB002808D0FFE741F2AB50BD
:105AD000C0F60100462101F095FBFFE780BD000004
