:020000040800F2
:10000000F09700209D0100088D6E0008BD58000883
:100010004D690008710A0008FDBB000800000000DF
:1000200000000000000000000000000061810008E6
:10003000750A00080000000025710008C181000851
:10004000B7010008B7010008B7010008B7010008B0
:10005000B7010008B7010008790A0008B7010008D5
:10006000B7010008B7010008B7010008B701000890
:10007000B7010008B7010008B7010008B701000880
:10008000B7010008B7010008B7010008B701000870
:10009000B7010008B7010008B7010008B701000860
:1000A000B7010008B7010008B7010008B701000850
:1000B000B7010008B7010008B7010008B701000840
:1000C000B7010008B7010008B7010008B701000830
:1000D000B7010008B7010008B7010008B18C00089B
:1000E000850A0008B7010008B7010008B701000839
:1000F000B701000841830008B7010008B7010008F4
:10010000B7010008B7010008B7010008B7010008EF
:10011000B7010008B7010008B7010008B7010008DF
:10012000B7010008B7010008B7010008B7010008CF
:10013000B7010008B7010008B7010008B7010008BF
:10014000B7010008B7010008B7010008F96F0008FF
:10015000B7010008B7010008B7010008B70100089F
:10016000B7010008B7010008B7010008B70100088F
:10017000B7010008B7010008B7010008000000003F
:10018000B7010008B7010008DFF80CD000F0D2FB7F
:1001900000480047D9080108F0970020064880472A
:1001A00006480047FEE7FEE7FEE7FEE7FEE7FEE75C
:1001B000FEE7FEE7FEE7FEE7D182000889010008BE
:1001C0002DE9F05F0546002092469B46884606468C
:1001D000814640241BE0284641464746224600F01F
:1001E00022FA53465A46C01A914110D31146184676
:1001F000224600F009FA2D1A67EB01084F46224605
:100200000120002100F000FA17EB00094E41201EEA
:10021000A4F10104DFDC484631462A464346BDE8E6
:10022000F09F40EA01039B0703D009E008C9121FB1
:1002300008C0042AFAD203E011F8013B00F8013BA0
:10024000521EF9D27047421C10F8011B0029FBD145
:10025000801A704770B5064613F020FA0468054608
:100260000A220021304600F000FA2C6070BD2DE912
:10027000FE4F804681EA0300C00F0C46009021F03B
:10028000004123F00045B8EB0200A94105D24046E9
:10029000214690461C460B46024623F00040104380
:1002A00047D0270DC7F30A00C3F30A510290401A42
:1002B000019040286BDAC3F3130040F4801B0098D0
:1002C000924620B10023D2EB030A63EB0B0B01989B
:1002D0005946C0F14002504600F096F906460D46D8
:1002E00050465946019A00F0AEF910EB0800614102
:1002F000002487EA115284EAE7731A4340D0009A37
:1003000062B3019A012A4FEA075215DC001B61EB28
:1003100002014FF0004202EA0752CDE90042001C00
:1003200041F5801132462B4600F01DFA03B0BDE8BE
:10033000F08F40462146F9E7001B61EB0201001CEB
:1003400041F5801300185B412018A2F5001747EB18
:10035000030140EAD570B6196D4111E06D084FEA0E
:10036000360645EAC0754FEA0752001B61EB0201F1
:10037000001C41F5801149084FEA30000019514135
:1003800032462B4603B0BDE8F04F00F0DDB90098CF
:10039000012240000023D0EB020263EBE0730098DF
:1003A00021464FEAE074B8EB000061EB0401E9E795
:1003B00083F000435BE781F0004158E72DE9FE4FF1
:1003C00081EA030404F0004421F0004100944FF05E
:1003D000000B23F0004350EA01045ED052EA03040C
:1003E0005BD0C3F30A54C1F30A552C44A4F2F3348E
:1003F0000194A0FB0254C1F3130141F48011C3F333
:10040000130343F4801301FB024400FB034E840AF0
:10041000970A44EA815447EA8357A4FB0768029588
:100420008D0A05FB07854FEA932C04FB0C54270526
:10043000029D4FEA065847EA1637B5EB08056EEB02
:10044000070C870E920E47EA811742EA8312A7FB38
:100450000201B6EB0B0164EB00042B0D43EA0C33F5
:100460005E1844EB1C50DA465146E7FB0201C5F327
:1004700013044FEA0B3343EA14534FEA0432019C4E
:1004800043EA0603A4F10C040294009CCDE900B4F5
:1004900000F069F903B0BDE8F08F00200146F9E7EC
:1004A0002DE9F04D81EA030404F0004B21F00045F2
:1004B00014464FF0000A23F0004150EA050220D014
:1004C00054EA01021DD0C5F30A570246C5F31303CF
:1004D000C1F31300C1F30A5640F4801543F48013AE
:1004E000A7EB0608101BD64608F2FD3873EB050093
:1004F00002D308F1010801E092185B41B8F1000F46
:1005000003DA00200146BDE8F08D00204FF4801191
:10051000064684460EE0171B73EB050705D3121B36
:1005200063EB050306434CEA010C49084FEA30002F
:1005300092185B4150EA0107EDD152EA030012D054
:1005400082EA040083EA0501084305D0101BAB4191
:1005500006D20122002306E000224FF0004302E011
:100560006FF0010253101AEB06004CEB085110EB30
:100570000A0041EB0B01BDE8F04D00F0E5B800F0DA
:10058000004230F000400AD0C10D01F56071C0F3A7
:10059000160042EA0151C20840071143704700208B
:1005A0000146704701F0004330B421F0004150EAA9
:1005B000010206D00A0DA2F56072C1F31301002AF0
:1005C00002DC30BC00207047440F44EAC104C10083
:1005D000E01830BC00EBC25000F07FB830B50B46DD
:1005E000014600202022012409E021FA02F59D4263
:1005F00005D303FA02F5491B04FA02F52844151E37
:10060000A2F10102F1DC30BD202A04DB203A00FA1D
:1006100002F1002070479140C2F1200320FA03F359
:10062000194390407047202A04DB203A21FA02F057
:100630000021704721FA02F3D040C2F1200291401C
:10064000084319467047202A06DBCB17203A41FAA7
:1006500002F043EAE07306E041FA02F3D040C2F14F
:10066000200291400843194670472DE9F047914612
:100670000F4680460446002614F8015B2DB100F0B9
:100680006BF90068405DC007F6D12B2D02D02D2DEF
:1006900018D0641E4A463946204600F061F927B159
:1006A0003968A14201D1C7F8008071054FF00204FA
:1006B0000BD54042002803DD12F0F0FF0460A007D4
:1006C000BDE8F08746F48066E4E70028F8DA12F027
:1006D000E5FF04606FF00040F2E70029A8BF704713
:1006E000401C490008BF20F00100704710B4B0FA68
:1006F00080FC00FA0CF050EA010404BF10BC704703
:1007000049B1CCF1200421FA04F411FA0CF118BF1C
:10071000012121430843A3EB0C01CB1D4FEA0061EB
:100720004FEA102042BF002010BC704700EBC350BE
:1007300010440029A4BF10BC7047401C490008BFEA
:1007400020F0010010BC704710B5141E73F10004B6
:1007500008DA401C41F1000192185B411A4301D1B3
:1007600020F0010010BD2DE9F04D92469B4611B1DD
:10077000B1FA81F202E0B0FA80F220329046FFF73F
:1007800043FF04460F4640EA0A0041EA0B01534684
:100790005A46084313D0114653EA010019D0C8F154
:1007A00040025046FFF73FFF05460E465046594669
:1007B0004246FFF729FF084305D0012004E0204608
:1007C0003946BDE8F08D0020054346EAE0762C432B
:1007D00037430A986305E40AA0EB08000022FD0AEB
:1007E00044EA47540A3002D500200146E9E70105F2
:1007F00010196941DDE9084500196941BDE8F04D6E
:10080000A2E72DE9F04D00231A461B1A8A4103DBAB
:1008100000200146BDE8F08DC1F30A52C1F3130177
:1008200041F480154FF0000BD10702D100186D4143
:10083000521E0027044640F2FF11384601EB620ABF
:100840003E468046024600204FF48011FFF7EBFE43
:10085000C2197141BB1846EB0100B4EB030C75EBF8
:10086000000C04D3E41A65EB000517460E46241964
:1008700008F101006D4180463428E3DDF91946EBAB
:100880000600091BA84103D24FF0FF32134601E0D6
:10089000002213461BEB070046EB0A51BDE8F04D62
:1008A000FFF752BFC1F30A52C1F3130140F2FF3305
:1008B00041F480119A4202DA00200146704740F26A
:1008C00033439A42A2F2334202DC5242FFF7ABBEFC
:1008D000FFF79ABE30B5041E71F1000404DB4FF03F
:1008E0000044404264EB0101141E73F1000405DB77
:1008F0001C464FF00043524263EB04038B4208BF97
:10090000824230BD30B5041E71F1000404DB4FF0AB
:100910000044404264EB0101141E73F1000405DB46
:100920001C464FF00043524263EB0403994208BF58
:10093000904230BD064C074D06E0E06840F00103F0
:1009400094E8070098471034AC42F6D3FFF720FC38
:10095000AC570108CC570108004870477C4C01088F
:100960002DE9F05F82460078002715468B460AF194
:100970000104B946302801D09DB113E014F8010BF1
:100980000127782803D0582801D045B10AE00DB1DD
:10099000102D07D10027102514F8010B02E00825BF
:1009A00000E00A250026B0460EE005FB080005FB26
:1009B00006F1012701EB10461FFA80F8B6F5803FDB
:1009C00000D3B94614F8010B294600F018F80028A6
:1009D000EBDABBF1000F05D00FB1641E00E0544606
:1009E000CBF80040B9F1000F06D012F057FE0221FB
:1009F0000160C81EBDE8F09F48EA0640FAE73A28C1
:100A000000D2303820F02002412A01D3A2F1370071
:100A1000884201D34FF0FF30704770B58C1810F842
:100A2000015B15F0070301D110F8013B2A1106D133
:100A300010F8012B03E010F8016B01F8016B5B1E4D
:100A4000F9D12B0705D40023521E0DD401F8013B28
:100A5000FAE710F8013BCB1A921C03E013F8015B94
:100A600001F8015B521EF9D5A142D8D3002070BD18
:100A7000FFE7FEE77047000080B5012000F020F995
:100A800080BD000080B54FF4804000F019F980BDB2
:100A900080B584B00A4603460390029103980299F8
:100AA0004FF0000C01926246009300F003F804B08E
:100AB00080BD000080B586B013468C468646059002
:100AC00004918DF80F2001208DF80E0000208DF884
:100AD0000D0040F6A450C2F20000407A00280293B4
:100AE000CDF804C0CDF800E026DCFFE740F6A450C6
:100AF000C2F20000417A002242540599437A00EB89
:100B0000830359609DF80F10437A03441972417AA8
:100B10004B1C43728DF80D109DF80D003030049978
:100B2000087004983A21417004982F21817004982C
:100B3000C2708DF80E20FFE79DF80E0006B080BD54
:100B400080B584B00146029002980028019103D13B
:100B5000FFE70120039026E00298006843F20001BD
:100B6000C4F20201884201D1FFE707E045F2AC5030
:100B7000C0F6010077210BF04DF8FFE7029880687E
:100B8000002807D1FFE7029800214160029800F099
:100B90000DF8FFE70298022181600298012181602F
:100BA00000200390FFE7039804B080BD84B00146A5
:100BB00003900398006843F20002C4F202029042DC
:100BC000019113D1FFE7FFE70020029043F63000C8
:100BD000C4F20200016841F480510160006800F431
:100BE0008050029002980090FFE7FFE704B0704742
:100BF00083B0014601900198806B0228009106D0D5
:100C0000FFE7019880218165012002900CE00198A6
:100C10000521816301980068016821F001010160EC
:100C2000FFE700200290FFE7029803B07047000042
:100C300080B584B001460390009100F045FC02901D
:100C40000398019001980130002809D0FFE740F295
:100C50004410C2F200000068019908440190FFE7C7
:100C6000FFE700F031FCDDF808E0A0EB0E00DDF856
:100C700004E0704501D2FFE7F3E704B080BD000057
:100C800080B582B00146ADF80600BDF80600012827
:100C9000009107D1FFE741F27070C2F2000011F03D
:100CA0009BFC0AE0BDF80600B0F5804F04D1FFE7D9
:100CB00010F06EFE00BFFFE7FFE702B080BD00004E
:100CC00080B582B00146ADF8060043F61440C4F288
:100CD00001000068BDF80620104200910CD0FFE72B
:100CE000BDF8060043F61441C4F201010860BDF8E6
:100CF0000600FFF7C5FFFFE702B080BD80B592B0E8
:100D00000A4603461190109100200E900D900C9011
:100D100011980021C4F2020188420A92099340D03E
:100D2000FFE7119840F20041C4F20201884238D036
:100D3000FFE7119840F60001C4F20201884230D06A
:100D4000FFE7119840F60041C4F20201884228D022
:100D5000FFE7119841F20001C4F20201884220D05D
:100D6000FFE7119841F20041C4F20201884218D015
:100D7000FFE7119841F60001C4F20201884210D049
:100D8000FFE7119841F60041C4F20201884208D001
:100D9000FFE7119842F20001C4F20201884201D13A
:100DA000FFE707E045F2C560C0F60100C3210AF085
:100DB00031FFFFE710980088002806D0FFE7109861
:100DC0004088002801D1FFE707E045F2C560C0F682
:100DD0000100C4210AF01EFFFFE7109840680028B8
:100DE00049D0FFE710984068012844D0FFE71098E9
:100DF000406811283FD0FFE71098406802283AD099
:100E0000FFE710984068122835D0FFE71098406837
:100E10000021C1F2110188422DD0FFE710984068EF
:100E20000021C1F22101884225D0FFE710984068D7
:100E30000021C1F2310188421DD0FFE710984068BF
:100E40000021C1F21201884215D0FFE710984068D6
:100E50000021C1F2220188420DD0FFE710984068BE
:100E60000021C1F23201884205D0FFE710984068A6
:100E7000032801D1FFE707E045F2C560C0F6010095
:100E8000C5210AF0C7FEFFE71098806800280AD045
:100E9000FFE710988068012805D0FFE71098806868
:100EA000022801D1FFE707E045F2C560C0F6010066
:100EB000C6210AF0AFFEFFE700200F90FFE70F9872
:100EC0000F2800F2BB82FFE70F98012101FA00F022
:100ED0000E90109800680E9908400D900D980E998C
:100EE000884240F0A682FFE710984068022806D0AA
:100EF000FFE710984068122840F0F080FFE7109854
:100F00000069002800F0B980FFE7109800690928FF
:100F100000F0B380FFE710980069002800F0AD8072
:100F2000FFE710980069002800F0A780FFE71098FD
:100F30000069002800F0A180FFE7109800690028F0
:100F400000F09B80FFE710980069012800F0958071
:100F5000FFE710980069012800F08F80FFE71098E4
:100F60000069022800F08980FFE7109800690228D4
:100F700000F08380FFE71098006902287DD0FFE72A
:100F800010980069032878D0FFE7109800690428BA
:100F900073D0FFE71098006904286ED0FFE710981F
:100FA0000069042869D0FFE710980069052864D01B
:100FB000FFE71098006905285FD0FFE710980069E7
:100FC00009285AD0FFE710980069062855D0FFE796
:100FD00010980069092850D0FFE710980069072889
:100FE0004BD0FFE710980069072846D0FFE710981C
:100FF0000069072841D0FFE71098006908283CD015
:10100000FFE710980069082837D0FFE710980069BB
:10101000082832D0FFE71098006909282DD0FFE793
:1010200010980069092828D0FFE7109800690A285D
:1010300023D0FFE7109800690A281ED0FFE7109818
:1010400000690B2819D0FFE7109800690C2814D00C
:10105000FFE7109800690C280FD0FFE7109800698F
:101060000D280AD0FFE7109800690C2805D0FFE78B
:10107000109800690F2801D1FFE707E045F2C5602D
:10108000C0F60100D7210AF0C5FDFFE711980F99BE
:101090004FF6FC72C7F6FF7202EA51010844006A7B
:1010A0000C900F9800F0070080000F2101FA00F06B
:1010B0000C9921EA00000C90109800690F9901F03A
:1010C0000701890088400C9908430C900C981199ED
:1010D0000F9B02EA530211440862FFE7119800686F
:1010E0000C900F984000032101FA00F00C9921EABE
:1010F00000000C901098406800F003000F99490020
:1011000088400C9908430C900C981199086010982D
:10111000406801280FD0FFE71098406802280AD0E5
:10112000FFE710984068112805D0FFE71098406845
:1011300012284CD1FFE71098C06800280FD0FFE7B5
:101140001098C06801280AD0FFE71098C0680228EC
:1011500005D0FFE71098C068032801D1FFE707E03A
:1011600045F2C560C0F60100EA210AF053FDFFE731
:10117000119880680C900F984000032101FA00F04C
:101180000C9921EA00000C901098C0680F99490052
:1011900088400C9908430C900C981199886011981C
:1011A00040680C900F98012101FA00F00C9921EA97
:1011B00000000C9010984068C0F300100F99884010
:1011C0000C9908430C900C9811994860FFE711980E
:1011D000C0680C900F984000032101FA00F00C99B0
:1011E00021EA00000C90109880680F99490088400F
:1011F0000C9908430C900C981199C860109840689D
:10120000C000002840F11481FFE7FFE700200B90A9
:1012100043F64400C4F20200016841F480410160D9
:10122000006800F480400B900B980890FFE70F983F
:1012300020F0030043F60801C4F2010140580C906D
:101240000F9800F0030080000F2101FA00F00C99C4
:1012500021EA00000C9011980021C4F2020188429A
:1012600003D1FFE7002007905EE0119840F20041B3
:10127000C4F20201884203D1FFE70120069050E04A
:10128000119840F60001C4F20201884203D1FFE741
:101290000220059042E0119840F60041C4F202019C
:1012A000884203D1FFE70320049034E0119841F213
:1012B0000001C4F20201884203D1FFE70420039039
:1012C00026E0119841F20041C4F20201884203D1A4
:1012D000FFE70520029018E0119841F60001C4F2E2
:1012E0000201884203D1FFE7062001900AE011982D
:1012F00041F60041C4F202010822884208BF0722D9
:101300000192FFE701980290FFE702980390FFE740
:1013100003980490FFE704980590FFE7059806906E
:10132000FFE706980790FFE70798C0B20F9901F012
:101330000301890088400C9908430C900C980F9980
:1013400021F0030143F60802C4F20102885043F67B
:101350000040C4F2010000680C900D980C9921EA3D
:1013600000000C9010984068C003002805D5FFE7E6
:101370000D980C9908430C90FFE70C9843F6004138
:10138000C4F20101086043F60440C4F201000068A1
:101390000C900D980C9921EA00000C901098406870
:1013A0008003002805D5FFE70D980C9908430C90A1
:1013B000FFE70C9843F60441C4F20101086043F6CC
:1013C0000840C4F2010000680C900D980C9921EAC5
:1013D00000000C9010984068C002002805D5FFE777
:1013E0000D980C9908430C90FFE70C9843F60841C0
:1013F000C4F20101086043F60C40C4F20100006829
:101400000C900D980C9921EA00000C9010984068FF
:101410008002002805D5FFE70D980C9908430C9031
:10142000FFE70C9843F60C41C4F201010860FFE7A6
:10143000FFE7FFE70F9801300F9040E512B080BD45
:1014400080B586B013468C4686460590ADF81210DE
:101450000392BDF8120000280293CDF804C0CDF825
:1014600000E005D0FFE70020002801D1FFE708E0F9
:1014700045F2C560C0F6010040F2AF110AF0CAFBA8
:10148000FFE70398002804D0FFE70398012801D163
:10149000FFE708E045F2C560C0F601004FF4D871DF
:1014A0000AF0B8FBFFE70398002805D0FFE7BDF876
:1014B00012000599886105E0BDF812000004059945
:1014C0008861FFE706B080BD41F2E470C2F200001F
:1014D0000068704770B594B0DDF860C09E46144651
:1014E0000D4606461290ADF846101092ADF83E300B
:1014F00000200E90CDF824E0089407950696CDF8CC
:1015000014C0FFF7E1FF0E901298006C202840F005
:10151000FF81FFE712980E996A4611600221C0F21E
:1015200010010122192304F0BBFB002803D0FFE7C0
:1015300002201390EFE1FFE71298C06B012803D15E
:10154000FFE702201390E6E112980121C163FFE753
:10155000FFE712980068006810F0010F07D1FFE75D
:1015600012980068016841F001010160FFE71298DC
:101570000068016821F40061016012982221016471
:1015800012981021416412980021816410981299D8
:101590004862BDF83E001299488512980021CFF6A6
:1015A000FF71C1621298408D129908851298189A9D
:1015B0000E9BBDF8461004F0ADF9002815D0FFE7EA
:1015C0001298806C042808D1FFE7FFE712980021E9
:1015D000C163FFE7012013909DE1FFE7129800210E
:1015E000C163FFE70320139095E11298008D002856
:1015F00015D1FFE7FFE700200D90129800684069C1
:101600000D901298006880690D900D980490FFE786
:1016100012980068016841F40071016056E0129868
:10162000008D01281BD1FFE712980068016821F4A2
:1016300080610160FFE700200C901298006840690B
:101640000C901298006880690C900C980390FFE74A
:1016500012980068016841F40071016035E0129849
:10166000008D02281BD1FFE712980068016821F461
:101670008061016012980068016841F400610160B6
:10168000FFE700200B901298006840690B901298B9
:10169000006880690B900B980290FFE714E01298A5
:1016A0000068016841F480610160FFE700200A9052
:1016B0001298006840690A901298006880690A9040
:1016C0000A980190FFE7FFE7FFE7FFE7FFE71298BF
:1016D000008D002800F00E81FFE71298008D03288E
:1016E00000F2C880FFE71298008D012824D1FFE79F
:1016F000129818990E9A04F0BBFB00280BD0FFE754
:101700001298806C202803D1FFE70320139002E198
:1017100001201390FFE012980068006912994A6A4C
:10172000531C4B6210701298018D0139018512987B
:10173000418D013941859CE01298008D022838D1F5
:10174000FFE71298189B0E996A4611600421C0F2B7
:101750000101002204F0A4FA002803D0FFE70320CF
:101760001390D8E012980068016841F4007101609C
:1017700012980068006912994A6A531C4B621070F3
:101780001298018D013901851298418D01394185E9
:1017900012980068006912994A6A531C4B621070D3
:1017A0001298018D013901851298418D01394185C9
:1017B0005EE01298189B0E996A4611600421C0F2EF
:1017C0000101002204F06CFA002803D0FFE7032097
:1017D0001390A0E012980068016821F48061016014
:1017E00012980068006912994A6A531C4B62107083
:1017F0001298018D013901851298418D0139418579
:101800001298189B0E996A4611600421C0F20101DA
:10181000002204F045FA002803D0FFE703201390CC
:1018200079E012980068016841F400710160129833
:101830000068006912994A6A531C4B621070129832
:10184000018D013901851298418D01394185129828
:101850000068006912994A6A531C4B621070129812
:10186000018D013901851298418D01394185FFE7CC
:10187000FFE73EE0129818990E9A04F0F9FA002852
:101880000BD0FFE71298806C202803D1FFE70320DC
:10189000139040E0012013903DE012980068006929
:1018A00012994A6A531C4B6210701298018D0139CB
:1018B00001851298418D013941851298006840696F
:1018C00000F004000121B1EB900F11D1FFE7129855
:1018D0000068006912994A6A531C4B621070129892
:1018E000018D013901851298418D01394185FFE74C
:1018F000FFE7ECE612982021016412980021416470
:10190000FFE712980021C163FFE70020139002E077
:1019100002201390FFE7139814B070BD70B58EB01D
:10192000DDF848C09E4614460D4606460C90ADF8BC
:101930002E100A92ADF8263000200890CDF818E05D
:10194000059404950396CDF808C0FFF7BDFD0890F7
:101950000C98006C202840F0F780FFE70C9808995D
:101960006A4611600221C0F210010122192304F01D
:1019700097F9002803D0FFE702200D90E7E0FFE78A
:101980000C98C06B012803D1FFE702200D90DEE028
:101990000C980121C163FFE7FFE70C98006800681D
:1019A00010F0010F07D1FFE70C980068016841F0C3
:1019B00001010160FFE70C980068016821F40061F3
:1019C00001600C98212101640C98102141640C984D
:1019D000002181640A980C994862BDF826000C9990
:1019E00048850C980021CFF6FF71C1620C98408D9C
:1019F0000C9908850C98129A089BBDF82E1004F0DB
:101A000069F8002815D0FFE70C98806C042808D1ED
:101A1000FFE7FFE70C980021C163FFE701200D906D
:101A200095E0FFE70C980021C163FFE703200D90CC
:101A30008DE0FFE7002007900C9800684069079050
:101A40000C9800688069079007980190FFE7FFE70E
:101A50000C98008D002863D0FFE70C981299089A23
:101A600004F064FA002811D0FFE70C98806C042879
:101A700009D1FFE70C980068016841F4007101602A
:101A800001200D9063E003200D9060E00C98416A06
:101A90004A1C426208780C99096808610C98418DCB
:101AA000013941850C98018D013901850C98006838
:101AB000406900F004000121B1EB900F16D1FFE75F
:101AC0000C98008D002811D0FFE70C98416A4A1C41
:101AD000426208780C99096808610C98418D0139B7
:101AE00041850C98018D01390185FFE70C98129909
:101AF000089A04F085F8002811D0FFE70C98806C54
:101B0000042809D1FFE70C980068016841F40071CE
:101B1000016001200D901AE003200D9017E097E777
:101B20000C980068016841F4007101600C98202154
:101B300001640C9800214164FFE70C980021C16307
:101B4000FFE700200D9002E002200D90FFE70D98C6
:101B50000EB070BD40F24410C2F20000006841F2C5
:101B6000E471C2F200010A68104408607047000086
:101B700080B582B043F60040C4F20200016841F42F
:101B800000710160016841F480610160016841F405
:101B900080710160032000F00BF90020019000F03B
:101BA00007F8009000F03CF8019802B080BD0000FA
:101BB00080B584B00146029040F23C00C2F20000C1
:101BC000006840F24412C2F2000212684FF47A73C5
:101BD000B3FBF2F2B0FBF2F0019103F0A9F8002898
:101BE00003D0FFE70120039016E002980F280DD8DC
:101BF000FFE702994FF0FF30002200F09BF80298B7
:101C000040F24811C2F20001086002E00120039096
:101C100002E000200390FFE7039804B080BD0000BD
:101C200080B586B0FFE70020059043F64400C4F27B
:101C30000200016841F480410160006800F48040C6
:101C4000059005980390FFE7FFE70020049043F616
:101C50004000C4F20200016841F080510160006858
:101C600000F08050049004980290FFE7032000F0F9
:101C70009FF86FF00B004FF0000E71467246CDF8E2
:101C800004E000F057F86FF00A000199019A00F0A3
:101C900051F86FF009000199019A00F04BF86FF0CC
:101CA00004000199019A00F045F86FF003000199D2
:101CB000019A00F03FF86FF001000199019A00F0DD
:101CC00039F84FF0FF300199019A00F033F806B06F
:101CD00080BD000080B582B00146019001980028C7
:101CE000009101DBFFE707E045F2FE60C0F601006E
:101CF000DE2109F08FFFFFE7019805F0CBF802B075
:101D000080BD000080B582B0014601900198002896
:101D1000009101DBFFE707E045F2FE60C0F601003D
:101D2000CE2109F077FFFFE7019805F0C7F802B070
:101D300080BD000080B58AB013468C468646099067
:101D4000089107920020069007980F280593CDF878
:101D500010C0CDF80CE001D8FFE707E045F2FE60C7
:101D6000C0F60100BA2109F055FFFFE708980F28D7
:101D700001D8FFE707E045F2FE60C0F60100BB2195
:101D800009F048FFFFE705F0EDF806900998DDF847
:101D900018E00899079A0290704605F0A3F8029996
:101DA00001900846019905F0E5F80AB080BD0000F1
:101DB00080B582B00146019001980728009110D0AB
:101DC000FFE7019806280CD0FFE70198052808D006
:101DD000FFE70198042804D0FFE70198032801D108
:101DE000FFE707E045F2FE60C0F60100A22109F01E
:101DF00011FFFFE7019805F0DFF802B080BD000099
:101E000084B00A4603460390ADF80A10BDF80A00F4
:101E100003990968486200200192009304B070475A
:101E200080B587B013468C46864606908DF817100D
:101E3000ADF8142000208DF8130003900698006878
:101E4000406A03909DF8170000280293CDF804C063
:101E5000CDF800E009D1FFE7BDF81400039941EA8D
:101E6000004006990968886233E006980068806A35
:101E7000039901EB1040039000208DF81300FFE759
:101E80009DF813009DF817100139884213DAFFE717
:101E9000069800689DF8131000EB8100D0F804014B
:101EA000039901EB10400390FFE79DF81300013008
:101EB0008DF81300E4E7BDF81400039941EA0040EF
:101EC000069909689DF8172001EB8201C1F800010D
:101ED000FFE7002007B080BD80B584B001460390C5
:101EE0000398D0F8F003029107F064FC019004B06D
:101EF00080BD000080B586B00A46034605908DF887
:101F000013100598D0F8F0139DF813C0CCEBCC0E4D
:101F100000EB8E00406C039008466146DDF80CC073
:101F200002926246019307F01FFB009006B080BD4D
:101F300080B586B00A46034605908DF813100598C3
:101F4000D0F8F0139DF813C0CCEBCC0E00EB8E0054
:101F5000D0F80402039008466146DDF80CC00292F6
:101F60006246019307F0ACFB009006B080BD000014
:101F700080B584B0014603900398D0F8F003029135
:101F800007F020FC019004B080BD000080B588B04F
:101F90000A46034606908DF817109DF817000006B4
:101FA0000028039202930CD5FFE706989DF81710BE
:101FB00001F07F01C1EBC10100EB810038300490DA
:101FC0000CE006989DF8171001F07F01C1EBC101EC
:101FD00000EB810000F5FC700490FFE79DF817000E
:101FE00000F07F00049908709DF81700C00904995B
:101FF0004870FFE70698D0F8B803012803D1FFE73F
:102000000220079014E006980121C0F8B813FFE7FA
:10201000FFE706980068049908F02AFD0190FFE7A1
:1020200006980021C0F8B813FFE700200790FFE7EB
:10203000079808B080BD000080B588B00A46034606
:1020400006908DF817109DF81700000600280392DF
:1020500002930CD5FFE706989DF8171001F07F0159
:10206000C1EBC10100EB8100383004900AE0069812
:102070009DF81710C1EBC10100EB810000F5FC7069
:102080000490FFE70498002181709DF8170000F08C
:102090007F00049908709DF81700C00904994870E2
:1020A000FFE70698D0F8B803012803D1FFE7022024
:1020B000079014E006980121C0F8B813FFE7FFE786
:1020C00006980068049909F025F80190FFE7069842
:1020D0000021C0F8B813FFE700200790FFE707983A
:1020E00008B080BD80B588B00A46034606908DF8DA
:1020F000171004920393FFE70698D0F8B80301285D
:1021000003D1FFE70220079024E006980121C0F8E0
:10211000B813FFE7FFE79DF81700000600280AD56F
:10212000FFE7069800689DF8171001F07F0109F09D
:102130006FFA029005E00698006809F043FA0190F2
:10214000FFE7FFE706980021C0F8B813FFE700207B
:102150000790FFE7079808B080BD000084B00A46EA
:10216000034603908DF80B1003989DF80B1001F0B7
:102170000F01C1EBC10100EB8100B0F81002019228
:10218000009304B070470000B0B58CB09C469646F2
:102190000C4605460A908DF82710ADF824208DF8DE
:1021A0002330002007909DF8270000060028CDF876
:1021B00014C0CDF810E0039402950CD5FFE70A98FF
:1021C0009DF8271001F07F01C1EBC10100EB8100F8
:1021D000383006900CE00A989DF8271001F07F0136
:1021E000C1EBC10100EB810000F5FC700690FFE738
:1021F0009DF8270000F07F00069908709DF82700E1
:10220000C00906994870BDF82400069988609DF8B9
:1022100023000699C87006984078002804D0FFE78C
:1022200006980178C180FFE79DF82300022804D1B9
:10223000FFE7069800210171FFE7FFE70A98D0F851
:10224000B803012803D1FFE702200B9014E00A989D
:102250000121C0F8B813FFE7FFE70A980068069964
:1022600008F0BCFA0190FFE70A980021C0F8B81303
:10227000FFE707980B90FFE70B980CB0B0BD00008C
:10228000B0B58EB09C4696460C4605460D908DF82E
:1022900033100B920A930D989DF8331001F07F01D3
:1022A000C1EBC10100EB810000F5FC7009900B98B7
:1022B0000999C8600A9809994861099800218161C3
:1022C000099841709DF8330000F07F00099908706B
:1022D0000D9800690128CDF820C0CDF81CE00694C7
:1022E000059504D1FFE70B9809990861FFE79DF870
:1022F0003300400600280CD1FFE70D980168099AC9
:10230000007C049008461146049A08F0D5FD03901D
:102310000BE00D980168099A007C0290084611466E
:10232000029A08F0A1FF0190FFE700200EB0B0BDB7
:1023300080B58AB00A46034608908DF81F109DF8B4
:102340001F0000060028059204930CD5FFE70898AB
:102350009DF81F1001F07F01C1EBC10100EB81006E
:10236000383006900AE008989DF81F10C1EBC101B3
:1023700000EB810000F5FC700690FFE70698012154
:1023800081709DF81F0000F07F00069908709DF88D
:102390001F00C00906994870FFE70898D0F8B803F5
:1023A000012803D1FFE70220099026E008980121C7
:1023B000C0F8B813FFE7FFE708980068069908F02F
:1023C000FDFE9DF81F104906002903900CD1FFE780
:1023D0000898016800F57072007C02900846029926
:1023E00008F05EFE0190FFE7FFE708980021C0F8C3
:1023F000B813FFE700200990FFE709980AB080BDF5
:10240000B0B58EB09C4696460C4605460D908DF8AC
:1024100033100B920A930D989DF8331001F07F0151
:10242000C1EBC10100EB8100383009900B9809998C
:10243000C8600A9809994861099800218161099842
:10244000012141709DF8330000F07F000999087068
:102450000D9800690128CDF820C0CDF81CE0069445
:10246000059504D1FFE70B9809990861FFE79DF8EE
:102470003300400600280CD1FFE70D980168099A47
:10248000007C049008461146049A08F015FD03905C
:102490000BE00D980168099A007C029008461146ED
:1024A000029A08F0E1FE0190FFE700200EB0B0BDF7
:1024B00080B596B0014615901598006814900020DC
:1024C00013901290119010900F900E9049F20050BE
:1024D000C0F6BA200C90159800680B9109F0FCF832
:1024E000002840F02384FFE71598006809F064F99C
:1024F000002802D1FFE700F019BC1598006809F028
:102500005BF910F0020F07D0FFE7159800684169EA
:1025100001F002014161FFE71598006809F04CF9EC
:1025200010F4002F00F0A280FFE700201090159813
:10253000006809F0EDF81290FFE71298002800F00B
:102540009480FFE79DF84800C007002800F08680CF
:10255000FFE7159800689DF8401009F013F91190F5
:102560001198C007002859D0FFE71498109900EB84
:1025700041100121C0F8081B15980069012826D1D7
:10258000FFE715981099C1EBC10200EB8200D0F86B
:102590000002149A02EB4111D1F8101B6FF3DF41D6
:1025A000401A1599109AC2EBC20201EB8201C1F8E0
:1025B000100215981099C1EBC10100EB8100D0F811
:1025C0000012D0F804221144C0F80412FFE7159855
:1025D0009DF84010FFF7ACFC1598006901281CD14C
:1025E000FFE71098002817D1FFE715981099C1EB65
:1025F000C10100EB8100D0F80C0200280CD1FFE7EC
:102600001598016800F5707201200A9008460A9931
:1026100008F046FD0990FFE7FFE7FFE71198000784
:1026200000280DD5FFE7159800F09AFD1498DDF805
:1026300040E000EB4E104FF0080EC0F808EBFFE74B
:102640001198C006002808D5FFE71498109900EBF0
:1026500041101021C0F8081BFFE7FFE71098013078
:10266000109012984008129067E7FFE715980068ED
:1026700009F0A2F810F4802F00F0B280FFE715985F
:10268000006809F033F8129000201090FFE71298CC
:10269000002800F0A480FFE79DF84800C00700284C
:1026A00000F09680FFE7159800689DF8401009F04B
:1026B00041F811901198C007002849D0FFE7109801
:1026C000012101FA00F00F900F98149AD2F83438D3
:1026D00023EA0000C2F834081498109A00EB421064
:1026E000C0F808191598006901280BD1FFE7159863
:1026F0001099C1EBC10100EB8100016C426C1144E7
:102700004164FFE715989DF84010FFF7F3FB15981B
:10271000006901281BD1FFE71098002816D1FFE7B8
:1027200015981099C1EBC10100EB8100C06C002825
:102730000CD1FFE71598016800F570720120089030
:102740000846089908F0ACFC0790FFE7FFE7FFE7B1
:1027500011980007002808D5FFE71498109900EB9E
:1027600041100821C0F80819FFE71198C006002899
:1027700008D5FFE71498109900EB41101021C0F81C
:102780000819FFE711984006002808D5FFE71498BC
:10279000109900EB41104021C0F80819FFE711988B
:1027A0008007002808D5FFE71498109900EB411026
:1027B0000221C0F80819FFE711980006002806D585
:1027C000FFE71598109904F01FFC0690FFE7FFE75C
:1027D00010980130109012984008129057E7FFE7C8
:1027E0001598006808F0E8FF10F0004F11D0FFE7DF
:1027F0001498D0F8041821F00101C0F804181598B5
:1028000000F066FC15980068416901F000414161E3
:10281000FFE71598006808F0CFFF10F4006F12D0A2
:10282000FFE71498D0F8080810F0010F04D0FFE774
:10283000159800F0D7FCFFE715980068416901F48E
:1028400000614161FFE71598006808F0B5FF10F4DA
:10285000805F70D0FFE71498D0F8041821F00101D0
:10286000C0F8041815980068102108F0D1FE002166
:1028700013910590FFE7139815994968884212D281
:10288000FFE71498139900EB4110FF21C0F80819D5
:102890001498139A00EB4210C0F8081BFFE7139836
:1028A00001301390E7E714984FF0FF31C0F8181883
:1028B0001498D0F81C1841F00111C0F81C18159894
:1028C000006B00280FD0FFE71498D0F8841841F06F
:1028D0000B01C0F884181498D0F8441841F00B018B
:1028E000C0F844180EE01498D0F8141841F00B0109
:1028F000C0F814181498D0F8101841F00B01C0F863
:102900001018FFE71498D0F8001821F4FE61C0F801
:1029100000181598016800F57072007C0490084654
:10292000049908F0BDFB159909684A6902F48052C0
:102930004A610390FFE71598006808F03DFF10F426
:10294000005F00F01A81FFE71598006807F0B4FFF8
:10295000DDF854E0DEF800E0DEF80C1021F47051F0
:10296000CEF80C10159909680290084608F07CFE14
:1029700000280ED1FFE715980021C16015984FF48B
:102980000071416115980068C16841F41051C1603F
:10299000E7E015980321C16015984021416100F0DE
:1029A0005FFE0C900C984AF6C041C0F2D8018842F4
:1029B0000FD3FFE70C984EF2BF11C0F2E40188423A
:1029C00007D8FFE715980068C16841F47051C160ED
:1029D000C6E00C984EF2C011C0F2E40188420FD359
:1029E000FFE70C9842F2FF31C0F2F401884207D8A9
:1029F000FFE715980068C16841F46051C160AEE01E
:102A00000C9842F20041C0F2F40188420FD3FFE774
:102A10000C9847F27F31C0F20611884207D8FFE7D1
:102A200015980068C16841F45051C16096E00C9857
:102A300047F28031C0F2061188420FD3FFE70C98AD
:102A400044F69F11C0F21A11884207D8FFE7159883
:102A50000068C16841F44051C1607EE00C9844F6C2
:102A6000A011C0F21A1188420FD3FFE70C9842F66A
:102A7000FF41C0F23111884207D8FFE7159800687E
:102A8000C16841F43051C16066E00C9842F60051D3
:102A9000C0F2311188420FD3FFE70C984AF23F4150
:102AA000C0F24C11884207D8FFE715980068C1684A
:102AB00041F42051C1604EE00C984AF24041C0F20E
:102AC0004C1188420FD3FFE70C9843F2FF51C0F23C
:102AD0006E11884207D8FFE715980068C16841F475
:102AE0001051C16036E00C9843F20061C0F26E11E3
:102AF00088420FD3FFE70C984AF61F31C0F2A611A7
:102B0000884207D8FFE715980068C16841F4005172
:102B1000C1601EE00C984AF62031C0F2A61188422E
:102B20000FD3FFE70C9844F2FF71C0F2E81188421E
:102B300007D8FFE715980068C16841F4E051C1600B
:102B400006E015980068C16841F4C051C160FFE714
:102B5000FFE7FFE7FFE7FFE7FFE7FFE7FFE7FFE745
:102B6000FFE7159800F08AFA15980068D0F814E08D
:102B70000EF4005EC0F814E0FFE71598006808F056
:102B80001BFE10F0100F64D0FFE7159800688169F4
:102B900021F0100181611498006A0E9015980E9929
:102BA00001F00F01C1EBC10100EB810000F5FC70E9
:102BB0000D900E9800F4F0100221B1EB504F25D18A
:102BC000FFE7BDF8380047F6F07108421DD0FFE777
:102BD00014980D99C9680E9AC2F30A1208F0FEFD06
:102BE0000E9947F6F0721140DDF834E0DEF80C3053
:102BF00003EB1111CEF80C100E9911400D9A936948
:102C000003EB111191610190FFE71BE00E9800F4B6
:102C1000F0100621B1EB504F13D1FFE7149815992E
:102C200001F57071082208F0D9FD0E9947F6F0728F
:102C300011400D9AD2F818E00EEB1111916100903D
:102C4000FFE7FFE715980068816941F01001816195
:102C5000FFE71598006808F0AFFD10F0080F0CD0E2
:102C6000FFE7159800F042FA15980068D0F814E0D4
:102C70000EF0080EC0F814E0FFE71598006808F0A1
:102C80009BFD10F4801F0CD0FFE715989DF84010B5
:102C900000F04EF815980068416901F48011416117
:102CA000FFE71598006808F087FD10F4001F0CD0AE
:102CB000FFE715989DF8401000F04EF81598006851
:102CC000416901F400114161FFE71598006808F0BF
:102CD00073FD10F0804F0CD0FFE71598FFF7FCF85C
:102CE00015980068D0F814E00EF0804EC0F814E09B
:102CF000FFE71598006808F05FFD10F0040F14D08E
:102D0000FFE71598006840680E900E98400700286D
:102D100004D5FFE71598FFF72BF9FFE70E981599F3
:102D200009684A6810434860FFE7FFE716B080BDB6
:102D300080B586B00A46034605908DF813100598B5
:102D4000D0F8F0039DF813100392029306F014FEDE
:102D5000019006B080BD000080B586B00A460346EB
:102D600005908DF813100598D0F8F0039DF8131016
:102D70000392029306F00CFE019006B080BD0000A5
:102D80002DE9F04F99B00146179000201690179842
:102D90000028159103D1FFE70120189023E117982F
:102DA0000068B0F1A04F08D0FFE717980068002135
:102DB000C4F20401884201D1FFE707E045F27450F4
:102DC000C0F60100942108F025FFFFE717980321C2
:102DD000C0F8BC13179800F00BF91798006808F0BA
:102DE0005FF81799D1F800E04A688B68D1F80CC0F9
:102DF0000C694D698E69CF69D1F82080D1F8249093
:102E0000D1F828A0D1F82CB01490086B496B13901E
:102E10006846416213990162C0F81CB0C0F818A05E
:102E2000C0F81490C0F81080C760866045600460E8
:102E3000704611461A46634607F064FD1799096803
:102E40000022129008461146119208F0F5FC1199E3
:102E500016911090FFE716980E283BD8FFE71798B9
:102E60001699C1EBC10100EB8100012180F83910F6
:102E700016981799C0EBC00201EB820181F8380067
:102E800016981799C0EBC00201EB8201C88717980A
:102E90001699C1EBC10100EB8100002180F83B10C5
:102EA0001798169AC2EBC20200EB820001641798D1
:102EB000169AC2EBC20200EB820041641798169A80
:102EC000C2EBC20200EB8200C164FFE7169801303A
:102ED0001690C0E700201690FFE716980E2844D8F9
:102EE000FFE717981699C1EBC10100EB81000021A3
:102EF00080F8F9111698179AC0EBC00302EB830211
:102F000082F8F8011698179AC0EBC00302EB83020F
:102F1000D0871798169AC2EBC20200EB820080F8A5
:102F2000FB111798169AC2EBC20200EB8200C0F8A0
:102F300000121798169AC2EBC20200EB8200C0F88A
:102F400004121798169AC2EBC20200EB8200C0F876
:102F50000C1217980068169A00EB8200C0F8041152
:102F6000FFE7169801301690B7E717980168426896
:102F70008368D0F80CC0D0F810E044698569C66950
:102F8000076AD0F82480D0F82890D0F82CA0D0F888
:102F900030B0406B0F9068460E900F980D910E99CF
:102FA0004862C1F820B0C1F81CA0C1F81890C1F85F
:102FB00014800F61CE608D604C60C1F800E00D9808
:102FC00011461A46634607F02BFE17990122C1F8F5
:102FD000BC23179909680C90084607F00FFE0021E2
:102FE00018910B90FFE7189819B0BDE8F08F00001A
:102FF00080B58CB001460B900B980068B0F1A04FE3
:10300000049138D1FFE74FF4C0500690022007909A
:1030100000200890032009900A200A900020C4F2A2
:10302000020006A9FDF76AFEFFE743F63400C4F28A
:103030000200016841F080010160FFE70020059077
:1030400043F64400C4F20200016841F4804101608B
:10305000006800F48040059005980390FFE7FFE7C3
:103060004320002102900191019AFEF763FE02982D
:10307000FEF748FEFFE70CB080BD000080B586B0CB
:1030800001460590012004900598C068002803912E
:10309000029004D0FFE70298022803D005E0002048
:1030A000049005E00120049002E001200490FFE775
:1030B0000598D0F8F003049906F050FD0599D1F871
:1030C000F0130190084606F0E9FC009006B080BDC0
:1030D00080B584B0014603900398D0F8F0030291C4
:1030E00006F012FD019004B080BD000080B584B0F0
:1030F000014603900398D0F8F003029106F010FD0A
:10310000019004B080BD000080B586B00A46034639
:1031100004908DF80F1002920193FFE70498D0F805
:10312000B803012803D1FFE70220059015E00498B9
:103130000121C0F8B813FFE7FFE7049800689DF885
:103140000F1008F0A1FB0090FFE704980021C0F8E1
:10315000B813FFE700200590FFE7059806B080BD93
:1031600080B584B0014603900398D0F8F02300F5B1
:10317000707002901046029A0191114606F02CFDE3
:10318000009004B080BD000080B586B00146049078
:103190000391FFE70498D0F8B803012803D1FFE7B3
:1031A000022005901BE004980121C0F8B813FFE746
:1031B000FFE70498006807F00FFDDDF810E0DEF887
:1031C00000E00290704608F0F1F90190FFE70498E2
:1031D0000021C0F8B813FFE700200590FFE705982D
:1031E00006B080BD80B584B0014603900398D0F846
:1031F000F003029106F094FD03990968D1F800EEFE
:103200004EF0010EC1F800EE0399096A0029019001
:1032100009D0FFE74EF61050CEF20000016841F0F1
:1032200006010160FFE704B080BD000070470000A8
:1032300080B588B00A460346069005910698002896
:103240000392029303D1FFE701200790FEE1069865
:103250000068002806D0FFE7069800680F2801D80C
:10326000FFE708E045F28D60C0F601004FF41471ED
:1032700008F0D0FCFFE7059800281CD0FFE7059870
:10328000012818D0FFE70598022814D0FFE7059819
:10329000032810D0FFE7059804280CD0FFE7059815
:1032A000052808D0FFE70598062804D0FFE7059811
:1032B000072801D1FFE708E045F28D60C0F6010064
:1032C00040F2512108F0A6FCFFE7059843F60041C3
:1032D000C4F20201096801F00F01884211D9FFE729
:1032E000059843F60041C4F202010870086800F036
:1032F0000F000599884203D0FFE701200790A5E160
:10330000FFE7069800688007002861D5FFE7069868
:1033100000684007002809D5FFE743F60800C4F21B
:103320000200016841F4E0510160FFE7069800687F
:103330000007002809D5FFE743F60800C4F20200A1
:10334000016841F460410160FFE706988068002849
:1033500028D0FFE706988068802823D0FFE70698EA
:10336000806890281ED0FFE706988068A02819D0B2
:10337000FFE706988068B02814D0FFE706988068B9
:10338000C0280FD0FFE706988068D0280AD0FFE752
:1033900006988068E02805D0FFE706988068F02846
:1033A00001D1FFE708E045F28D60C0F601004FF45F
:1033B0001D7108F02FFCFFE743F60800C4F202007D
:1033C000016821F0F001069A926811430160FFE75D
:1033D00006980068C007002800F08B80FFE7069879
:1033E000406800280FD0FFE70698406801280AD0FF
:1033F000FFE706984068022805D0FFE70698406876
:10340000032801D1FFE708E045F28D60C0F6010016
:1034100040F27B2108F0FEFBFFE706984068012898
:1034200010D1FFE743F60000C4F20200006800F488
:1034300000300021B1EB504F03D1FFE7012007908E
:1034400004E12AE006984068022805D0FFE70698C4
:103450004068032810D1FFE743F60000C4F20200E1
:10346000006800F000700021B1EB506F03D1FFE75E
:1034700001200790EAE00FE043F60000C4F20200EA
:10348000006800F002000021B1EB500F03D1FFE70C
:1034900001200790DAE0FFE7FFE743F60800C4F2F7
:1034A0000200016821F00301069A5268114301608D
:1034B000FEF70AF80490FFE743F60800C4F20200A2
:1034C000006800F00C0006994968B0EB810F0FD03E
:1034D000FFE7FDF7F9FFDDF810E0A0EB0E0041F289
:1034E000893E704503D3FFE703200790AEE0E3E792
:1034F000FFE7059843F60041C4F20201096801F0B4
:103500000F01884211D2FFE7059843F60041C4F24B
:1035100002010870086800F00F000599884203D086
:10352000FFE70120079091E0FFE706980068400759
:10353000002833D5FFE70698C068002818D0FFE7B9
:103540000698C068B0F5805F12D0FFE70698C068A3
:10355000B0F5A05F0CD0FFE70698C068B0F5C05F7B
:1035600006D0FFE70698C068B0F5E05F01D1FFE73D
:1035700008E045F28D60C0F6010040F2B92108F084
:1035800049FBFFE743F60800C4F20200016821F49A
:10359000E051069AD26811430160FFE7069800687F
:1035A0000007002834D5FFE706980069002818D0E6
:1035B000FFE706980069B0F5805F12D0FFE7069834
:1035C0000069B0F5A05F0CD0FFE706980069B0F580
:1035D000C05F06D0FFE706980069B0F5E05F01D153
:1035E000FFE708E045F28D60C0F601004FF430714E
:1035F00008F010FBFFE743F60800C4F20200016880
:1036000021F46041069A126941EAC2010160FFE7B4
:1036100000F054F843F6080EC4F2020EDEF800E0A3
:10362000CEF3031E44F68041C0F6010111F80E10DE
:10363000C84040F23C01C2F2000108600020019045
:10364000FEF7B6FA019907910090FFE7079808B0D6
:1036500080BD00004C20C4F247200121016070476A
:1036600040F23C00C2F200000068704780B5FFF7EE
:10367000F7FF43F6080EC4F2020EDEF800E0CEF3C8
:10368000822E44F69041C0F6010111F80E10C84098
:1036900080BD000080B5FFF7E3FF43F6080EC4F2DB
:1036A000020EDEF800E0CEF3423E44F69041C0F652
:1036B000010111F80E10C84080BD000080B586B031
:1036C0000020059004900390029043F60800C4F295
:1036D0000200006800F00C0001460028019108D0AB
:1036E000FFE7019804280AD0FFE7019808280CD0CA
:1036F0004FE042F20040C0F2F40002904FE041F689
:103700000030C0F2B700029049E043F60400C4F272
:103710000200016801F03F010591006810F4800F7C
:1037200013D0FFE743F60400C4F202000068C0F3C0
:10373000881041F60031C0F2B701A0FB0101059AE3
:103740000023FCF73DFD049012E043F60400C4F2B0
:1037500002000068C0F3881042F20041C0F2F40198
:10376000A0FB0101059A0023FCF72AFD0490FFE766
:1037700043F60400C4F20200006800F44030022165
:1037800001EBD030039004980399B0FBF1F0029064
:1037900005E042F20040C0F2F4000290FFE7029818
:1037A00006B080BD80B543F60C00C4F2020000688C
:1037B00010F0800F0AD0FFE7FFF738FD43F60E0E3A
:1037C000C4F2020E80208EF80000FFE780BD0000EA
:1037D00080B588B00146069006980028029104D171
:1037E000FFE70120079000F012BC069800680F2840
:1037F00001D8FFE707E045F28D60C0F60100F8212F
:1038000008F008FAFFE706980068C007002800F0F3
:10381000C280FFE70698406800280CD0FFE70698B2
:103820004068B0F5803F06D0FFE706984068B0F5E5
:10383000A02F01D1FFE707E045F28D60C0F601003F
:10384000FD2108F0E7F9FFE743F60800C4F20200A3
:10385000006800F00C00042813D0FFE743F60800CE
:10386000C4F20200006800F00C0008281ED1FFE737
:1038700043F60400C4F20200006810F4800F15D073
:10388000FFE743F60000C4F20200006800F40030D5
:103890000021B1EB504F08D0FFE7069840680028A0
:1038A00003D1FFE701200790B1E373E0FFE706983B
:1038B0004068B0F5803F09D1FFE743F60000C4F24D
:1038C0000200016841F48031016020E00698406800
:1038D000B0F5A02F0DD1FFE743F60000C4F20200BF
:1038E000016841F480210160016841F48031016088
:1038F0000CE043F60000C4F20200016821F48031BC
:103900000160016821F480210160FFE7FFE7FFE724
:103910000698406800281ED0FFE7FDF7D5FD05900A
:10392000FFE743F60000C4F20200006800F4003034
:103930000021B1EB504F0DD1FFE7FDF7C5FDDDF8DC
:1039400014E0A0EB0E00652803D3FFE703200790E7
:103950005DE3E6E71DE0FDF7B7FD0590FFE743F601
:103960000000C4F20200006800F400300021B1EB56
:10397000504F0DD0FFE7FDF7A7FDDDF814E0A0EBF9
:103980000E00652803D3FFE7032007903FE3E6E737
:10399000FFE7FFE7FFE7069800688007002840F18F
:1039A000BB80FFE70698C068002805D0FFE70698AF
:1039B000C068012801D1FFE708E045F28D60C0F63C
:1039C000010040F22F1108F025F9FFE70698006981
:1039D0001F2801D8FFE708E045F28D60C0F601001E
:1039E0004FF4987108F016F9FFE743F60800C4F2A7
:1039F0000200006810F00C0F13D0FFE743F6080038
:103A0000C4F20200006800F00C0008282BD1FFE788
:103A100043F60400C4F20200006810F4800F22D1C3
:103A2000FFE743F60000C4F20200006800F0020065
:103A30000021B1EB500F08D0FFE70698C0680128BD
:103A400003D0FFE701200790E1E243F60000C4F253
:103A50000200016821F0F801069A126941EAC201E8
:103A60000160FFE757E00698C06800282FD0FFE705
:103A70000020C4F2472001210160FDF725FD0590DB
:103A8000FFE743F60000C4F20200006800F0020005
:103A90000021B1EB500F0DD1FFE7FDF715FDDDF86B
:103AA00014E0A0EB0E00032803D3FFE703200790E8
:103AB000ADE2E6E743F60000C4F20200016821F03F
:103AC000F801069A126941EAC201016022E0002071
:103AD000C4F2472000210160FDF7F6FC0590FFE7E6
:103AE00043F60000C4F20200006800F0020000216A
:103AF000B1EB500F0DD0FFE7FDF7E6FCDDF814E069
:103B0000A0EB0E00032803D3FFE7032007907EE21B
:103B1000E6E7FFE7FFE7FFE70698006800070028F1
:103B200062D5FFE706984069002805D0FFE70698B0
:103B30004069012801D1FFE708E045F28D60C0F639
:103B400001004FF4B87108F065F8FFE70698406986
:103B5000002824D0FFE740F68060C4F2472001210E
:103B60000160FDF7B1FC0590FFE743F67400C4F275
:103B70000200006800F002000021B1EB500F0DD1EF
:103B8000FFE7FDF7A1FCDDF814E0A0EB0E00032831
:103B900003D3FFE70320079039E2E6E723E040F68E
:103BA0008060C4F2472000210160FDF78DFC059084
:103BB000FFE743F67400C4F20200006800F0020060
:103BC0000021B1EB500F0DD0FFE7FDF77DFCDDF8D4
:103BD00014E0A0EB0E00032803D3FFE703200790B7
:103BE00015E2E6E7FFE7FFE70698006840070028D0
:103BF00040F1E980FFE700200490069880680028E3
:103C00000AD0FFE706988068012805D0FFE70698EC
:103C10008068052801D1FFE708E045F28D60C0F615
:103C200001004FF4CE7107F0F5FFFFE743F64000C7
:103C3000C4F20200006810F0805F15D1FFE7FFE7D3
:103C40000020039043F64000C4F20200016841F0F6
:103C500080510160006800F080500390039801904B
:103C6000FFE701200490FFE747F20000C4F20000E4
:103C7000006810F4807F23D1FFE747F20000C4F210
:103C80000000016841F480710160FDF71DFC0590A2
:103C9000FFE747F20000C4F20000006810F4807FE4
:103CA0000DD1FFE7FDF710FCDDF814E0A0EB0E00EE
:103CB000032803D3FFE703200790A8E1E9E7FFE724
:103CC000FFE706988068012809D1FFE743F67000F6
:103CD000C4F20200016841F0010101601FE0069892
:103CE000806805280DD1FFE743F67000C4F202009A
:103CF000016841F004010160016841F001010160C7
:103D00000CE043F67000C4F20200016821F00101EA
:103D10000160016821F004010160FFE7FFE7FFE7B0
:103D200006988068002820D0FFE7FDF7CDFB0590BE
:103D3000FFE743F67000C4F20200006800F00200E2
:103D40000021B1EB500F0FD1FFE7FDF7BDFBDDF810
:103D500014E0A0EB0E0041F2893E704503D3FFE76B
:103D60000320079053E1E4E71FE0FDF7ADFB05906A
:103D7000FFE743F67000C4F20200006800F00200A2
:103D80000021B1EB500F0FD0FFE7FDF79DFBDDF8F1
:103D900014E0A0EB0E0041F2893E704503D3FFE72B
:103DA0000320079033E1E4E7FFE70498012809D1F5
:103DB000FFE743F64000C4F20200016821F08051A1
:103DC0000160FFE7FFE70698806900280AD0FFE757
:103DD00006988069012805D0FFE7069880690228C7
:103DE00001D1FFE708E045F28D60C0F6010040F226
:103DF000DF1107F00FFFFFE706988069002800F049
:103E00000381FFE743F60800C4F20200006800F0F7
:103E10000C00082800F0F480FFE70698806902286B
:103E200040F0CA80FFE70698C069002806D0FFE787
:103E30000698C069B0F5800F01D1FFE708E045F2B0
:103E40008D60C0F601004FF4F47107F0E3FEFFE768
:103E50000698006A3F2801D8FFE708E045F28D6028
:103E6000C0F6010040F2E91107F0D4FEFFE7069822
:103E7000406A322807D3FFE70698406AB0F5D87F3A
:103E800001D8FFE708E045F28D60C0F601004FF46D
:103E9000F57107F0BFFEFFE70698806A02280FD091
:103EA000FFE70698806A04280AD0FFE70698806A30
:103EB000062805D0FFE70698806A082801D1FFE7A9
:103EC00008E045F28D60C0F6010040F2EB1107F00A
:103ED000A1FEFFE70698C06A022806D3FFE706980E
:103EE000C06A0F2801D8FFE708E045F28D60C0F6F0
:103EF00001004FF4F67107F08DFEFFE76020C4F279
:103F0000472000210160FDF7DFFA0590FFE743F647
:103F10000000C4F20200006800F000700021B1EB64
:103F2000506F0DD0FFE7FDF7CFFADDF814E0A0EBFE
:103F30000E00032803D3FFE70320079067E0E6E7BE
:103F40000698C169026A436AD0F828C0114341EA61
:103F500083114FEACC324FF6FF739A43A2F58032B9
:103F60001143C06A41EA006043F60401C4F2020151
:103F700008606020C4F2472001210160FDF7A4FA27
:103F80000590FFE743F60000C4F20200006800F06D
:103F900000700021B1EB506F0DD1FFE7FDF794FAEF
:103FA000DDF814E0A0EB0E00032803D3FFE70320A5
:103FB00007902CE0E6E722E06020C4F247200021D1
:103FC0000160FDF781FA0590FFE743F60000C4F2B7
:103FD0000200006800F000700021B1EB506F0DD0BE
:103FE000FFE7FDF771FADDF814E0A0EB0E000328FF
:103FF00003D3FFE70320079009E0E6E7FFE702E0CD
:104000000120079003E0FFE700200790FFE70798F3
:1040100008B080BD80B584B00146029002980028A7
:10402000019103D1FFE70120039052E1029800685B
:1040300043F20001C4F20101884212D0FFE7029866
:10404000006843F60001C4F20001884209D0FFE78E
:104050000298006843F60041C4F20001884201D191
:10406000FFE708E045F2E450C0F601004FF4877125
:1040700007F0D0FDFFE702984068002806D0FFE770
:1040800002984068B0F5827F01D1FFE708E045F271
:10409000E450C0F6010040F20F1107F0BBFDFFE74E
:1040A0000298806800280CD0FFE702988068B0F57D
:1040B000806F06D0FFE702988068B0F5004F01D10D
:1040C000FFE708E045F2E450C0F601004FF48871C4
:1040D00007F0A0FDFFE70298C068B0F5006F05D0BB
:1040E000FFE70298C068002801D1FFE708E045F229
:1040F000E450C0F6010040F2111107F08BFDFFE71C
:1041000002988069B0F5007F0BD0FFE702988069C4
:10411000002806D0FFE702988069B0F5802F01D112
:10412000FFE708E045F2E450C0F601004FF4897162
:1041300007F070FDFFE70298C069002823D0FFE771
:104140000298C06908281ED0FFE70298C0691028AD
:1041500019D0FFE70298C069182814D0FFE7029829
:10416000C06920280FD0FFE70298C06928280AD02C
:10417000FFE70298C069302805D0FFE70298C069C0
:10418000382801D1FFE708E045F2E450C0F601000D
:1041900040F2131107F03EFDFFE70298006A002885
:1041A00005D0FFE70298006A802801D1FFE708E008
:1041B00045F2E450C0F601004FF48A7107F02AFD81
:1041C000FFE70298406A002805D0FFE70298406A9E
:1041D000102801D1FFE708E045F2E450C0F60100E5
:1041E00040F2151107F016FDFFE70298406A00281B
:1041F00029D1FFE702980069002805D0FFE702985F
:104200000069022801D1FFE708E045F2E450C0F65A
:1042100001004FF48C7107F0FDFCFFE70298406944
:10422000002805D0FFE702984069012801D1FFE787
:1042300008E045F2E450C0F6010040F2191107F021
:10424000E9FCFFE7FFE70298002181620298406DD8
:10425000002807D1FFE7029800210165029800F0CD
:104260003BF8FFE702980221416502980068016867
:1042700021F0400101600298016842688368D0F82B
:104280000CC01A4342EA0C0203691A4343691A43F9
:10429000836903F400731A43C3691A43036A1A4318
:1042A000806A104308600298418B01F004010268A3
:1042B000406A0843506002980068C16921F40061B7
:1042C000C161029800218165029801224265039133
:1042D000FFE7039804B080BD80B58EB001460D9015
:1042E0000D98006843F20002C4F20102904204916A
:1042F00023D1FFE7FFE70020079043F64400C4F214
:104300000200016841F480510160006800F48050AF
:10431000079007980390FFE7E0200890022009909B
:1043200000200A9003200B9005200C900020C4F27E
:10433000020008A9FCF7E2FC5DE00D98006843F676
:104340000001C4F20001884225D1FFE7FFE7002009
:10435000069043F64000C4F20200016841F4804137
:104360000160006800F48040069006980290FFE724
:104370004FF4604008900220099000200A9003202A
:104380000B9005200C9040F20040C4F2020008A9F6
:10439000FCF7B4FC2EE00D98006843F60041C4F22F
:1043A0000001884225D1FFE7FFE70020059043F692
:1043B0004000C4F20200016841F40041016000685D
:1043C00000F40040059005980190FFE74FF4E0509D
:1043D00008900220099000200A9003200B900620EC
:1043E0000C9040F60000C4F2020008A9FCF786FC1D
:1043F000FFE7FFE7FFE70EB080BD0000B0B58EB06D
:104400009C4696460C4605460C900B91ADF82A202A
:1044100009930020089007900C984068B0F5827FBF
:10442000CDF818C0CDF814E00494039516D1FFE739
:104430000C988068002811D1FFE70C980421416591
:104440000C980B99099ABDF82A30EC46CCF800205C
:104450000291029A00F066FA0D90F5E0FFE70C98E1
:10446000006D012803D1FFE702200D90ECE00C98CD
:1044700001210165FFE7FFE7FDF726F808900C989A
:10448000406D012803D0FFE702200790D1E00B9890
:10449000002805D0FFE7BDF82A00002803D1FFE778
:1044A00001200790C5E00C98042141650C9800217B
:1044B00081650B980C9A9063BDF82A000C9A90873E
:1044C000BDF82A000C9AD0870C9801630C9881865D
:1044D0000C98C1860C9801640C9841640C98806813
:1044E000B0F5004F07D1FFE70C980068016821F490
:1044F00080410160FFE70C980068006800F0400010
:10450000402807D0FFE70C980068016841F040019F
:104510000160FFE70C98C068002834D1FFE7FFE78F
:104520000C98C08F00282DD0FFE70C980068806899
:1045300010F0010F0DD0FFE70C980068007B0B997D
:1045400008700B9801300B900C98C18F0139C1870E
:1045500017E00998002810D0FFE7099801300028DB
:104560000ED0FFE7FCF7B0FFDDF820E0A0EB0E0077
:10457000DDF824E0704503D3FFE70320079058E0FF
:10458000FFE7CDE733E0FFE70C98C08F00282DD080
:10459000FFE70C980068806810F0010F0DD0FFE76E
:1045A0000C980068C0680B9908800B9802300B903B
:1045B0000C98C18F0139C18717E00998002810D0E5
:1045C000FFE70998013000280ED0FFE7FCF77CFFD9
:1045D000DDF820E0A0EB0E00DDF824E0704503D309
:1045E000FFE70320079024E0FFE7CDE7FFE70C9803
:1045F0004068B0F5827F13D1FFE70C988068B0F572
:10460000004F06D0FFE70C988068B0F5806F07D1A7
:10461000FFE70C980068016821F040010160FFE7A6
:104620000C98806D002803D0FFE701200790FFE77A
:10463000FFE70C9801214165FFE70C980021016517
:10464000FFE707980D90FFE70D980EB0B0BD000092
:10465000B0B58EB09C4696460C4605460C900B9124
:10466000ADF82A2009930020089007900C988068E4
:104670000028CDF814C0CDF810E00394029506D0C0
:10468000FFE70C988068B0F5004F01D1FFE708E024
:1046900045F2E450C0F6010040F2C51107F0BAFA45
:1046A000FFE7FFE70C98006D012803D1FFE7022028
:1046B0000D9033E10C9801210165FFE7FFE7FCF75E
:1046C00003FF08900C98406D012803D0FFE70220FB
:1046D000079018E10B98002805D0FFE7BDF82A00E5
:1046E000002803D1FFE7012007900CE10C9803217B
:1046F00041650C98002181650B980C9A1063BDF8F8
:104700002A000C9A9086BDF82A000C9AD0860C9844
:1047100081630C9881870C98C1870C9841640C9830
:1047200001640C988068B0F5004F07D1FFE70C9842
:104730000068016841F480410160FFE70C9800685F
:10474000006800F04000402807D0FFE70C980068A0
:10475000016841F040010160FFE70C98C068B0F5C6
:10476000006F4BD1FFE70C984068002805D0FFE7A9
:104770000C98C08E01280DD1FFE70B9800880C998A
:104780000968C8600B9802300B900C98C18E0139F3
:10479000C186FFE7FFE70C98C08E00282DD0FFE709
:1047A0000C980068806810F0020F0DD0FFE70B989E
:1047B00000880C990968C8600B9802300B900C981F
:1047C000C18E0139C18617E00998002810D0FFE793
:1047D0000998013000280ED0FFE7FCF775FEDDF8E0
:1047E00020E0A0EB0E00DDF824E0704503D3FFE7E6
:1047F0000320079087E0FFE7CDE74AE00C98406888
:10480000002805D0FFE70C98C08E01280DD1FFE7E6
:104810000B9800780C99096808730B9801300B907D
:104820000C98C18E0139C186FFE7FFE70C98C08E56
:1048300000282DD0FFE70C980068806810F0020F68
:104840000DD0FFE70B9800780C99096808730B9856
:1048500001300B900C98C18E0139C18617E0099880
:10486000002810D0FFE70998013000280ED0FFE79C
:10487000FCF72AFEDDF820E0A0EB0E00DDF824E0D6
:10488000704503D3FFE7032007903CE0FFE7CDE747
:10489000FFE70C98099B08996A46116002210122E2
:1048A00003F0F0FA002803D0FFE7032007902AE086
:1048B0000C980999089A03F0B9FA002806D0FFE786
:1048C000012007900C98202181651CE00C988068DD
:1048D00000280FD1FFE7FFE7002006900C98006842
:1048E000C06806900C980068806806900698019051
:1048F000FFE7FFE70C98806D002803D0FFE7012059
:104900000790FFE7FFE70C9801214165FFE70C984E
:1049100000210165FFE707980D90FFE70D980EB0A5
:10492000B0BD000070B594B0DDF860C09E4614467E
:104930000D460646129011911092ADF83E300020BF
:104940000E900D900C9001210B910A9012988068A6
:104950000028CDF820E0079406950596CDF810C004
:1049600001D1FFE708E045F2E450C0F6010040F253
:104970003A3107F04FF9FFE7FFE71298006D012881
:1049800003D1FFE7022013909CE1129801210165F9
:10499000FFE7FFE7FCF798FD0C901298406D0E9032
:1049A000129840680D900E98012811D0FFE70D98DD
:1049B000B0F5827F09D1FFE712988068002804D102
:1049C000FFE70E98042803D0FFE702200A906EE16B
:1049D0001198002809D0FFE71098002805D0FFE7BC
:1049E000BDF83E00002803D1FFE701200A905EE1F8
:1049F0001298406D012804D1FFE712980521416506
:104A0000FFE71298002181651098129A9063BDF813
:104A10003E00129AD087BDF83E00129A90871198F6
:104A2000129A1063BDF83E00129AD086BDF83E007F
:104A3000129A908612980164129841641298006844
:104A4000006800F04000402807D0FFE71298006897
:104A5000016841F040010160FFE71298C068B0F5BD
:104A6000006F7AD1FFE712984068002805D0FFE771
:104A70001298C08E01280DD1FFE711980088129975
:104A80000968C8601198023011901298C18E0139DE
:104A9000C186FFE7FFE71298C08E0121002803912D
:104AA00007D1FFE71298C08F002818BF012003909C
:104AB000FFE70398C00700284ED0FFE70B980028B7
:104AC0001BD0FFE71298C08E002816D0FFE712987F
:104AD0000068806810F0020F0FD0FFE7119800887F
:104AE00012990968C8601198023011901298C18E0D
:104AF0000139C18600200B90FFE71298C08F002873
:104B000016D0FFE712980068806810F0010F0FD0F0
:104B1000FFE712980068C06810990880109802306A
:104B200010901298C18F0139C18701200B90FFE7C7
:104B30001898013000280ED0FFE7FCF7C5FCDDF81F
:104B400030E0A0EB0E00DDF860E0704503D3FFE736
:104B500003200A90ABE09EE777E0129840680028B7
:104B600005D0FFE71298C08E01280DD1FFE71198FC
:104B70000078129909680873119801301190129801
:104B8000C18E0139C186FFE7FFE71298C08E01216F
:104B90000028029107D1FFE71298C08F002818BFA4
:104BA00001200290FFE70298C00700284CD0FFE7E1
:104BB0000B9800281AD0FFE71298C08E002815D055
:104BC000FFE712980068806810F0020F0ED0FFE730
:104BD0001198411C11910078129909680873129874
:104BE000C18E0139C18600200B90FFE71298C08F5B
:104BF000002815D0FFE712980068806810F0010FB8
:104C00000ED0FFE712980068C06810994A1C1092F5
:104C100008701298C18F0139C18701200B90FFE7FE
:104C20001898013000280ED0FFE7FCF74DFCDDF8A6
:104C300030E0A0EB0E00DDF860E0704503D3FFE745
:104C400003200A9033E0A0E7FFE71298189B0C9925
:104C50006A4611600221012203F014F9002803D0F2
:104C6000FFE703200A9022E0129818990C9A03F0AB
:104C7000DDF8002806D0FFE701200A9012982021D5
:104C8000816514E01298806800280FD1FFE7FFE7E4
:104C90000020099012980068C06809901298006876
:104CA0008068099009980190FFE7FFE7FFE71298F5
:104CB00001214165FFE7129800210165FFE70A988D
:104CC0001390FFE7139814B070BD000080B582B058
:104CD0000146019001980428009104D0FFE7019853
:104CE000002801D1FFE708E045F2FE60C0F60100B0
:104CF00040F2D91106F08EFFFFE70198042809D190
:104D0000FFE74EF21000CEF20000016841F004010E
:104D1000016008E04EF21000CEF20000016821F0C0
:104D200004010160FFE702B080BD00007047000091
:104D300080B582B0014601900198009103F012FA0B
:104D400002B080BD80B5FFF7F1FF80BD82B00146A3
:104D50000190009102B0704782B00146019000912D
:104D600002B0704780B584B00146029002980028D6
:104D7000019103D1FFE701200390DBE00298006876
:104D80000021C4F20101884272D0FFE70298006856
:104D9000B0F1804F6CD0FFE70298006840F200410C
:104DA000C4F20001884263D0FFE70298006840F631
:104DB0000001C4F2000188425AD0FFE7029800685F
:104DC00040F60041C4F20001884251D0FFE702984A
:104DD000006841F20001C4F20001884248D0FFE7B8
:104DE0000298006841F20041C4F2000188423FD0BD
:104DF000FFE70298006840F20041C4F201018842D6
:104E000036D0FFE70298006844F20001C4F20101C5
:104E100088422DD0FFE70298006844F20041C4F2B6
:104E20000101884224D0FFE70298006844F600019F
:104E3000C4F2010188421BD0FFE70298006841F6E6
:104E40000001C4F20001884212D0FFE70298006816
:104E500041F60041C4F20001884209D0FFE7029800
:104E6000006842F20001C4F20001884201D1FFE76C
:104E700007E045F21C60C0F60100D72106F0CAFE2B
:104E8000FFE702988068002814D0FFE70298806846
:104E900010280FD0FFE70298806820280AD0FFE78B
:104EA00002988068402805D0FFE702988068602853
:104EB00001D1FFE707E045F21C60C0F60100D821F0
:104EC00006F0A8FEFFE70298006900280CD0FFE773
:104ED00002980069B0F5807F06D0FFE7029800696C
:104EE000B0F5007F01D1FFE707E045F21C60C0F696
:104EF0000100D92106F08EFEFFE70298C06B002862
:104F000007D1FFE7029800218163029800F032F890
:104F1000FFE702980221C163029850F8041B009039
:104F20000846009903F014FA02980121C163002099
:104F30000390FFE7039804B080BD000080B582B005
:104F4000014601900198006842F20002C4F200029A
:104F5000904200910CD1FFE743F64000C4F20200FA
:104F6000016821F4807101602D20FCF7B3FEFFE79A
:104F700002B080BD80B586B00146059005980068F6
:104F800042F20002C4F20002904203911CD1FFE7FA
:104F9000FFE70020049043F64000C4F202000168DD
:104FA00041F480710160006800F4807004900498FE
:104FB0000290FFE72D20052100220190FCF7BAFEA8
:104FC0000198FCF79FFEFFE706B080BD82B0014666
:104FD0000190009102B0704780B582B00146019007
:104FE00001980068006900F002000022B2EB500F47
:104FF000009129D0FFE701980068C06800F0020026
:105000000021B1EB500F1ED0FFE7019800686FF050
:1050100002010161019801218161019800688069A4
:1050200010F0030F04D0FFE70198FFF7CFFF06E071
:10503000019800F017F9019800F01AF9FFE70198BC
:1050400000218161FFE7FFE701980068006900F037
:1050500004000021B1EB900F29D0FFE70198006810
:10506000C06800F004000021B1EB900F1ED0FFE7F4
:10507000019800686FF004010161019802218161CB
:1050800001980068806910F4407F04D0FFE7019820
:10509000FFF79CFF06E0019800F0E4F8019800F0AB
:1050A000E7F8FFE7019800218161FFE7FFE701983A
:1050B0000068006900F008000021B1EBD00F29D092
:1050C000FFE701980068C06800F008000021B1EB1C
:1050D000D00F1ED0FFE7019800686FF00801016152
:1050E00001980421816101980068C06910F0030FE4
:1050F00004D0FFE70198FFF769FF06E0019800F090
:10510000B1F8019800F0B4F8FFE70198002181613F
:10511000FFE7FFE701980068006900F01000002138
:10512000B1EB101F29D0FFE701980068C06800F0BC
:1051300010000021B1EB101F1ED0FFE7019800689E
:105140006FF01001016101980821816101980068E8
:10515000C06910F4407F04D0FFE70198FFF736FFE5
:1051600006E0019800F07EF8019800F081F8FFE772
:10517000019800218161FFE7FFE70198006800695D
:1051800010F0010F11D0FFE701980068C06810F01F
:10519000010F09D0FFE7019800686FF0010101617C
:1051A000019800F06BF8FFE7FFE7019800680069DD
:1051B00000F080000021B1EBD01F14D0FFE7019870
:1051C0000068C06800F080000021B1EBD01F09D05A
:1051D000FFE7019800686FF0800101610198FFF717
:1051E000B5FDFFE7FFE701980068006900F04000A7
:1051F0000021B1EB901F14D0FFE701980068C06850
:1052000000F040000021B1EB901F09D0FFE70198AA
:1052100000686FF040010161019800F043F8FFE77A
:10522000FFE701980068006900F020000021B1EB61
:10523000501F14D0FFE701980068C06800F02000FC
:105240000021B1EB501F09D0FFE7019800686FF013
:10525000200101610198FFF77FFDFFE7FFE702B042
:1052600080BD000082B001460190009102B07047FD
:1052700082B001460190009102B0704780B582B0C3
:105280000146019041F2C070C2F20000012202709A
:1052900041F26850C2F200000091FFF74FFE02B0E9
:1052A00080BD000082B001460190009102B07047BD
:1052B00082B001460190009102B0704780B58CB079
:1052C00001460B900B98006800680A900B980068E4
:1052D000C06809900B98006840690890002007900A
:1052E00006900A9800F00F00079007980028059193
:1052F00012D1FFE79DF82800800600280BD5FFE7B4
:105300009DF824008006002805D5FFE70B9803F0E0
:1053100063F90490E0E0FFE70798002800F0BA8006
:10532000FFE79DF82000C007002807D1FFE7BDF880
:10533000240010F4907F00F0AD80FFE79DF8280076
:10534000C00700280CD0FFE79DF82500C007002803
:1053500006D0FFE70B98416C41F001014164FFE783
:105360009DF82800400700280CD5FFE79DF8200095
:10537000C007002806D0FFE70B98416C41F00201FE
:105380004164FFE79DF82800800700280CD5FFE75F
:105390009DF82000C007002806D0FFE70B98416C5D
:1053A00041F004014164FFE79DF828000007002850
:1053B0000CD5FFE79DF82000C007002806D0FFE7C6
:1053C0000B98416C41F008014164FFE70B98406C79
:1053D00000285ED0FFE79DF82800800600280BD546
:1053E000FFE79DF824008006002805D5FFE70B980D
:1053F00003F0F2F80390FFE70B9800684069C0F3F0
:10540000801006900B98406C10F0080F04D1FFE755
:105410000698002833D0FFE70B9803F0B3F80B98F9
:105420000068406910F0400F24D0FFE70B98006837
:10543000416921F0400141610B98406B002814D074
:10544000FFE70B98406B48F26151C0F600014165DF
:105450000B98406BFBF7CCFB002805D0FFE70B98BF
:10546000406B416D8847FFE703E00B98FFF720FF93
:10547000FFE703E00B98FFF71BFFFFE708E00B983F
:10548000FFF716FF0B984FF0000EC0F844E0FFE75F
:10549000FFE721E09DF82800000600280BD5FFE774
:1054A0009DF824000006002805D5FFE70B9803F0BF
:1054B000ADFB029010E09DF82800400600280BD5B7
:1054C000FFE79DF824004006002805D5FFE70B986C
:1054D00003F06EF80190FFE70CB080BD80B584B09A
:1054E0000146029002980028019103D1FFE70120B4
:1054F0000390F6E002988069002850D0FFE70298F8
:10550000006841F20001C4F2010188421BD0FFE7AC
:105510000298006844F20041C4F20001884212D0AF
:10552000FFE70298006844F60001C4F200018842D7
:1055300009D0FFE70298006841F20041C4F201017E
:10554000884201D1FFE708E045F25460C0F601004F
:105550004FF4807106F05EFBFFE702988069002837
:1055600012D0FFE702988069B0F5807F0CD0FFE78A
:1055700002988069B0F5007F06D0FFE70298806945
:10558000B0F5407F01D1FFE708E045F25460C0F676
:10559000010040F2011106F03DFBFFE740E00298F8
:1055A000006841F20001C4F2010188422DD0FFE7FA
:1055B0000298006844F20041C4F20001884224D0FD
:1055C000FFE70298006844F60001C4F20001884237
:1055D0001BD0FFE70298006844F60041C4F20001C6
:1055E000884212D0FFE70298006845F20001C4F239
:1055F0000001884209D0FFE70298006841F20041AB
:10560000C4F20101884201D1FFE708E045F254608D
:10561000C0F6010040F2051106F0FCFAFFE7FFE7D3
:1056200002988068002806D0FFE702988068B0F5ED
:10563000805F01D1FFE708E045F25460C0F6010049
:1056400040F2071106F0E6FAFFE70298C069002869
:1056500006D0FFE70298C069B0F5004F01D1FFE71F
:1056600008E045F25460C0F601004FF4847106F082
:10567000D1FAFFE70298C06B002807D1FFE7029834
:1056800000218163029800F02FF8FFE7029824219F
:10569000C16302980068C16821F40051C16002989A
:1056A00003F00CF802980068016921F4904101614F
:1056B00002980068416921F02A014161029800685E
:1056C000C16841F40051C160029800214164029810
:1056D0004FF0200EC0F83CE00298C0F840E0039183
:1056E000FFE7039804B080BD80B58CB001460B90F5
:1056F0000B98006841F20002C4F20102904203914B
:1057000024D1FFE7FFE70020059043F64400C4F2F0
:105710000200016841F010010160006800F0100013
:10572000059005980290FFE7C020069002200790A0
:10573000012008900320099007200A9040F20040C1
:10574000C4F2020006A9FBF7D9FA37E00B9800680B
:1057500044F60001C4F2000188422ED1FFE7FFE7C2
:105760000020049043F64000C4F20200016841F4B6
:1057700080210160006800F480200490049801906A
:10578000FFE74FF440700690022007900120089038
:105790000320099007200A9040F60040C4F202005E
:1057A00006A9FBF7ABFA2720052100220090FCF7A1
:1057B000C1FA0098FCF7A6FAFFE7FFE70CB080BD3E
:1057C00080B587B013468C46864605900491ADF8A7
:1057D0000E200598006C20280293CDF804C0CDF867
:1057E00000E03FD1FFE70498002805D0FFE7BDF8AF
:1057F0000E00002803D1FFE70120069035E0FFE707
:105800000598806B012803D1FFE7022006902CE069
:10581000059801218163FFE7FFE7049805998862F5
:10582000BDF80E0005998885BDF80E000599C8855C
:10583000059800214164059822210164FFE705983D
:1058400000218163FFE705980068416941F001018B
:10585000416105980068C16841F49071C160002001
:10586000069002E002200690FFE7069807B080BD90
:1058700080B586B00146059041F2F050C2F20000BA
:1058800041F2D072C2F20002012304911146039248
:105890001A46FFF795FF0399029008460CF09AFD0F
:1058A00003990A780190104601F052F806B080BDC5
:1058B00082B001460190009102B07047FFE7FEE719
:1058C00083B00146019001980068406900F480604F
:1058D0000122B2EB902F009116D1FFE701980068EA
:1058E0006FF4806141610198042181640198002175
:1058F0000163019820210164FFE701980021C16341
:10590000FFE70120029002E000200290FFE70298EA
:1059100003B07047B0B58EB09C4696460C4605461F
:105920000C90ADF82E100A9209930C98C06A08905A
:105930000C980068016841F48061016008980428AF
:10594000CDF818C0CDF814E00494039509D0FFE712
:105950000898012805D0FFE7089810F5803F07D187
:10596000FFE70C980068016841F4807101600CE069
:105970000C98006B112807D1FFE70C9800680168AC
:1059800041F480710160FFE7FFE70C980A9B0999D9
:105990006A4611604FF00111002200F081F90028E1
:1059A00003D0FFE703200D9090E00C980069B0F55C
:1059B000804F08D1FFE79DF82E0040F001000C99C0
:1059C0000968086169E0BDF82E0000F44070F0211C
:1059D00041EAD0100C99096808610C980A9A099B51
:1059E0000821C0F2010100F0C1F900280BD0FFE747
:1059F0000C98806C042803D1FFE701200D9065E02E
:105A000003200D9062E09DF82E000C990968086152
:105A10000C980A9A099B0221C0F2010100F0A6F934
:105A200000280BD0FFE70C98806C042803D1FFE717
:105A300001200D904AE003200D9047E0FFE7002091
:105A400007900C980068406907900C98006880697E
:105A5000079007980290FFE70C980068016841F4EE
:105A6000807101600C980A9B09996A4611604FF099
:105A70000111002200F014F9002803D0FFE70320F1
:105A80000D9023E0BDF82E0000F44070F12141EAB2
:105A9000D0100C9909680861FFE70C980A9A099BD5
:105AA0000221C0F2010100F061F900280BD0FFE7EC
:105AB0000C98806C042803D1FFE701200D9005E0CD
:105AC00003200D9002E000200D90FFE70D980EB02E
:105AD000B0BD0000B0B58CB09C4696460C4605465D
