:020000040800F2
:10000000589100209D010008397A0008A16300087A
:10001000F9740008710E0008F5C80008000000001F
:10002000000000000000000000000000158D000826
:10003000750E000800000000E17C0008758D0008C6
:10004000B7010008B7010008B7010008B7010008B0
:10005000B7010008B7010008790E0008B7010008D1
:10006000B7010008B7010008B7010008B701000890
:10007000B7010008B7010008B7010008B701000880
:10008000B7010008B7010008B7010008B701000870
:10009000B7010008B7010008B7010008B701000860
:1000A000B7010008B7010008B7010008B701000850
:1000B000B7010008B7010008B7010008B701000840
:1000C000B7010008B7010008B7010008B701000830
:1000D000B7010008B7010008B70100087D980008C3
:1000E000850E0008B7010008B7010008B701000835
:1000F000B7010008F58E0008B7010008B701000835
:10010000B7010008B7010008B7010008B7010008EF
:10011000B7010008B7010008B7010008B7010008DF
:10012000B7010008B7010008B7010008B7010008CF
:10013000B7010008B7010008B7010008B7010008BF
:10014000B7010008B7010008B7010008B57B000837
:10015000B7010008B7010008B7010008B70100089F
:10016000B7010008B7010008B7010008B70100088F
:10017000B7010008B7010008B7010008000000003F
:10018000B7010008B7010008DFF80CD000F078FCD8
:1001900000480047590C0108589100200648804744
:1001A00006480047FEE7FEE7FEE7FEE7FEE7FEE75C
:1001B000FEE7FEE7FEE7FEE7858E000889010008FE
:1001C0002DE9F05F0546002092469B46884606468C
:1001D000814640241BE0284641464746224600F01F
:1001E000C8FA53465A46C01A914110D311461846D0
:1001F000224600F0AFFA2D1A67EB01084F4622465F
:100200000120002100F0A6FA17EB00094E41201E44
:10021000A4F10104DFDC484631462A464346BDE8E6
:10022000F09F2DE9F0410024061B254671F10006E0
:1002300005DA01240027D0EB070067EB0101161E49
:1002400073F1000605DA0027D2EB0702012567EB00
:100250000303FFF7B5FF86460E4617469C46AC42A1
:1002600004D00025D0EB050E65EB010624B100207B
:10027000D2EB000760EB030C704631463A4663460A
:10028000BDE8F08140EA01039B0703D009E008C9FB
:10029000121F08C0042AFAD203E011F8013B00F84B
:1002A000013B521EF9D27047D2B201E000F8012B97
:1002B000491EFBD270470022F6E710B513460A46E6
:1002C00004461946FFF7F0FF204610BD421C10F807
:1002D000011B0029FBD1801A7047CBB203E00178E3
:1002E000994203D0401C521EF9D20020704770B5CD
:1002F000064614F0F3FE046805460A220021304643
:1003000000F059FA2C6070BD2DE9FE4F804681EA5D
:100310000300C00F0C46009021F0004123F000457F
:10032000B8EB0200A94105D24046214690461C4642
:100330000B46024623F00040104347D0270DC7F379
:100340000A00C3F30A510290401A019040286BDA68
:10035000C3F3130040F4801B0098924620B10023A1
:10036000D2EB030A63EB0B0B01985946C0F1400234
:10037000504600F0EFF906460D4650465946019AA0
:1003800000F007FA10EB08006141002487EA1152DF
:1003900084EAE7731A4340D0009A62B3019A012AB3
:1003A0004FEA075215DC001B61EB02014FF00042DF
:1003B00002EA0752CDE90042001C41F580113246A5
:1003C0002B4600F076FA03B0BDE8F08F4046214698
:1003D000F9E7001B61EB0201001C41F580130018D6
:1003E0005B412018A2F5001747EB030140EAD570E6
:1003F000B6196D4111E06D084FEA360645EAC07541
:100400004FEA0752001B61EB0201001C41F580110D
:1004100049084FEA30000019514132462B4603B0DB
:10042000BDE8F04F00F036BA0098012240000023EA
:10043000D0EB020263EBE073009821464FEAE074D0
:10044000B8EB000061EB0401E9E783F000435BE7F0
:1004500081F0004158E72DE9FE4F81EA030404F0E2
:10046000004421F0004100944FF0000B23F00043C2
:1004700050EA01045ED052EA03045BD0C3F30A548D
:10048000C1F30A552C44A4F2F3340194A0FB0254A6
:10049000C1F3130141F48011C3F3130343F4801338
:1004A00001FB024400FB034E840A970A44EA81548C
:1004B00047EA8357A4FB076802958D0A05FB078569
:1004C0004FEA932C04FB0C542705029D4FEA065873
:1004D00047EA1637B5EB08056EEB070C870E920E50
:1004E00047EA811742EA8312A7FB0201B6EB0B0130
:1004F00064EB00042B0D43EA0C335E1844EB1C50F4
:10050000DA465146E7FB0201C5F313044FEA0B3309
:1005100043EA14534FEA0432019C43EA0603A4F170
:100520000C040294009CCDE900B400F0C2F903B0C1
:10053000BDE8F08F00200146F9E72DE9F04D81EA92
:10054000030404F0004B21F0004514464FF0000A6C
:1005500023F0004150EA050220D054EA01021DD0E8
:10056000C5F30A570246C5F31303C1F31300C1F3E1
:100570000A5640F4801543F48013A7EB0608101BBD
:10058000D64608F2FD3873EB050002D308F10108E6
:1005900001E092185B41B8F1000F03DA0020014638
:1005A000BDE8F08D00204FF48011064684460EE031
:1005B000171B73EB050705D3121B63EB05030643FB
:1005C0004CEA010C49084FEA300092185B4150EAAE
:1005D0000107EDD152EA030012D082EA040083EA57
:1005E0000501084305D0101BAB4106D201220023B0
:1005F00006E000224FF0004302E06FF001025310CA
:100600001AEB06004CEB085110EB0A0041EB0B0112
:10061000BDE8F04D00F03EB930B5041E71F10004A4
:1006200004DB4FF00044404264EB0101141E73F1FF
:10063000000405DB1C464FF00043524263EB040309
:1006400042404B401A4301D0002030BD012030BD54
:100650000EB5C10F80EAE0700844CA07002140F2DD
:1006600033438DE80E000A460B4600F022F903B032
:1006700000BD0EB540F2334102910021CDE90011D9
:100680000A460B4600F015F903B000BD70B5C1F382
:100690000A5201F000450024C1F3130140F2FF3378
:1006A00041F480119A4201DA002070BD40F23343D8
:1006B0009A42A2F2334203DC524200F05AF800E0C0
:1006C00090402C43F1D0404270BD00F0004230F029
:1006D00000400AD0C10D01F56071C0F3160042EA76
:1006E0000151C2084007114370470020014670477E
:1006F00001F0004330B421F0004150EA010206D07D
:100700000A0DA2F56072C1F31301002A02DC30BCAD
:1007100000207047440F44EAC104C100E01830BC17
:1007200000EBC25000F07FB830B50B460146002008
:100730002022012409E021FA02F59D4205D303FAA3
:1007400002F5491B04FA02F52844151EA2F1010224
:10075000F1DC30BD202A04DB203A00FA02F100204F
:1007600070479140C2F1200320FA03F319439040EF
:100770007047202A04DB203A21FA02F0002170475A
:1007800021FA02F3D040C2F12002914008431946F9
:100790007047202A06DBCB17203A41FA02F043EAE1
:1007A000E07306E041FA02F3D040C2F1200291402A
:1007B0000843194670472DE9F04791460F46804699
:1007C0000446002614F8015B2DB100F06BF90068B7
:1007D000405DC007F6D12B2D02D02D2D18D0641E00
:1007E0004A463946204600F061F927B13968A142EE
:1007F00001D1C7F8008071054FF002040BD54042CB
:10080000002803DD14F06AFC0460A007BDE8F0874F
:1008100046F48066E4E70028F8DA14F05FFC046030
:100820006FF00040F2E70029A8BF7047401C490064
:1008300008BF20F00100704710B4B0FA80FC00FA45
:100840000CF050EA010404BF10BC704749B1CCF170
:10085000200421FA04F411FA0CF118BF01212143FC
:100860000843A3EB0C01CB1D4FEA00614FEA1020B7
:1008700042BF002010BC704700EBC3501044002959
:10088000A4BF10BC7047401C490008BF20F0010005
:1008900010BC704710B5141E73F1000408DA401C38
:1008A00041F1000192185B411A4301D120F001008F
:1008B00010BD2DE9F04D92469B4611B1B1FA81F27F
:1008C00002E0B0FA80F220329046FFF743FF044680
:1008D0000F4640EA0A0041EA0B0153465A460843D4
:1008E00013D0114653EA010019D0C8F14002504616
:1008F000FFF73FFF05460E46504659464246FFF772
:1009000029FF084305D0012004E020463946BDE810
:10091000F08D0020054346EAE0762C4337430A98E1
:100920006305E40AA0EB08000022FD0A44EA4754EC
:100930000A3002D500200146E9E701051019694196
:10094000DDE9084500196941BDE8F04DA2E72DE950
:10095000F04D00231A461B1A8A4103DB0020014692
:10096000BDE8F08DC1F30A52C1F3130141F48015C3
:100970004FF0000BD10702D100186D41521E002725
:10098000044640F2FF11384601EB620A3E468046BB
:10099000024600204FF48011FFF7EBFEC2197141AF
:1009A000BB1846EB0100B4EB030C75EB000C04D351
:1009B000E41A65EB000517460E46241908F10100FC
:1009C0006D4180463428E3DDF91946EB0600091B2A
:1009D000A84103D24FF0FF32134601E00022134634
:1009E0001BEB070046EB0A51BDE8F04DFFF752BF85
:1009F000C1F30A52C1F3130140F2FF3341F48011F5
:100A00009A4202DA00200146704740F233439A428C
:100A1000A2F2334202DC5242FFF7ABBEFFF79ABEAE
:100A200030B5041E71F1000404DB4FF00044404275
:100A300064EB0101141E73F1000405DB1C464FF04A
:100A40000043524263EB04038B4208BF824230BD35
:100A500030B5041E71F1000404DB4FF00044404245
:100A600064EB0101141E73F1000405DB1C464FF01A
:100A70000043524263EB0403994208BF904230BDE9
:100A8000064C074D06E0E06840F0010394E80700DB
:100A900098471034AC42F6D3FFF77AFB7870010820
:100AA0009870010800487047CC6601082DE9F05F96
:100AB00082460078002715468B460AF10104B946A4
:100AC000302801D09DB113E014F8010B01277828DC
:100AD00003D0582801D045B10AE00DB1102D07D13F
:100AE0000027102514F8010B02E0082500E00A2574
:100AF0000026B0460EE005FB080005FB06F10127C5
:100B000001EB10461FFA80F8B6F5803F00D3B946D6
:100B100014F8010B294600F018F80028EBDABBF1B5
:100B2000000F05D00FB1641E00E05446CBF8004022
:100B3000B9F1000F06D014F0D1FA02210160C81EED
:100B4000BDE8F09F48EA0640FAE73A2800D230387C
:100B500020F02002412A01D3A2F13700884201D3BC
:100B60004FF0FF30704770B58C1810F8015B15F02E
:100B7000070301D110F8013B2A1106D110F8012B0F
:100B800003E010F8016B01F8016B5B1EF9D12B0734
:100B900005D40023521E0DD401F8013BFAE710F8EA
:100BA000013BCB1A921C03E013F8015B01F8015BD7
:100BB000521EF9D5A142D8D3002070BD80B586B0B1
:100BC00001460490049800224270049882700498B0
:100BD00040F6B052C2F20002426004981022027342
:100BE00004980022C4F202028260049840F6B942DE
:100BF000C0F600020261049840F69552C0F6000269
:100C00004261049840F6A542C0F600028261049851
:100C100001910DF067F88DF80F009DF90F00002885
:100C200004D0FFE7FC208DF8170036E0049902A8F5
:100C30000CF03CFF8DF80F009DF90F00002804D048
:100C4000FFE7FC208DF8170027E001208DF80B004E
:100C500002208DF809008DF8080000208DF80A00A8
:100C6000049902A80DF0B8F88DF80F00049903203C
:100C70000DF0C8F89DF80F1008438DF80F009DF98E
:100C80000F00002804D0FFE7FC208DF8170004E0D7
:100C90009DF80F008DF81700FFE79DF9170006B0CB
:100CA00080BD000080B582B001460190019800919E
:100CB00000F0C6F902B080BD2DE9F04103AF8EB05F
:100CC0009C4696460C46054607F80D0C07F80E1C88
:100CD00047F8142C27F8163C37F8160C411C6A46C6
:100CE00047F81C2C08304FF6F872C0F20102104091
:100CF0006A46101A854647F8201C37F8161C4A1C0D
:100D0000002147F8240C47F828CC47F82CEC47F88A
:100D1000304C47F8345CFFF7E0FA17F80E1C57F830
:100D2000242C02F8011B57F8141C37F8163C47F81E
:100D3000380C104647F83C2C1A46FFF7A3FA47F840
:100D4000400C0DF041F937F8160C013082B240F634
:100D5000B050C2F20000642357F8241C03F0DCFFFB
:100D600007F8170C0DF03AF957F8140C37F8162C51
:100D700057F83C1CFFF786FA57F81C1C17F9172C7C
:100D80008D4647F8440C1046A7F10C04A546BDE873
:100D9000F08100002DE9F04103AF8EB09C469646ED
:100DA0000C46054607F80D0C07F80E1C47F8142CE6
:100DB00027F8163C37F8160C411C6A4647F81C2CDD
:100DC00008304FF6F872C0F2010210406A46101A5D
:100DD000854647F8201C37F8161C4A1C002147F8A6
:100DE000240C47F828CC47F82CEC47F8304C47F84F
:100DF000345CFFF772FA17F80E1C57F8242C02F82F
:100E0000011B57F8141C37F8163C47F8380C1046ED
:100E100047F83C2C1A46FFF735FA47F8400C0DF01E
:100E2000D3F837F8160C013082B240F6B050C2F257
:100E30000000642357F8241C04F0AAF807F8170CE4
:100E40000DF0CCF857F8140C37F8162C57F83C1C5A
:100E5000FFF718FA57F81C1C17F9172C8D4647F89E
:100E6000440C1046A7F10C04A546BDE8F081000033
:100E7000FFE7FEE77047000080B5012000F028F989
:100E800080BD000080B54FF4804000F021F980BDA6
:100E900080B584B00A4603460390029103980299F4
:100EA0004FF0000C01926246009300F003F804B08A
:100EB00080BD000080B586B013468C4686460590FE
:100EC00004918DF80F2001208DF80E0000208DF880
:100ED0000D0040F21070C2F20000407A0028029328
:100EE000CDF804C0CDF800E026DCFFE740F210703A
:100EF000C2F20000417A002242540599437A00EB85
:100F0000830359609DF80F10437A03441972417AA4
:100F10004B1C43728DF80D109DF80D003030049974
:100F2000087004983A21417004982F218170049828
:100F3000C2708DF80E20FFE79DF80E0006B080BD50
:100F400080B584B00146029002980028019104D136
:100F5000FFE701208DF80F0027E00298006843F2B8
:100F60000001C4F20201884201D1FFE707E046F622
:100F70004860C0F6010077210BF0C8FCFFE702983B
:100F80004079002807D1FFE70298002101710298FB
:100F900000F010F8FFE70298022141710298012148
:100FA000417100208DF80F00FFE79DF80F0004B09D
:100FB00080BD000084B0014603900398006843F2AE
:100FC0000002C4F202029042019113D1FFE7FFE751
:100FD0000020029043F63000C4F20200016841F4A0
:100FE00080510160006800F48050029002980090E7
:100FF000FFE7FFE704B0704783B001460190019816
:1010000090F835000228009107D0FFE70198802171
:10101000416501208DF80B000EE00198052180F854
:10102000351001980068016821F001010160FFE7B7
:1010300000208DF80B00FFE79DF80B0003B0704710
:1010400080B584B001460390009100F049FC029005
:101050000398019001980130002809D0FFE740F281
:101060004410C2F200000078019908440190FFE7A3
:10107000FFE700F035FCDDF808E0A0EB0E00DDF83E
:1010800004E0704501D2FFE7F3E704B080BD000043
:1010900080B582B00146ADF80600BDF80600012813
:1010A000009107D1FFE741F2AC00C2F2000012F05C
:1010B00043FE0AE0BDF80600B0F5804F04D1FFE71B
:1010C00011F022FD00BFFFE7FFE702B080BD000086
:1010D00080B582B00146ADF8060043F61440C4F274
:1010E00001000068BDF80620104200910CD0FFE717
:1010F000BDF8060043F61441C4F201010860BDF8D2
:101100000600FFF7C5FFFFE702B080BD80B592B0D3
:101110000A4603461190109100200E900D900C90FD
:1011200011980021C4F2020188420A92099340D02A
:10113000FFE7119840F20041C4F20201884238D022
:10114000FFE7119840F60001C4F20201884230D056
:10115000FFE7119840F60041C4F20201884228D00E
:10116000FFE7119841F20001C4F20201884220D049
:10117000FFE7119841F20041C4F20201884218D001
:10118000FFE7119841F60001C4F20201884210D035
:10119000FFE7119841F60041C4F20201884208D0ED
:1011A000FFE7119842F20001C4F20201884201D126
:1011B000FFE707E046F69970C0F60100C3210BF087
:1011C000A5FBFFE710980088002806D0FFE71098DD
:1011D0004088002801D1FFE707E046F69970C0F685
:1011E0000100C4210BF092FBFFE710984068002833
:1011F00049D0FFE710984068012844D0FFE71098D5
:10120000406811283FD0FFE71098406802283AD084
:10121000FFE710984068122835D0FFE71098406823
:101220000021C1F2110188422DD0FFE710984068DB
:101230000021C1F22101884225D0FFE710984068C3
:101240000021C1F2310188421DD0FFE710984068AB
:101250000021C1F21201884215D0FFE710984068C2
:101260000021C1F2220188420DD0FFE710984068AA
:101270000021C1F23201884205D0FFE71098406892
:10128000032801D1FFE707E046F69970C0F6010098
:10129000C5210BF03BFBFFE71098806800280AD0BF
:1012A000FFE710988068012805D0FFE71098806854
:1012B000022801D1FFE707E046F69970C0F6010069
:1012C000C6210BF023FBFFE700200F90FFE70F98EC
:1012D0000F2800F2BB82FFE70F98012101FA00F00E
:1012E0000E90109800680E9908400D900D980E9978
:1012F000884240F0A682FFE710984068022806D096
:10130000FFE710984068122840F0F080FFE710983F
:101310000069002800F0B980FFE7109800690928EB
:1013200000F0B380FFE710980069002800F0AD805E
:10133000FFE710980069002800F0A780FFE71098E9
:101340000069002800F0A180FFE7109800690028DC
:1013500000F09B80FFE710980069012800F095805D
:10136000FFE710980069012800F08F80FFE71098D0
:101370000069022800F08980FFE7109800690228C0
:1013800000F08380FFE71098006902287DD0FFE716
:1013900010980069032878D0FFE7109800690428A6
:1013A00073D0FFE71098006904286ED0FFE710980B
:1013B0000069042869D0FFE710980069052864D007
:1013C000FFE71098006905285FD0FFE710980069D3
:1013D00009285AD0FFE710980069062855D0FFE782
:1013E00010980069092850D0FFE710980069072875
:1013F0004BD0FFE710980069072846D0FFE7109808
:101400000069072841D0FFE71098006908283CD000
:10141000FFE710980069082837D0FFE710980069A7
:10142000082832D0FFE71098006909282DD0FFE77F
:1014300010980069092828D0FFE7109800690A2849
:1014400023D0FFE7109800690A281ED0FFE7109804
:1014500000690B2819D0FFE7109800690C2814D0F8
:10146000FFE7109800690C280FD0FFE7109800697B
:101470000D280AD0FFE7109800690C2805D0FFE777
:10148000109800690F2801D1FFE707E046F6997030
:10149000C0F60100D7210BF039FAFFE711980F9938
:1014A0004FF6FC72C7F6FF7202EA51010844006A67
:1014B0000C900F9800F0070080000F2101FA00F057
:1014C0000C9921EA00000C90109800690F9901F026
:1014D0000701890088400C9908430C900C981199D9
:1014E0000F9B02EA530211440862FFE7119800685B
:1014F0000C900F984000032101FA00F00C9921EAAA
:1015000000000C901098406800F003000F9949000B
:1015100088400C9908430C900C9811990860109819
:10152000406801280FD0FFE71098406802280AD0D1
:10153000FFE710984068112805D0FFE71098406831
:1015400012284CD1FFE71098C06800280FD0FFE7A1
:101550001098C06801280AD0FFE71098C0680228D8
:1015600005D0FFE71098C068032801D1FFE707E026
:1015700046F69970C0F60100EA210BF0C7F9FFE7C3
:10158000119880680C900F984000032101FA00F038
:101590000C9921EA00000C901098C0680F9949003E
:1015A00088400C9908430C900C9811998860119808
:1015B00040680C900F98012101FA00F00C9921EA83
:1015C00000000C9010984068C0F300100F998840FC
:1015D0000C9908430C900C9811994860FFE71198FA
:1015E000C0680C900F984000032101FA00F00C999C
:1015F00021EA00000C90109880680F9949008840FB
:101600000C9908430C900C981199C8601098406888
:10161000C000002840F11481FFE7FFE700200B9095
:1016200043F64400C4F20200016841F480410160C5
:10163000006800F480400B900B980890FFE70F982B
:1016400020F0030043F60801C4F2010140580C9059
:101650000F9800F0030080000F2101FA00F00C99B0
:1016600021EA00000C9011980021C4F20201884286
:1016700003D1FFE7002007905EE0119840F200419F
:10168000C4F20201884203D1FFE70120069050E036
:10169000119840F60001C4F20201884203D1FFE72D
:1016A0000220059042E0119840F60041C4F2020188
:1016B000884203D1FFE70320049034E0119841F2FF
:1016C0000001C4F20201884203D1FFE70420039025
:1016D00026E0119841F20041C4F20201884203D190
:1016E000FFE70520029018E0119841F60001C4F2CE
:1016F0000201884203D1FFE7062001900AE0119819
:1017000041F60041C4F202010822884208BF0722C4
:101710000192FFE701980290FFE702980390FFE72C
:1017200003980490FFE704980590FFE7059806905A
:10173000FFE706980790FFE70798C0B20F9901F0FE
:101740000301890088400C9908430C900C980F996C
:1017500021F0030143F60802C4F20102885043F667
:101760000040C4F2010000680C900D980C9921EA29
:1017700000000C9010984068C003002805D5FFE7D2
:101780000D980C9908430C90FFE70C9843F6004124
:10179000C4F20101086043F60440C4F2010000688D
:1017A0000C900D980C9921EA00000C90109840685C
:1017B0008003002805D5FFE70D980C9908430C908D
:1017C000FFE70C9843F60441C4F20101086043F6B8
:1017D0000840C4F2010000680C900D980C9921EAB1
:1017E00000000C9010984068C002002805D5FFE763
:1017F0000D980C9908430C90FFE70C9843F60841AC
:10180000C4F20101086043F60C40C4F20100006814
:101810000C900D980C9921EA00000C9010984068EB
:101820008002002805D5FFE70D980C9908430C901D
:10183000FFE70C9843F60C41C4F201010860FFE792
:10184000FFE7FFE70F9801300F9040E512B080BD31
:1018500080B586B013468C4686460590ADF81210CA
:101860008DF81120BDF8120000280393CDF808C0B0
:10187000CDF804E005D0FFE70020002801D1FFE704
:1018800008E046F69970C0F6010040F2AF110BF087
:101890003DF8FFE79DF81100002805D0FFE79DF80F
:1018A0001100012801D1FFE708E046F69970C0F663
:1018B00001004FF4D8710BF029F8FFE79DF81100F3
:1018C000002805D0FFE7BDF812000599886105E002
:1018D000BDF81200000405998861FFE706B080BDDD
:1018E00041F24C10C2F200000068704780B58EB023
:1018F00001460C9000200B900A900C98002809914A
:1019000004D1FFE701208DF83700A0E10C980068B2
:1019100045F20041C4F20001884212D0FFE70C9862
:10192000006845F60001C4F20001884209D0FFE7D3
:101930000C98006845F60041C4F20001884201D1CC
:10194000FFE708E046F68060C0F601004FF4B7718B
:101950000AF0DCFFFFE70C98406800280AD0FFE798
:101960000C98406841F68021C0F20601884201D8F7
:10197000FFE708E046F68060C0F6010040F26F1114
:101980000AF0C4FFFFE70C988068002806D0FFE744
:101990000C988068B0F5804F01D1FFE708E046F66B
:1019A0008060C0F601004FF4B8710AF0AFFFFFE7A6
:1019B0000C98C068800A002801D1FFE708E046F6CD
:1019C0008060C0F6010040F271110AF09FFFFFE74E
:1019D0000C980069B0F5804F06D0FFE70C980069BD
:1019E000B0F5404F01D1FFE708E046F68060C0F651
:1019F00001004FF4B9710AF089FFFFE70C984069C4
:101A0000002805D0FFE70C984069012801D1FFE7C5
:101A100008E046F68060C0F6010040F273110AF05B
:101A200075FFFFE70C9880696FF0FE01084201D155
:101A3000FFE708E046F68060C0F601004FF4BA7197
:101A40000AF064FFFFE70C98C069002805D0FFE7A3
:101A50000C98C069402801D1FFE708E046F6806095
:101A6000C0F6010040F275110AF050FFFFE70C9834
:101A7000006A002805D0FFE70C98006A802801D191
:101A8000FFE708E046F68060C0F601004FF4BB7146
:101A90000AF03CFFFFE70C9890F83D00002808D1C1
:101AA000FFE70C98002180F83C100C9800F042FCF5
:101AB000FFE70C98242180F83D100C98006801681D
:101AC00021F00101016002F041FA0A900A984DF6F6
:101AD0008361C4F21B31A0FB0101890C0B910B99AE
:101AE000DDF830E0DEF800E0CEF804100C9949682B
:101AF00048F2A06EC0F2010E7145089004D8FFE7CD
:101B00000B98013007900FE00B984FF49671484303
:101B100044F6D351C1F26201A0FB0101012202EBA4
:101B2000911106900791FFE707980C9909680862E0
:101B30000C98406848F2A061C0F20101884219D8AF
:101B4000FFE70A980C9949684900B0FBF1F06FF380
:101B50001F30032803D8FFE70420059007E00A9808
:101B60000C9949684900B0FBF1F00590FFE7059832
:101B7000049041E00C988068002809D1FFE70A989A
:101B80000C99496801EB4101B0FBF1F003900AE0C8
:101B90000A980C99496819225143B0FBF1F040F4BE
:101BA00080400390FFE703980005002803D1FFE77A
:101BB000012002901DE00C988068002809D1FFE701
:101BC0000A980C99496801EB4101B0FBF1F00190D2
:101BD0000AE00A980C99496819225143B0FBF1F0C8
:101BE00040F480400190FFE7019840F400400290EB
:101BF000FFE702980490FFE704980C990968C86110
:101C00000C980168C269006A104308600C9801686A
:101C1000C2680069104388600C9801684269806955
:101C20001043C8600C980068016841F00101016030
:101C30000C98002101640C98202280F83D200C981B
:101C400001630C9880F83E108DF83710FFE79DF87F
:101C500037000EB080BD000070B594B0DDF860C0F4
:101C60009E4614460D4606461290ADF84610109258
:101C7000ADF83E3000200E90CDF824E00894079592
:101C80000696CDF814C0FFF72BFE0E90129890F830
:101C90003D00202840F01482FFE712980E996A4612
:101CA00011600221C0F210010122192304F086FD07
:101CB000002804D0FFE702208DF84F0004E2FFE780
:101CC000129890F83C00012804D1FFE702208DF81B
:101CD0004F00F9E11298012180F83C10FFE7FFE77F
:101CE00012980068006810F0010F07D1FFE7129802
:101CF0000068016841F001010160FFE71298006887
:101D0000016821F4006101601298222180F83D10E1
:101D10001298102180F83E1012980021016410984A
:101D200012994862BDF83E00129948851298002128
:101D3000CFF6FF71C1621298408D129908851298F2
:101D4000189A0E9BBDF8461004F05CFB002819D0D1
:101D5000FFE71298006C04280AD1FFE7FFE712980A
:101D6000002180F83C10FFE701208DF84F00ABE127
:101D7000FFE71298002180F83C10FFE703208DF860
:101D80004F00A1E11298008D002815D1FFE7FFE771
:101D900000200D901298006840690D90129800681C
:101DA00080690D900D980490FFE712980068016813
:101DB00041F40071016056E01298008D01281BD19A
:101DC000FFE712980068016821F480610160FFE775
:101DD00000200C901298006840690C9012980068DE
:101DE00080690C900C980390FFE7129800680168D6
:101DF00041F40071016035E01298008D02281BD17A
:101E0000FFE712980068016821F480610160129870
:101E10000068016841F400610160FFE700200B9059
:101E20001298006840690B901298006880690B90C6
:101E30000B980290FFE714E012980068016841F4E3
:101E400080610160FFE700200A90129800684069F5
:101E50000A901298006880690A900A980190FFE73A
:101E6000FFE7FFE7FFE7FFE71298008D002800F08B
:101E70001581FFE71298008D032800F2CD80FFE75F
:101E80001298008D012826D1FFE7129818990E9A12
:101E900004F08CFD00280DD0FFE71298006C20287C
:101EA00004D1FFE703208DF84F000DE101208DF8EC
:101EB0004F0009E112980068006912994A6A531CA0
:101EC0004B6210701298018D013901851298418D75
:101ED000013941859FE01298008D022839D1FFE732
:101EE0001298189B0E996A4611600421C0F20101F4
:101EF000002204F063FC002804D0FFE703208DF8E3
:101F00004F00E1E012980068016841F4007101603F
:101F100012980068006912994A6A531C4B6210704B
:101F20001298018D013901851298418D0139418541
:101F300012980068006912994A6A531C4B6210702B
:101F40001298018D013901851298418D0139418521
:101F500060E01298189B0E996A4611600421C0F245
:101F60000101002204F02AFC002804D0FFE703202E
:101F70008DF84F00A8E012980068016821F4806194
:101F8000016012980068006912994A6A531C4B62FA
:101F900010701298018D013901851298418D013917
:101FA00041851298189B0E996A4611600421C0F26F
:101FB0000101002204F002FC002804D0FFE7032006
:101FC0008DF84F0080E012980068016841F40071BC
:101FD000016012980068006912994A6A531C4B62AA
:101FE00010701298018D013901851298418D0139C7
:101FF000418512980068006912994A6A531C4B6225
:1020000010701298018D013901851298418D0139A6
:102010004185FFE7FFE740E0129818990E9A04F017
:10202000C5FC00280DD0FFE71298006C202804D1D1
:10203000FFE703208DF84F0046E001208DF84F00A8
:1020400042E012980068006912994A6A531C4B6278
:1020500010701298018D013901851298418D013956
:10206000418512980068406900F004000121B1EB3D
:10207000900F11D1FFE712980068006912994A6A1F
:10208000531C4B6210701298018D01390185129812
:10209000418D01394185FFE7FFE7E5E612982021F0
:1020A00080F83D101298002180F83E10FFE712984A
:1020B000002180F83C10FFE700208DF84F0003E07E
:1020C00002208DF84F00FFE79DF84F0014B070BD5F
:1020D00070B58EB0DDF848C09E4614460D460646E3
:1020E0000C90ADF82E100A92ADF826300020089022
:1020F000CDF818E0059404950396CDF808C0FFF7D5
:10210000EFFB08900C9890F83D00202840F00981E2
:10211000FFE70C9808996A4611600221C0F210018D
:102120000122192304F04AFB002804D0FFE7022013
:102130008DF83700F9E0FFE70C9890F83C00012893
:1021400004D1FFE702208DF83700EEE00C98012162
:1021500080F83C10FFE7FFE70C980068006810F07B
:10216000010F07D1FFE70C980068016841F00101F9
:102170000160FFE70C980068016821F400610160CC
:102180000C98212180F83D100C98102180F83E1009
:102190000C98002101640A980C994862BDF8260049
:1021A0000C9948850C980021CFF6FF71C1620C98FC
:1021B000408D0C9908850C98129A089BBDF82E103A
:1021C00004F00AFA002819D0FFE70C98006C0428E4
:1021D0000AD1FFE7FFE70C98002180F83C10FFE7E9
:1021E00001208DF83700A0E0FFE70C98002180F86F
:1021F0003C10FFE703208DF8370096E0FFE7002052
:1022000007900C980068406907900C9800688069F6
:10221000079007980190FFE7FFE70C98008D0028D2
:1022200067D0FFE70C981299089A04F025FC002863
:1022300013D0FFE70C98006C04280AD1FFE70C9834
:102240000068016841F40071016001208DF83700D9
:102250006BE003208DF8370067E00C98416A4A1C58
:10226000426208780C99096808610C98418D01391F
:1022700041850C98018D013901850C9800684069F1
:1022800000F004000121B1EB900F16D1FFE70C988C
:10229000008D002811D0FFE70C98416A4A1C426269
:1022A00008780C99096808610C98418D01394185BD
:1022B0000C98018D01390185FFE70C981299089A55
:1022C00004F026FA002813D0FFE70C98006C0428CD
:1022D0000AD1FFE70C980068016841F400710160C1
:1022E00001208DF8370020E003208DF837001CE036
:1022F00093E70C980068016841F4007101600C9844
:10230000202180F83D100C98002180F83E10FFE756
:102310000C98002180F83C10FFE700208DF8370072
:1023200003E002208DF83700FFE79DF837000EB07C
:1023300070BD000080B58EB001460D900D9800680C
:1023400045F60042C4F20002904206913FD1FFE7F9
:102350004FF4007008901220099001210A91032285
:102360000B9204230C9340F6000CC4F2020C0DF106
:10237000200E0590604604917146CDF80CE0029362
:102380000192FEF7C3FE4FF4807008900598099003
:1023900004990A91019A0B92029B0C930020C4F2BB
:1023A00002000399FEF7B2FEFFE70020079043F614
:1023B0004000C4F20200016841F4000101600068BD
:1023C00000F40000079007980090FFE7FFE70EB0C9
:1023D00080BD000040F24410C2F20000007841F2DB
:1023E0004C11C2F200010A681044086070470000F6
:1023F00080B582B043F60040C4F20200016841F4A7
:1024000000710160016841F480610160016841F47C
:1024100080710160032000F013F90020019000F0AA
:1024200007F8009000F040F8019802B080BD00006D
:1024300080B584B00146029040F23C00C2F2000038
:10244000006840F24412C2F2000212784FF47A732C
:10245000B3FBF2F2B0FBF2F0019103F02DF900288A
:1024600004D0FFE701208DF80F0018E002980F2834
:102470000DD8FFE702994FF0FF30002200F0A2F8DC
:10248000029840F24811C2F20001086003E0012006
:102490008DF80F0003E000208DF80F00FFE79DF896
:1024A0000F0004B080BD000080B586B0FFE70020BB
:1024B000059043F64400C4F20200016841F48041F3
:1024C0000160006800F48040059005980390FFE7E4
:1024D000FFE70020049043F64000C4F202000168C8
:1024E00041F080510160006800F080500490049831
:1024F0000290FFE7032000F0A3F86FF00B004FF00D
:10250000000E71467246CDF804E000F05BF86FF003
:102510000A000199019A00F055F86FF0090001993D
:10252000019A00F04FF86FF004000199019A00F051
:1025300049F86FF003000199019A00F043F86FF039
:1025400001000199019A00F03DF84FF0FF30019928
:10255000019A00F037F806B080BD000080B582B067
:1025600001468DF807009DF907000028009101DB66
:10257000FFE707E046F6D270C0F60100DE210AF060
:10258000C5F9FFE79DF9070005F05AFA02B080BDD2
:1025900080B582B001468DF807009DF9070000283C
:1025A000009101DBFFE707E046F6D270C0F60100BC
:1025B000CE210AF0ABF9FFE79DF9070005F056FAC6
:1025C00002B080BD80B58AB013468C4686468DF831
:1025D0002700089107920020069007980F2805937E
:1025E000CDF810C0CDF80CE001D8FFE707E046F6C3
:1025F000D270C0F60100BA210AF088F9FFE7089806
:102600000F2801D8FFE707E046F6D270C0F60100B8
:10261000BB210AF07BF9FFE705F07EFA06900698E9
:102620000899079A9DF927E0CDF808E005F034FAFB
:10263000029901900846019905F076FA0AB080BD2A
:1026400080B582B00146019001980728009110D012
:10265000FFE7019806280CD0FFE70198052808D06D
:10266000FFE70198042804D0FFE70198032801D16F
:10267000FFE707E046F6D270C0F60100A2210AF09B
:1026800045F9FFE7019805F075FA02B080BD00003A
:1026900084B00A4603460390ADF80A10BDF80A005C
:1026A00003990968486200200192009304B07047C2
:1026B00080B587B013468C46864606908DF8171075
:1026C000ADF8142000208DF81300039006980068E0
:1026D000406A03909DF8170000280293CDF804C0CB
:1026E000CDF800E009D1FFE7BDF81400039941EAF5
:1026F000004006990968886233E006980068806A9D
:10270000039901EB1040039000208DF81300FFE7C0
:102710009DF813009DF817100139884213DAFFE77E
:10272000069800689DF8131000EB8100D0F80401B2
:10273000039901EB10400390FFE79DF8130001306F
:102740008DF81300E4E7BDF81400039941EA004056
:10275000069909689DF8172001EB8201C1F8000174
:10276000FFE7002007B080BD80B584B0014603902C
:102770000398D0F8EC03029107F01EFE019004B01C
:1027800080BD000080B586B00A46034605908DF8EE
:1027900013100598D0F8EC139DF813C0CCEBCC0EB9
:1027A00000EB8E00406C039008466146DDF80CC0DB
:1027B00002926246019307F0D9FC009006B080BDFA
:1027C00080B586B00A46034605908DF8131005982B
:1027D000D0F8EC139DF813C0CCEBCC0E00EB8E00C0
:1027E000D0F80402039008466146DDF80CC002925E
:1027F0006246019307F066FD009006B080BD0000C0
:1028000080B584B0014603900398D0F8EC030291A0
:1028100007F0DAFD019004B080BD000080B588B0FB
:102820000A46034606908DF817109DF8170000061B
:102830000028039202930CD5FFE706989DF8171025
:1028400001F07F01C1EBC10100EB81003830049041
:102850000CE006989DF8171001F07F01C1EBC10153
:1028600000EB810000F5FC700490FFE79DF8170075
:1028700000F07F00049908709DF81700C0090499C2
:102880004870FFE7069890F8B803012804D1FFE7E5
:1028900002208DF81F0015E00698012180F8B8137A
:1028A000FFE7FFE706980068049908F03DFF0190F4
:1028B000FFE70698002180F8B813FFE700208DF8A5
:1028C0001F00FFE79DF81F0008B080BD80B588B0ED
:1028D0000A46034606908DF817109DF8170000066B
:1028E0000028039202930CD5FFE706989DF8171075
:1028F00001F07F01C1EBC10100EB81003830049091
:102900000AE006989DF81710C1EBC10100EB8100A9
:1029100000F5FC700490FFE70498002181709DF899
:10292000170000F07F00049908709DF81700C00997
:1029300004994870FFE7069890F8B803012804D17D
:10294000FFE702208DF81F0015E00698012180F8AE
:10295000B813FFE7FFE706980068049909F03AFA10
:102960000190FFE70698002180F8B813FFE70020E8
:102970008DF81F00FFE79DF81F0008B080BD000024
:1029800080B588B00A46034606908DF81710049269
:102990000393FFE7069890F8B803012804D1FFE7F6
:1029A00002208DF81F0025E00698012180F8B81359
:1029B000FFE7FFE79DF81700000600280AD5FFE7AC
:1029C000069800689DF8171001F07F0109F082FC5D
:1029D000029005E00698006809F054FC0190FFE7BA
:1029E000FFE70698002180F8B813FFE700208DF874
:1029F0001F00FFE79DF81F0008B080BD84B00A46A5
:102A0000034603908DF80B1003989DF80B1001F00E
:102A10000F01C1EBC10100EB8100B0F8100201927F
:102A2000009304B070470000B0B58AB09C4696464B
:102A30000C46054608908DF81F10ADF81C208DF847
:102A40001B3000208DF81A009DF81F00000600289A
:102A5000CDF810C0CDF80CE0029401950CD5FFE73D
:102A600008989DF81F1001F07F01C1EBC10100EB38
:102A70008100383005900CE008989DF81F1001F097
:102A80007F01C1EBC10100EB810000F5FC700590F6
:102A9000FFE79DF81F0000F07F00059908709DF882
:102AA0001F00C00905994870BDF81C000599886091
:102AB0009DF81B000599C87005984078002804D03F
:102AC000FFE705980178C180FFE79DF81B00022809
:102AD00004D1FFE7059800210171FFE7FFE708989F
:102AE00090F8B803012804D1FFE702208DF82700F1
:102AF00016E00898012180F8B813FFE7FFE708986F
:102B00000068059908F0C2FC0090FFE708980021D2
:102B100080F8B813FFE79DF81A008DF82700FFE74B
:102B20009DF827000AB0B0BDB0B58EB09C46964661
:102B30000C4605460D908DF833100B920A930D98B4
:102B40009DF8331001F07F01C1EBC10100EB810062
:102B500000F5FC7009900B980999C8600A980999CA
:102B60004861099800218161099841709DF83300FE
:102B700000F07F00099908700D9800690128CDF8D0
:102B800020C0CDF81CE00694059504D1FFE70B9812
:102B900009990861FFE79DF83300400600280CD131
:102BA000FFE70D980168099A007C049008461146D9
:102BB000049A08F0E1FF03900BE00D980168099A70
:102BC000007C029008461146029A09F0ADF9019086
:102BD000FFE700200EB0B0BD80B58AB00A460346BC
:102BE00008908DF81F109DF81F0000060028059220
:102BF00004930CD5FFE708989DF81F1001F07F01A2
:102C0000C1EBC10100EB8100383006900AE0089862
:102C10009DF81F10C1EBC10100EB810000F5FC70B5
:102C20000690FFE70698012181709DF81F0000F0D3
:102C30007F00069908709DF81F00C009069948702A
:102C4000FFE7089890F8B803012804D1FFE70220B5
:102C50008DF8270027E00898012180F8B813FFE7D6
:102C6000FFE708980068069909F008F99DF81F1019
:102C70004906002903900CD1FFE70898016800F588
:102C80006F72007C02900846029909F069F8019081
:102C9000FFE7FFE70898002180F8B813FFE700205E
:102CA0008DF82700FFE79DF827000AB080BD0000DF
:102CB000B0B58EB09C4696460C4605460D908DF8F4
:102CC00033100B920A930D989DF8331001F07F0199
:102CD000C1EBC10100EB8100383009900B980999D4
:102CE000C8600A980999486109980021816109988A
:102CF000012141709DF8330000F07F0009990870B0
:102D00000D9800690128CDF820C0CDF81CE006948C
:102D1000059504D1FFE70B9809990861FFE79DF835
:102D20003300400600280CD1FFE70D980168099A8E
:102D3000007C049008461146049A08F01DFF039099
:102D40000BE00D980168099A007C02900846114634
:102D5000029A09F0E9F80190FFE700200EB0B0BD3B
:102D600080B596B001461590159800681490002023
:102D700013901290119010900F900E9049F2005005
:102D8000C0F6BA200C90159800680B9109F008FB6A
:102D9000002840F02384FFE71598006809F070FBD5
:102DA000002802D1FFE700F019BC1598006809F06F
:102DB00067FB10F0020F07D0FFE715980068416924
:102DC00001F002014161FFE71598006809F058FB26
:102DD00010F4002F00F0A280FFE70020109015985B
:102DE000006809F0F9FA1290FFE71298002800F045
:102DF0009480FFE79DF84800C007002800F0868017
:102E0000FFE7159800689DF8401009F01FFB11902E
:102E10001198C007002859D0FFE71498109900EBCB
:102E200041100121C0F8081B15980069012826D11E
:102E3000FFE715981099C1EBC10200EB8200D0F8B2
:102E40000002149A02EB4111D1F8101B6FF3DF411D
:102E5000401A1599109AC2EBC20201EB8201C1F827
:102E6000100215981099C1EBC10100EB8100D0F858
:102E70000012D0F804221144C0F80412FFE715989C
:102E80009DF84010FFF79CFC1598006901281CD1A3
:102E9000FFE71098002817D1FFE715981099C1EBAC
:102EA000C10100EB8100D0F80C0200280CD1FFE733
:102EB0001598016800F56F7201200A9008460A997A
:102EC00008F04EFF0990FFE7FFE7FFE711980007C2
:102ED00000280DD5FFE7159800F0A6FD1498DDF841
:102EE00040E000EB4E104FF0080EC0F808EBFFE793
:102EF0001198C006002808D5FFE71498109900EB38
:102F000041101021C0F8081BFFE7FFE710980130BF
:102F1000109012984008129067E7FFE71598006834
:102F200009F0AEFA10F4802F00F0B280FFE7159898
:102F3000006809F03FFA129000201090FFE7129805
:102F4000002800F0A480FFE79DF84800C007002893
:102F500000F09680FFE7159800689DF8401009F092
:102F60004DFA11901198C007002849D0FFE710983A
:102F7000012101FA00F00F900F98149AD2F834381A
:102F800023EA0000C2F834081498109A00EB4210AB
:102F9000C0F808191598006901280BD1FFE71598AA
:102FA0001099C1EBC10100EB8100016C426C11442E
:102FB0004164FFE715989DF84010FFF7E3FB159873
:102FC000006901281BD1FFE71098002816D1FFE700
:102FD00015981099C1EBC10100EB8100C06C00286D
:102FE0000CD1FFE71598016800F56F720120089079
:102FF0000846089908F0B4FE0790FFE7FFE7FFE7EF
:1030000011980007002808D5FFE71498109900EBE5
:1030100041100821C0F80819FFE71198C0060028E0
:1030200008D5FFE71498109900EB41101021C0F863
:103030000819FFE711984006002808D5FFE7149803
:10304000109900EB41104021C0F80819FFE71198D2
:103050008007002808D5FFE71498109900EB41106D
:103060000221C0F80819FFE711980006002806D5CC
:10307000FFE71598109904F0A5FD0690FFE7FFE71C
:1030800010980130109012984008129057E7FFE70F
:103090001598006809F0F4F910F0004F11D0FFE71F
:1030A0001498D0F8041821F00101C0F804181598FC
:1030B00000F06EFC15980068416901F00041416123
:1030C000FFE71598006809F0DBF910F4006F12D0E3
:1030D000FFE71498D0F8080810F0010F04D0FFE7BC
:1030E000159800F0E7FCFFE715980068416901F4C6
:1030F00000614161FFE71598006809F0C1F910F41B
:10310000805F70D0FFE71498D0F8041821F0010117
:10311000C0F8041815980068102109F0DBF80021A8
:1031200013910590FFE7139815994968884212D2C8
:10313000FFE71498139900EB4110FF21C0F808191C
:103140001498139A00EB4210C0F8081BFFE713987D
:1031500001301390E7E714984FF0FF31C0F81818CA
:103160001498D0F81C1841F00111C0F81C181598DB
:10317000006B00280FD0FFE71498D0F8841841F0B6
:103180000B01C0F884181498D0F8441841F00B01D2
:10319000C0F844180EE01498D0F8141841F00B0150
:1031A000C0F814181498D0F8101841F00B01C0F8AA
:1031B0001018FFE71498D0F8001821F4FE61C0F849
:1031C00000181598016800F56F72007C049008469D
:1031D000049908F0C5FD159909684A6902F48052FE
:1031E0004A610390FFE71598006809F049F910F467
:1031F000005F00F01A81FFE71598006808F0B4F945
:10320000DDF854E0DEF800E0DEF80C1021F4705137
:10321000CEF80C10159909680290084609F088F854
:1032200000280ED1FFE715980021C16015984FF4D2
:103230000071416115980068C16841F41051C16086
:10324000E7E015980321C16015984021416100F025
:1032500077FE0C900C984AF6C041C0F2D801884223
:103260000FD3FFE70C984EF2BF11C0F2E401884281
:1032700007D8FFE715980068C16841F47051C16034
:10328000C6E00C984EF2C011C0F2E40188420FD3A0
:10329000FFE70C9842F2FF31C0F2F401884207D8F0
:1032A000FFE715980068C16841F46051C160AEE065
:1032B0000C9842F20041C0F2F40188420FD3FFE7BC
:1032C0000C9847F27F31C0F20611884207D8FFE719
:1032D00015980068C16841F45051C16096E00C989F
:1032E00047F28031C0F2061188420FD3FFE70C98F5
:1032F00044F69F11C0F21A11884207D8FFE71598CB
:103300000068C16841F44051C1607EE00C9844F609
:10331000A011C0F21A1188420FD3FFE70C9842F6B1
:10332000FF41C0F23111884207D8FFE715980068C5
:10333000C16841F43051C16066E00C9842F600511A
:10334000C0F2311188420FD3FFE70C984AF23F4197
:10335000C0F24C11884207D8FFE715980068C16891
:1033600041F42051C1604EE00C984AF24041C0F255
:103370004C1188420FD3FFE70C9843F2FF51C0F283
:103380006E11884207D8FFE715980068C16841F4BC
:103390001051C16036E00C9843F20061C0F26E112A
:1033A00088420FD3FFE70C984AF61F31C0F2A611EE
:1033B000884207D8FFE715980068C16841F40051BA
:1033C000C1601EE00C984AF62031C0F2A611884276
:1033D0000FD3FFE70C9844F2FF71C0F2E811884266
:1033E00007D8FFE715980068C16841F4E051C16053
:1033F00006E015980068C16841F4C051C160FFE75C
:10340000FFE7FFE7FFE7FFE7FFE7FFE7FFE7FFE78C
:10341000FFE7159800F08CFA15980068D0F814E0D2
:103420000EF4005EC0F814E0FFE71598006809F09C
:1034300027F810F0100F64D0FFE715980068816935
:1034400021F0100181611498006A0E9015980E9970
:1034500001F00F01C1EBC10100EB810000F5FC7030
:103460000D900E9800F4F0100221B1EB504F25D1D1
:10347000FFE7BDF8380047F6F07108421DD0FFE7BE
:1034800014980D99C9680E9AC2F30A1209F00AF845
:103490000E9947F6F0721140DDF834E0DEF80C309A
:1034A00003EB1111CEF80C100E9911400D9A93698F
:1034B00003EB111191610190FFE71BE00E9800F4FE
:1034C000F0100621B1EB504F13D1FFE71498159976
:1034D00001F56F71082208F0E5FF0E9947F6F072CA
:1034E00011400D9AD2F818E00EEB11119161009085
:1034F000FFE7FFE715980068816941F010018161DD
:10350000FFE71598006808F0BBFF10F0080F0CD01B
:10351000FFE7159800F04AFA15980068D0F814E013
:103520000EF0080EC0F814E0FFE71598006808F0E8
:10353000A7FF10F4801F0CD0FFE715989DF84010EE
:1035400000F04EF815980068416901F4801141615E
:10355000FFE71598006808F093FF10F4001F0CD0E7
:10356000FFE715989DF8401000F04EF81598006898
:10357000416901F400114161FFE71598006808F006
:103580007FFF10F0804F0CD0FFE71598FFF7ECF8A5
:1035900015980068D0F814E00EF0804EC0F814E0E2
:1035A000FFE71598006808F06BFF10F0040F14D0C7
:1035B000FFE71598006840680E900E9840070028B5
:1035C00004D5FFE71598FFF71BF9FFE70E9815994B
:1035D00009684A6810434860FFE7FFE716B080BDFE
:1035E00080B586B00A46034605908DF813100598FD
:1035F000D0F8EC039DF813100392029306F0C8FF75
:10360000019006B080BD000080B586B00A46034632
:1036100005908DF813100598D0F8EC039DF8131061
:103620000392029306F0C0FF019006B080BD000037
:103630002DE9F04F99B00146179000201690179889
:103640000028159104D1FFE701208DF8630024E1E3
:1036500017980068B0F1A04F08D0FFE717980068EE
:103660000021C4F20401884201D1FFE707E046F6D9
:103670001060C0F60100942109F048F9FFE717989F
:10368000032180F8B913179800F00CF91798006817
:1036900008F066FA1799D1F800E04A688B68D1F80B
:1036A0000CC00C694D698E69CF69D1F82080D1F8C2
:1036B0002490D1F828A0D1F82CB01490086B496B55
:1036C00013906846416213990162C0F81CB0C0F8BB
:1036D00018A0C0F81490C0F81080C76086604560DC
:1036E0000460704611461A46634607F063FF179957
:1036F00009680022129008461146119208F000FF56
:10370000119916911090FFE716980E283BD8FFE705
:1037100017981699C1EBC10100EB8100012180F8D7
:10372000391016981799C0EBC00201EB820181F89D
:10373000380016981799C0EBC00201EB8201C887C8
:1037400017981699C1EBC10100EB8100002180F8A8
:103750003B101798169AC2EBC20200EB820001647C
:103760001798169AC2EBC20200EB820041641798C8
:10377000169AC2EBC20200EB8200C164FFE7169802
:1037800001301690C0E700201690FFE716980E282B
:1037900044D8FFE717981699C1EBC10100EB8100EF
:1037A000002180F8F9111698179AC0EBC00302EBBC
:1037B000830282F8F8011698179AC0EBC00302EB57
:1037C0008302D0871798169AC2EBC20200EB8200E0
:1037D00080F8FB111798169AC2EBC20200EB820028
:1037E000C0F800121798169AC2EBC20200EB8200D2
:1037F000C0F804121798169AC2EBC20200EB8200BE
:10380000C0F80C1217980068169A00EB8200C0F8F6
:103810000411FFE7169801301690B7E71798016872
:1038200042688368D0F80CC0D0F810E0446985691C
:10383000C669076AD0F82480D0F82890D0F82CA068
:10384000D0F830B0406B0F9068460E900F980D91F5
:103850000E994862C1F820B0C1F81CA0C1F81890B8
:10386000C1F814800F61CE608D604C60C1F800E03B
:103870000D9811461A46634608F032F8179901224E
:1038800081F8B923179909680C90084608F016F8D2
:1038900000218DF863100B90FFE79DF8630019B0CD
:1038A000BDE8F08F80B58CB001460B900B98006896
:1038B000B0F1A04F049138D1FFE74FF4C05006900B
:1038C0000220079000200890032009900A200A9007
:1038D0000020C4F2020006A9FDF718FCFFE743F63A
:1038E0003400C4F20200016841F080010160FFE78A
:1038F0000020059043F64400C4F20200016841F440
:1039000080410160006800F48040059005980390B4
:10391000FFE7FFE74320002102900191019AFEF7A3
:1039200051FE0298FEF734FEFFE70CB080BD0000A8
:1039300080B586B00146059001208DF813000598EA
:10394000C06800280391029004D0FFE70298022883
:1039500004D007E000208DF8130007E001208DF867
:10396000130003E001208DF81300FFE70598D0F85D
:10397000EC039DF8131006F011FF0599D1F8EC1334
:103980000190084606F0AAFE009006B080BD000037
:1039900080B584B0014603900398D0F8EC030291FF
:1039A00006F0D2FE019004B080BD000080B584B066
:1039B000014603900398D0F8EC03029106F0D0FE84
:1039C000019004B080BD000080B586B00A46034671
:1039D00004908DF80F1002920193FFE7049890F87D
:1039E000B803012804D1FFE702208DF8170016E084
:1039F0000498012180F8B813FFE7FFE704980068F6
:103A00009DF80F1008F0A8FD0090FFE70498002132
:103A100080F8B813FFE700208DF81700FFE79DF846
:103A2000170006B080BD000080B584B00146039049
:103A30000398D0F8EC2300F56F7002901046029ABC
:103A40000191114606F0F4FE009004B080BD000024
:103A500080B586B0014604900391FFE7049890F882
:103A6000B803012804D1FFE702208DF817001CE0FD
:103A70000498012180F8B813FFE7FFE70498006875
:103A800007F00AFFDDF810E0DEF800E00290704673
:103A900008F0ECFB0190FFE70498002180F8B813D0
:103AA000FFE700208DF81700FFE79DF8170006B02C
:103AB00080BD000080B584B0014603900398D0F823
:103AC000EC03029106F06CFF03990968D1F800EE4F
:103AD0004EF0010EC1F800EE0399096A0029019029
:103AE00009D0FFE74EF61050CEF20000016841F019
:103AF00006010160FFE704B080BD000070470000D0
:103B000080B588B00A4603460690059106980028BD
:103B10000392029304D1FFE701208DF81F0005E214
:103B200006980068002806D0FFE7069800680F286E
:103B300001D8FFE708E046F66170C0F601004FF4D7
:103B4000147108F0E3FEFFE7059800281CD0FFE79A
:103B50000598012818D0FFE70598022814D0FFE740
:103B60000598032810D0FFE7059804280CD0FFE73C
:103B70000598052808D0FFE70598062804D0FFE738
:103B80000598072801D1FFE708E046F66170C0F606
:103B9000010040F2512108F0B9FEFFE7059843F615
:103BA0000041C4F20201096801F00F01884212D9F4
:103BB000FFE7059843F60041C4F202010870086867
:103BC00000F00F000599884204D0FFE701208DF82E
:103BD0001F00ABE1FFE7069800688007002861D569
:103BE000FFE7069800684007002809D5FFE743F67D
:103BF0000800C4F20200016841F4E0510160FFE7EF
:103C0000069800680007002809D5FFE743F608007A
:103C1000C4F20200016841F460410160FFE70698C8
:103C20008068002828D0FFE706988068802823D085
:103C3000FFE70698806890281ED0FFE70698806806
:103C4000A02819D0FFE706988068B02814D0FFE7B5
:103C500006988068C0280FD0FFE706988068D028B3
:103C60000AD0FFE706988068E02805D0FFE70698AD
:103C70008068F02801D1FFE708E046F66170C0F6E1
:103C800001004FF41D7108F041FEFFE743F6080004
:103C9000C4F20200016821F0F001069A9268114313
:103CA0000160FFE706980068C007002800F08F80D9
:103CB000FFE70698406800280FD0FFE706984068A5
:103CC00001280AD0FFE706984068022805D0FFE7E0
:103CD00006984068032801D1FFE708E046F66170C6
:103CE000C0F6010040F27B2108F010FEFFE70698C5
:103CF0004068012811D1FFE743F60000C4F202003A
:103D0000006800F400300021B1EB504F04D1FFE710
:103D100001208DF81F0009E12CE006984068022878
:103D200005D0FFE706984068032811D1FFE743F666
:103D30000000C4F20200006800F000700021B1EB46
:103D4000506F04D1FFE701208DF81F00EEE010E076
:103D500043F60000C4F20200006800F002000021F7
:103D6000B1EB500F04D1FFE701208DF81F00DDE01B
:103D7000FFE7FFE743F60800C4F20200016821F004
:103D80000301069A526811430160FDF7A9FD0490F2
:103D9000FFE743F60800C4F20200006800F00C00E0
:103DA00006994968B0EB810F10D0FFE7FDF798FD49
:103DB000DDF810E0A0EB0E0041F2893E704504D31F
:103DC000FFE703208DF81F00B0E0E2E7FFE705986A
:103DD00043F60041C4F20201096801F00F01884274
:103DE00012D2FFE7059843F60041C4F202010870C1
:103DF000086800F00F000599884204D0FFE7012011
:103E00008DF81F0092E0FFE7069800684007002841
:103E100033D5FFE70698C068002818D0FFE706985A
:103E2000C068B0F5805F12D0FFE70698C068B0F5B3
:103E3000A05F0CD0FFE70698C068B0F5C05F06D061
:103E4000FFE70698C068B0F5E05F01D1FFE708E042
:103E500046F66170C0F6010040F2B92108F056FD47
:103E6000FFE743F60800C4F20200016821F4E051C4
:103E7000069AD26811430160FFE7069800680007C0
:103E8000002834D5FFE706980069002818D0FFE71E
:103E900006980069B0F5805F12D0FFE706980069C8
:103EA000B0F5A05F0CD0FFE706980069B0F5C05FE1
:103EB00006D0FFE706980069B0F5E05F01D1FFE7A3
:103EC00008E046F66170C0F601004FF4307108F06A
:103ED0001DFDFFE743F60800C4F20200016821F46B
:103EE0006041069A126941EAC2010160FFE700F0F1
:103EF00055F843F6080EC4F2020EDEF800E0CEF3E9
:103F0000031E46F2D061C0F6010111F80E10C84040
:103F100040F23C01C2F20001086000200190FEF76F
:103F200087FA01998DF81F100090FFE79DF81F0098
:103F300008B080BD4C20C4F24720012101607047C9
:103F400040F23C00C2F200000068704780B5FFF705
:103F5000F7FF43F6080EC4F2020EDEF800E0CEF3DF
:103F6000822E46F2E061C0F6010111F80E10C84041
:103F700080BD000080B5FFF7E3FF43F6080EC4F2F2
:103F8000020EDEF800E0CEF3423E46F2E061C0F6FB
:103F9000010111F80E10C84080BD000080B586B048
:103FA0000020059004900390029043F60800C4F2AC
:103FB0000200006800F00C0001460028019108D0C2
:103FC000FFE7019804280AD0FFE7019808280CD0E1
:103FD0004FE042F20040C0F2F40002904FE041F6A0
:103FE0000030C0F2B700029049E043F60400C4F28A
:103FF0000200016801F03F010591006810F4800F94
:1040000013D0FFE743F60400C4F202000068C0F3D7
:10401000881041F60031C0F2B701A0FB0101059AFA
:104020000023FCF7CDF8049012E043F60400C4F23C
:1040300002000068C0F3881042F20041C0F2F401AF
:10404000A0FB0101059A0023FCF7BAF80490FFE7F2
:1040500043F60400C4F20200006800F4403002217C
:1040600001EBD030039004980399B0FBF1F002907B
:1040700005E042F20040C0F2F4000290FFE702982F
:1040800006B080BD80B543F60C00C4F202000068A3
:1040900010F0800F0AD0FFE7FFF730FD43F60E0E59
:1040A000C4F2020E80208EF80000FFE780BD000001
:1040B00080B588B00146069006980028029105D187
:1040C000FFE701208DF81F0000F025BC069800686E
:1040D0000F2801D8FFE707E046F66170C0F601003F
:1040E000F82108F013FCFFE706980068C0070028D5
:1040F00000F0C580FFE70698406800280CD0FFE775
:1041000006984068B0F5803F06D0FFE70698406803
:10411000B0F5A02F01D1FFE707E046F66170C0F6C9
:104120000100FD2108F0F2FBFFE743F60800C4F2AE
:104130000200006800F00C00042813D0FFE743F6EB
:104140000800C4F20200006800F00C0008281FD12B
:10415000FFE743F60400C4F20200006810F4800F89
:1041600016D0FFE743F60000C4F20200006800F436
:1041700000300021B1EB504F09D0FFE706984068AE
:10418000002804D1FFE701208DF81F00C3E375E08C
:10419000FFE706984068B0F5803F09D1FFE743F696
:1041A0000000C4F20200016841F48031016020E0A7
:1041B00006984068B0F5A02F0DD1FFE743F6000048
:1041C000C4F20200016841F480210160016841F4F9
:1041D000803101600CE043F60000C4F20200016887
:1041E00021F480310160016821F480210160FFE742
:1041F000FFE7FFE70698406800281FD0FFE7FDF7BC
:104200006FFB0590FFE743F60000C4F20200006870
:1042100000F400300021B1EB504F0ED1FFE7FDF765
:104220005FFBDDF814E0A0EB0E00652804D3FFE788
:1042300003208DF81F006EE3E5E71EE0FDF750FB5D
:104240000590FFE743F60000C4F20200006800F4A6
:1042500000300021B1EB504F0ED0FFE7FDF740FBDF
:10426000DDF814E0A0EB0E00652804D3FFE703207F
:104270008DF81F004FE3E5E7FFE7FFE7FFE706984C
:1042800000688007002840F1BE80FFE70698C068FC
:10429000002805D0FFE70698C068012801D1FFE794
:1042A00008E046F66170C0F6010040F22F1108F0F8
:1042B0002DFBFFE7069800691F2801D8FFE708E0FB
:1042C00046F66170C0F601004FF4987108F01EFBCD
:1042D000FFE743F60800C4F20200006810F00C0F7C
:1042E00013D0FFE743F60800C4F20200006800F0B4
:1042F0000C0008282CD1FFE743F60400C4F20200AA
:10430000006810F4800F23D1FFE743F60000C4F2E9
:104310000200006800F002000021B1EB500F09D04C
:10432000FFE70698C068012804D0FFE701208DF858
:104330001F00F0E243F60000C4F20200016821F021
:10434000F801069A126941EAC2010160FFE759E0EB
:104350000698C068002830D0FFE70020C4F247204C
:1043600001210160FDF7BCFA0590FFE743F600006C
:10437000C4F20200006800F002000021B1EB500F0F
:104380000ED1FFE7FDF7ACFADDF814E0A0EB0E006C
:10439000032804D3FFE703208DF81F00BBE2E5E705
:1043A00043F60000C4F20200016821F0F801069A09
:1043B000126941EAC201016023E00020C4F24720F3
:1043C00000210160FDF78CFA0590FFE743F600003D
:1043D000C4F20200006800F002000021B1EB500FAF
:1043E0000ED0FFE7FDF77CFADDF814E0A0EB0E003D
:1043F000032804D3FFE703208DF81F008BE2E5E7D5
:10440000FFE7FFE7FFE7069800680007002864D58C
:10441000FFE706984069002805D0FFE70698406945
:10442000012801D1FFE708E046F66170C0F60100FF
:104430004FF4B87108F06AFAFFE70698406900285F
:1044400025D0FFE740F68060C4F2472001210160DB
:10445000FDF746FA0590FFE743F67400C4F2020048
:10446000006800F002000021B1EB500F0ED1FFE711
:10447000FDF736FADDF814E0A0EB0E00032804D3B4
:10448000FFE703208DF81F0045E2E5E724E040F652
:104490008060C4F2472000210160FDF721FA0590F9
:1044A000FFE743F67400C4F20200006800F0020067
:1044B0000021B1EB500F0ED0FFE7FDF711FADDF848
:1044C00014E0A0EB0E00032804D3FFE703208DF8CF
:1044D0001F0020E2E5E7FFE7FFE7069800684007D6
:1044E000002840F1EF80FFE700208DF813000698C8
:1044F000806800280AD0FFE706988068012805D068
:10450000FFE706988068052801D1FFE708E046F636
:104510006170C0F601004FF4CE7108F0F7F9FFE7C3
:1045200043F64000C4F20200006810F0805F16D12C
:10453000FFE7FFE70020039043F64000C4F20200CB
:10454000016841F080510160006800F080500390E4
:1045500003980190FFE701208DF81300FFE747F271
:104560000000C4F20000006810F4807F24D1FFE74F
:1045700047F20000C4F20000016841F4807101605C
:10458000FDF7AEF90590FFE747F20000C4F2000026
:10459000006810F4807F0ED1FFE7FDF7A1F9DDF888
:1045A00014E0A0EB0E00032804D3FFE703208DF8EE
:1045B0001F00B0E1E8E7FFE7FFE706988068012801
:1045C00009D1FFE743F67000C4F20200016841F030
:1045D000010101601FE00698806805280DD1FFE702
:1045E00043F67000C4F20200016841F0040101606A
:1045F000016841F0010101600CE043F67000C4F273
:104600000200016821F001010160016821F004014C
:104610000160FFE7FFE7FFE706988068002821D0E8
:10462000FFE7FDF75DF90590FFE743F67000C4F280
:104630000200006800F002000021B1EB500F10D121
:10464000FFE7FDF74DF9DDF814E0A0EB0E0041F2B5
:10465000893E704504D3FFE703208DF81F005AE11F
:10466000E3E720E0FDF73CF90590FFE743F6700033
:10467000C4F20200006800F002000021B1EB500F0C
:1046800010D0FFE7FDF72CF9DDF814E0A0EB0E00E9
:1046900041F2893E704504D3FFE703208DF81F00E7
:1046A00039E1E3E7FFE79DF81300012809D1FFE7AF
:1046B00043F64000C4F20200016821F0805101601D
:1046C000FFE7FFE70698806900280AD0FFE7069811
:1046D0008069012805D0FFE706988069022801D18A
:1046E000FFE708E046F66170C0F6010040F2DF1116
:1046F00008F00CF9FFE706988069002800F00781B0
:10470000FFE743F60800C4F20200006800F00C0066
:10471000082800F0F780FFE706988069022840F03B
:10472000CC80FFE70698C069002806D0FFE706980E
:10473000C069B0F5800F01D1FFE708E046F661706F
:10474000C0F601004FF4F47108F0E0F8FFE70698B6
:10475000006A3F2801D8FFE708E046F66170C0F61E
:10476000010040F2E91108F0D1F8FFE70698406A2D
:10477000322807D3FFE70698406AB0F5D87F01D802
:10478000FFE708E046F66170C0F601004FF4F571EE
:1047900008F0BCF8FFE70698806A02280FD0FFE710
:1047A0000698806A04280AD0FFE70698806A0628DF
:1047B00005D0FFE70698806A082801D1FFE708E0E6
:1047C00046F66170C0F6010040F2EB1108F09EF869
:1047D000FFE70698C06A022806D3FFE70698C06A7A
:1047E0000F2801D8FFE708E046F66170C0F6010027
:1047F0004FF4F67108F08AF8FFE76020C4F2472012
:1048000000210160FDF76CF80590FFE743F600001A
:10481000C4F20200006800F000700021B1EB506F9C
:104820000ED0FFE7FDF75CF8DDF814E0A0EB0E001A
:10483000032804D3FFE703208DF81F006BE0E5E7B2
:104840000698C169026A436AD0F828C0114341EA58
:1048500083114FEACC324FF6FF739A43A2F58032B0
:104860001143C06A41EA006043F60401C4F2020148
:1048700008606020C4F2472001210160FDF730F894
:104880000590FFE743F60000C4F20200006800F064
:1048900000700021B1EB506F0ED1FFE7FDF720F85B
:1048A000DDF814E0A0EB0E00032804D3FFE703209B
:1048B0008DF81F002FE0E5E723E06020C4F24720D9
:1048C00000210160FDF70CF80590FFE743F60000BA
:1048D000C4F20200006800F000700021B1EB506FDC
:1048E0000ED0FFE7FCF7FCFFDDF814E0A0EB0E00B4
:1048F000032804D3FFE703208DF81F000BE0E5E752
:10490000FFE703E001208DF81F0004E0FFE700202F
:104910008DF81F00FFE79DF81F0008B080BD000064
:1049200080B584B00146029002980028019104D11C
:10493000FFE701208DF80F0057E10298006843F26D
:104940000001C4F20101884212D0FFE7029800681A
:1049500043F60001C4F20001884209D0FFE7029843
:10496000006843F60041C4F20001884201D1FFE72C
:1049700008E046F6B860C0F601004FF4877107F012
:10498000C5FFFFE702984068002806D0FFE70298BD
:104990004068B0F5827F01D1FFE708E046F6B860D5
:1049A000C0F6010040F20F1107F0B0FFFFE70298D8
:1049B000806800280CD0FFE702988068B0F5806F0F
:1049C00006D0FFE702988068B0F5004F01D1FFE7FD
:1049D00008E046F6B860C0F601004FF4887107F0B1
:1049E00095FFFFE70298C068B0F5006F05D0FFE7BC
:1049F0000298C068002801D1FFE708E046F6B860D9
:104A0000C0F6010040F2111107F080FFFFE70298A5
:104A10008069B0F5007F0BD0FFE70298806900281D
:104A200006D0FFE702988069B0F5802F01D1FFE73B
:104A300008E046F6B860C0F601004FF4897107F04F
:104A400065FFFFE70298C069002823D0FFE70298BE
:104A5000C06908281ED0FFE70298C069102819D045
:104A6000FFE70298C069182814D0FFE70298C069D0
:104A700020280FD0FFE70298C06928280AD0FFE756
:104A80000298C069302805D0FFE70298C06938282D
:104A900001D1FFE708E046F6B860C0F6010040F239
:104AA000131107F033FFFFE70298006A002805D0D2
:104AB000FFE70298006A802801D1FFE708E046F688
:104AC000B860C0F601004FF48A7107F01FFFFFE7DE
:104AD0000298406A002805D0FFE70298406A102833
:104AE00001D1FFE708E046F6B860C0F6010040F2E9
:104AF000151107F00BFFFFE70298406A002829D143
:104B0000FFE702980069002805D0FFE702980069D6
:104B1000022801D1FFE708E046F6B860C0F60100C0
:104B20004FF48C7107F0F2FEFFE70298406900280D
:104B300005D0FFE702984069012801D1FFE708E0AE
:104B400046F6B860C0F6010040F2191107F0DEFE2B
:104B5000FFE7FFE7029800218162029890F8510078
:104B6000002808D1FFE70298002180F85010029831
:104B700000F040F8FFE70298022180F851100298F7
:104B80000068016821F040010160029801684268F4
:104B90008368D0F80CC01A4342EA0C0203691A4336
:104BA00043691A43836903F400731A43C3691A43C0
:104BB000036A1A43806A104308600298418B01F02F
:104BC00004010268406A0843506002980068C169A5
:104BD00021F40061C161029800214165029801221F
:104BE00080F851208DF80F10FFE79DF80F0004B0FA
:104BF00080BD000080B58EB001460D900D98006814
:104C000043F20002C4F201029042049123D1FFE773
:104C1000FFE70020079043F64400C4F20200016859
:104C200041F480510160006800F4805007900798BB
:104C30000390FFE7E02008900220099000200A90EE
:104C400003200B9005200C900020C4F2020008A95C
:104C5000FCF75CFA5DE00D98006843F60001C4F2D1
:104C60000001884225D1FFE7FFE70020069043F6C8
:104C70004000C4F20200016841F480410160006814
:104C800000F48040069006980290FFE74FF46040E1
:104C900008900220099000200A9003200B90052024
:104CA0000C9040F20040C4F2020008A9FCF72EFA72
:104CB0002EE00D98006843F60041C4F200018842DE
:104CC00025D1FFE7FFE70020059043F64000C4F23E
:104CD0000200016841F400410160006800F40040F6
:104CE000059005980190FFE74FF4E05008900220EE
:104CF000099000200A9003200B9006200C9040F6AB
:104D00000000C4F2020008A9FCF700FAFFE7FFE781
:104D1000FFE70EB080BD0000B0B58EB09C46964651
:104D20000C4605460C900B91ADF82A200993002003
:104D300008908DF81F000C984068B0F5827FCDF880
:104D400018C0CDF814E00494039518D1FFE70C982F
:104D50008068002813D1FFE70C98042180F85110D7
:104D60000C980B99099ABDF82A30EC46CCF8002033
:104D70000291029A00F088FA8DF8370003E1FFE70C
:104D80000C9890F85000012804D1FFE702208DF81C
:104D90003700F8E00C98012180F85010FFE7FFE79A
:104DA000FCF79EFD08900C9890F85100012804D063
:104DB000FFE702208DF81F00D6E00B98002805D0F1
:104DC000FFE7BDF82A00002804D1FFE701208DF895
:104DD0001F00C9E00C98042180F851100C980021A4
:104DE00041650B980C9A9063BDF82A000C9A908745
:104DF000BDF82A000C9AD0870C9801630C98818624
:104E00000C98C1860C9801640C9841640C988068D9
:104E1000B0F5004F07D1FFE70C980068016821F456
:104E200080410160FFE70C980068006800F04000D6
:104E3000402807D0FFE70C980068016841F0400166
:104E40000160FFE70C98C068002835D1FFE7FFE755
:104E50000C98C08F00282ED0FFE70C98006880685F
:104E600010F0010F0DD0FFE70C980068007B0B9944
:104E700008700B9801300B900C98C18F0139C187D5
:104E800018E00998002810D0FFE7099801300028A1
:104E90000FD0FFE7FCF724FDDDF820E0A0EB0E00CB
:104EA000DDF824E0704504D3FFE703208DF81F00F0
:104EB0005AE0FFE7CCE734E0FFE70C98C08F00280A
:104EC0002ED0FFE70C980068806810F0010F0DD01D
:104ED000FFE70C980068C0680B9908800B980230B7
:104EE0000B900C98C18F0139C18718E009980028F0
:104EF00010D0FFE70998013000280FD0FFE7FCF73A
:104F0000EFFCDDF820E0A0EB0E00DDF824E07045BA
:104F100004D3FFE703208DF81F0025E0FFE7CCE76F
:104F2000FFE70C984068B0F5827F13D1FFE70C983B
:104F30008068B0F5004F06D0FFE70C988068B0F5A8
:104F4000806F07D1FFE70C980068016821F04001ED
:104F50000160FFE70C98406D002804D0FFE70120B6
:104F60008DF81F00FFE7FFE70C98012180F8511032
:104F7000FFE70C98002180F85010FFE79DF81F0014
:104F80008DF83700FFE79DF837000EB0B0BD000088
:104F9000B0B58EB09C4696460C4605460C900B91DB
:104FA000ADF82A200993002008908DF81F000C9876
:104FB00080680028CDF814C0CDF810E00394029565
:104FC00006D0FFE70C988068B0F5004F01D1FFE7ED
:104FD00008E046F6B860C0F6010040F2C51107F0DF
:104FE00095FCFFE7FFE70C9890F85000012804D1EA
:104FF000FFE702208DF8370041E10C98012180F88D
:105000005010FFE7FFE7FCF76BFC08900C9890F856
:105010005100012804D0FFE702208DF81F001FE196
:105020000B98002805D0FFE7BDF82A00002804D11E
:10503000FFE701208DF81F0012E10C98032180F892
:1050400051100C98002141650B980C9A1063BDF823
:105050002A000C9A9086BDF82A000C9AD0860C98EB
:1050600081630C9881870C98C1870C9841640C98D7
:1050700001640C988068B0F5004F07D1FFE70C98E9
:105080000068016841F480410160FFE70C98006806
:10509000006800F04000402807D0FFE70C98006847
:1050A000016841F040010160FFE70C98C068B0F56D
:1050B000006F4CD1FFE70C984068002805D0FFE74F
:1050C0000C98C08E01280DD1FFE70B9800880C9931
:1050D0000968C8600B9802300B900C98C18E01399A
:1050E000C186FFE7FFE70C98C08E00282ED0FFE7AF
:1050F0000C980068806810F0020F0DD0FFE70B9845
:1051000000880C990968C8600B9802300B900C98C5
:10511000C18E0139C18618E00998002810D0FFE738
:105120000998013000280FD0FFE7FCF7D9FBDDF824
:1051300020E0A0EB0E00DDF824E0704504D3FFE78B
:1051400003208DF81F008BE0FFE7CCE74BE00C98C5
:105150004068002805D0FFE70C98C08E01280DD1CB
:10516000FFE70B9800780C99096808730B980130D9
:105170000B900C98C18E0139C186FFE7FFE70C98B0
:10518000C08E00282ED0FFE70C980068806810F0D1
:10519000020F0DD0FFE70B9800780C99096808738F
:1051A0000B9801300B900C98C18E0139C18618E024
:1051B0000998002810D0FFE70998013000280FD087
:1051C000FFE7FCF78DFBDDF820E0A0EB0E00DDF83B
:1051D00024E0704504D3FFE703208DF81F003FE073
:1051E000FFE7CCE7FFE70C98099B08996A46116036
:1051F0000221012203F028FC002804D0FFE703204D
:105200008DF81F002CE00C980999089A03F0ECFB2C
:10521000002807D0FFE701208DF81F000C982021FF
:1052200041651DE00C98806800280FD1FFE7FFE77B
:10523000002006900C980068C06806900C980068E2
:105240008068069006980190FFE7FFE70C98406D94
:10525000002804D0FFE701208DF81F00FFE7FFE7DB
:105260000C98012180F85110FFE70C98002180F87C
:105270005010FFE79DF81F008DF83700FFE79DF8FD
:1052800037000EB0B0BD000070B594B0DDF860C05E
:105290009E4614460D460646129011911092ADF8A6
:1052A0003E3000200E900D900C9001210B918DF856
:1052B0002B00129880680028CDF820E0079406950E
:1052C0000596CDF810C001D1FFE708E046F6B860BA
:1052D000C0F6010040F23A3107F018FBFFE7FFE7A4
:1052E000129890F85000012804D1FFE702208DF8B1
:1052F0004F00AAE11298012180F85010FFE7FFE764
:10530000FCF7EEFA0C90129890F851000E9012985B
:1053100040680D900E98012812D0FFE70D98B0F567
:10532000827F09D1FFE712988068002804D1FFE747
:105330000E98042804D0FFE702208DF82B0075E1B9
:105340001198002809D0FFE71098002805D0FFE742
:10535000BDF83E00002804D1FFE701208DF82B00A6
:1053600064E1129890F85100012805D1FFE71298E6
:10537000052180F85110FFE712980021416510982F
:10538000129A9063BDF83E00129AD087BDF83E0095
:10539000129A90871198129A1063BDF83E00129AE3
:1053A000D086BDF83E00129A908612980164129839
:1053B000416412980068006800F04000402807D05F
:1053C000FFE712980068016841F040010160FFE7C3
:1053D0001298C068B0F5006F7BD1FFE71298406863
:1053E000002805D0FFE71298C08E01280DD1FFE7F5
:1053F0001198008812990968C860119802301190BC
:105400001298C18E0139C186FFE7FFE71298C08E5E
:1054100001210028039107D1FFE71298C08F0028CF
:1054200018BF01200390FFE70398C00700284FD062
:10543000FFE70B9800281BD0FFE71298C08E0028CA
:1054400016D0FFE712980068806810F0020F0FD0A6
:10545000FFE71198008812990968C8601198023016
:1054600011901298C18E0139C18600200B90FFE780
:105470001298C08F002816D0FFE712980068806845
:1054800010F0010F0FD0FFE712980068C068109964
:1054900008801098023010901298C18F0139C1878E
:1054A00001200B90FFE71898013000280FD0FFE78C
:1054B000FCF716FADDF830E0A0EB0E00DDF860E056
:1054C000704504D3FFE703208DF82B00AEE09DE785
:1054D00078E012984068002805D0FFE71298C08E47
:1054E00001280DD1FFE71198007812990968087317
:1054F0001198013011901298C18E0139C186FFE7D1
:10550000FFE71298C08E01210028029107D1FFE722
:105510001298C08F002818BF01200290FFE7029860
:10552000C00700284DD0FFE70B9800281AD0FFE7EE
:105530001298C08E002815D0FFE712980068806886
:1055400010F0020F0ED0FFE71198411C1191007866
:105550001299096808731298C18E0139C18600201A
:105560000B90FFE71298C08F002815D0FFE7129824
:105570000068806810F0010F0ED0FFE712980068F5
:10558000C06810994A1C109208701298C18F013996
:10559000C18701200B90FFE71898013000280FD039
:1055A000FFE7FCF79DF9DDF830E0A0EB0E00DDF839
:1055B00060E0704504D3FFE703208DF82B0035E051
:1055C0009FE7FFE71298189B0C996A461160022129
:1055D000012203F039FA002804D0FFE703208DF8F8
:1055E0002B0023E0129818990C9A03F0FDF900287B
:1055F00007D0FFE701208DF82B001298202141658C
:1056000014E01298806800280FD1FFE7FFE7002020
:10561000099012980068C068099012980068806824
:10562000099009980190FFE7FFE7FFE71298012131
:1056300080F85110FFE71298002180F85010FFE722
:105640009DF82B008DF84F00FFE79DF84F0014B038
:1056500070BD000080B582B0014601900198042819
:10566000009104D0FFE70198002801D1FFE708E08E
:1056700046F6D270C0F6010040F2D91107F046F9A3
:10568000FFE70198042809D1FFE74EF21000CEF29F
:105690000000016841F00401016008E04EF21000D2
:1056A000CEF20000016821F004010160FFE702B0C2
:1056B00080BD00007047000080B582B001460190B7
:1056C0000198009103F028FB02B080BD80B5FFF780
:1056D000F1FF80BD82B001460190009102B0704799
:1056E00082B001460190009102B0704780B584B04D
:1056F0000146029002980028019104D1FFE70120A1
:105700008DF80F00E0E0029800680021C4F201016A
:10571000884272D0FFE702980068B0F1804F6CD0E9
:10572000FFE70298006840F20041C4F2000188429D
:1057300063D0FFE70298006840F60001C4F2000160
:1057400088425AD0FFE70298006840F60041C4F250
:105750000001884251D0FFE70298006841F2000141
:10576000C4F20001884248D0FFE70298006841F285
:105770000041C4F2000188423FD0FFE70298006870
:1057800040F20041C4F20101884236D0FFE702989E
:10579000006844F20001C4F2010188422DD0FFE705
:1057A0000298006844F20041C4F20101884224D00A
:1057B000FFE70298006844F60001C4F20101884244
:1057C0001BD0FFE70298006841F60001C4F2000117
:1057D000884212D0FFE70298006841F60041C4F207
:1057E0000001884209D0FFE70298006842F20001F8
:1057F000C4F20001884201D1FFE707E046F6F060FD
:10580000C0F60100D72107F081F8FFE70298806811
:10581000002814D0FFE70298806810280FD0FFE717
:105820000298806820280AD0FFE702988068402804
:1058300005D0FFE702988068602801D1FFE707E004
:1058400046F6F060C0F60100D82107F05FF8FFE7E8
:105850000298006900280CD0FFE702980069B0F5B3
:10586000807F06D0FFE702980069B0F5007F01D184
:10587000FFE707E046F6F060C0F60100D92107F027
:1058800045F8FFE7029890F83900002808D1FFE7B3
:105890000298002180F83810029800F035F8FFE7F0
:1058A0000298022180F83910029850F8041B0090E9
:1058B0000846009903F026FB0298012180F8391070
:1058C00000208DF80F00FFE79DF80F0004B080BDA9
:1058D00080B582B0014601900198006842F2000252
:1058E000C4F20002904200910CD1FFE743F6400061
:1058F000C4F20200016821F4807101602D20FCF7E0
:105900002DFEFFE702B080BD80B586B00146059050
:105910000598006842F20002C4F20002904203912E
:105920001CD1FFE7FFE70020049043F64000C4F2DB
:105930000200016841F480710160006800F4807029
:10594000049004980290FFE72D2005210022019089
:10595000FCF738FE0198FCF71BFEFFE706B080BDA0
:1059600080B582B001460190019800680022C4F21F
:1059700001029042009172D0FFE701980068B0F1F7
:10598000804F6CD0FFE70198006840F20041C4F2FC
:105990000001884263D0FFE70198006840F60001EB
:1059A000C4F2000188425AD0FFE70198006840F62F
:1059B0000041C4F20001884251D0FFE7019800681D
:1059C00041F20001C4F20001884248D0FFE701988B
:1059D000006841F20041C4F2000188423FD0FFE775
:1059E0000198006840F20041C4F20101884236D0BB
:1059F000FFE70198006844F20001C4F20101884207
:105A00002DD0FFE70198006844F20041C4F2010183
:105A1000884224D0FFE70198006844F60001C4F2F0
:105A2000010188421BD0FFE70198006841F60001A0
:105A3000C4F20001884212D0FFE70198006841F6E5
:105A40000041C4F20001884209D0FFE701980068D4
:105A500042F20001C4F20001884201D1FFE708E0F0
:105A600046F6F060C0F601004FF4B17106F04EFF4B
:105A7000FFE701980068C16841F00101C160019829
:105A80000068016841F001010160002002B080BDA2
:105A900082B001460190009102B0704780B582B09B
:105AA0000146019001980068006900F002000022A0
:105AB000B2EB500F009129D0FFE701980068C06851
:105AC00000F002000021B1EB500F1ED0FFE701985B
:105AD00000686FF0020101610198012101760198CF
